:020000040800F2
:1000000000000220014E0008ED480008EF480008FB
:10001000F1480008F3480008F54800080000000017
:10002000000000000000000000000000F748000889
:10003000F948000800000000FB480008FD480008DF
:10004000514E0008514E0008514E0008514E000814
:10005000514E0008514E0008514E0008514E000804
:10006000514E0008514E0008514E00080549000845
:10007000514E0008514E0008154900082549000856
:10008000514E0008514E0008514E0008514E0008D4
:10009000514E0008514E0008514E0008514E0008C4
:1000A000514E0008514E0008514E0008514E0008B4
:1000B000514E0008514E0008514E000835490008C5
:1000C00045490008514E0008514E0008514E0008A5
:1000D00055490008514E0008514E0008514E000885
:1000E000514E0008514E0008514E0008514E000874
:1000F000514E0008514E0008514E00086549000855
:10010000514E0008514E0008514E0008514E000853
:10011000514E0008514E0008514E0008514E000843
:1001200075490008514E0008514E0008514E000814
:10013000514E00080000000000000000514E000871
:10014000514E0008514E0008514E0008514E000813
:10015000514E0008514E0008514E0008514E000803
:10016000514E0008514E0008514E0008514E0008F3
:10017000514E0008514E0008514E0008000000008A
:1001800000000000514E00080000000000000000C8
:10019000514E00080000000000000000514E000811
:1001A000000000000000000000000000514E0008A8
:1001B000514E0008514E0008514E0008514E0008A3
:0401C000514E000894
:1001D00010B5054C237833B9044B13B10448AFF381
:1001E00000800123237010BD7C0600200000000069
:1001F000887C000808B5034B1BB103490348AFF3E3
:10020000008008BD0000000080060020887C0008F7
:10021000034613F8012B002AFBD1181A0138704746
:1002200001F0FF01102A2BDB10F0070F08D010F8A7
:10023000013B013A8B422DD010F0070F42B3F6D1AB
:10024000F0B441EA012141EA014122F007047FF0C4
:1002500000070023F0E80256083C85EA010586EA1B
:10026000010685FA47F5A3FA87F586FA47F6A5FA57
:1002700087F68EB9EED1F0BC01F0FF0102F0070263
:1002800032B110F8013B013A83EA010313B1F8D10E
:100290000020704701387047002D06BF35460338EF
:1002A000073815F0010F07D1013015F4807F02BF28
:1002B000013015F4C03F0130F0BC0138704700BF79
:1002C00081F0004102E000BF83F0004330B54FEA07
:1002D00041044FEA430594EA050F08BF90EA020F74
:1002E0001FBF54EA000C55EA020C7FEA645C7FEA07
:1002F000655C00F0E2804FEA5454D4EB5555B8BF2A
:100300006D420CDD2C4480EA020281EA030382EA9A
:10031000000083EA010180EA020281EA0303362D2C
:1003200088BF30BD11F0004F4FEA01314FF4801CFF
:100330004CEA113102D0404261EB410113F0004F11
:100340004FEA03334CEA133302D0524263EB4303C8
:1003500094EA050F00F0A780A4F10104D5F1200E66
:100360000DDB02FA0EFC22FA05F2801841F10001C1
:1003700003FA0EF2801843FA05F359410EE0A5F195
:1003800020050EF1200E012A03FA0EFC28BF4CF0C6
:10039000020C43FA05F3C01851EBE37101F000457C
:1003A00007D54FF0000EDCF1000C7EEB00006EEB89
:1003B0000101B1F5801F1BD3B1F5001F0CD3490813
:1003C0005FEA30004FEA3C0C04F101044FEA44526A
:1003D00012F5800F80F09A80BCF1004F08BF5FEAF1
:1003E000500C50F1000041EB045141EA050130BDD1
:1003F0005FEA4C0C404141EB010111F4801FA4F174
:100400000104E9D191F0000F04BF01460020B1FAC8
:1004100081F308BF2033A3F10B03B3F120020CDA00
:100420000C3208DD02F1140CC2F10C0201FA0CF0DE
:1004300021FA02F10CE002F11402D8BFC2F1200C43
:1004400001FA02F120FA0CFCDCBF41EA0C019040F9
:10045000E41AA2BF01EB0451294330BD6FEA040442
:100460001F3C1CDA0C340EDC04F11404C4F120022D
:1004700020FA04F001FA02F340EA030021FA04F33F
:1004800045EA030130BDC4F10C04C4F1200220FA96
:1004900002F001FA04F340EA0300294630BD21FAD4
:1004A00004F0294630BD94F0000F83F4801306BF9A
:1004B00081F480110134013D4EE77FEA645C18BF8E
:1004C0007FEA655C29D094EA050F08BF90EA020F25
:1004D00005D054EA000C04BF1946104630BD91EA1D
:1004E000030F1EBF0021002030BD5FEA545C05D120
:1004F0004000494128BF41F0004130BD14F580045F
:100500003CBF01F5801130BD01F0004545F0FE41D2
:1005100041F470014FF0000030BD7FEA645C1ABF07
:10052000194610467FEA655C1CBF0B46024650EA3E
:10053000013406BF52EA033591EA030F41F400216A
:1005400030BD00BF90F0000F04BF0021704730B5F0
:100550004FF4806404F132044FF000054FF00001C5
:1005600050E700BF90F0000F04BF0021704730B586
:100570004FF4806404F1320410F0004548BF40425B
:100580004FF000013EE700BF42004FEAE2014FEAB0
:1005900031014FEA02701FBF12F07F4393F07F4F8B
:1005A00081F06051704792F0000F14BF93F07F4FBD
:1005B000704730B54FF4607401F0004521F0004100
:1005C00020E700BF50EA010208BF704730B54FF086
:1005D00000050AE050EA010208BF704730B511F08B
:1005E000004502D5404261EB41014FF4806404F1C3
:1005F00032045FEA915C3FF4DCAE4FF003025FEA45
:10060000DC0C18BF03325FEADC0C18BF033202EBCC
:10061000DC02C2F1200300FA03FC20FA02F001FA26
:1006200003FE40EA0E0021FA02F11444C1E600BFC5
:1006300070B54FF0FF0C4CF4E06C1CEA11541DBF78
:100640001CEA135594EA0C0F95EA0C0F00F0DEF843
:100650002C4481EA030621EA4C5123EA4C5350EA28
:10066000013518BF52EA033541F4801143F4801379
:1006700038D0A0FB02CE4FF00005E1FB02E506F00A
:100680000042E0FB03E54FF00006E1FB03569CF05F
:10069000000F18BF4EF0010EA4F1FF04B6F5007F65
:1006A00064F5407404D25FEA4E0E6D4146EB0606D7
:1006B00042EAC62141EA55514FEAC52040EA5E5060
:1006C0004FEACE2EB4F1FD0C88BFBCF5E06F1ED80A
:1006D000BEF1004F08BF5FEA500E50F1000041EB41
:1006E000045170BD06F0004646EA010140EA0200EE
:1006F00081EA0301B4EB5C04C2BFD4EB0C0541EA10
:10070000045170BD41F480114FF0000E013C00F324
:10071000AB8014F1360FDEBF002001F0004170BD48
:10072000C4F10004203C35DA0C341BDC04F1140461
:10073000C4F1200500FA05F320FA04F001FA05F2ED
:1007400040EA020001F0004221F0004110EBD370BA
:1007500021FA04F642EB06015EEA430E08BF20EAE6
:10076000D37070BDC4F10C04C4F1200500FA04F389
:1007700020FA05F001FA04F240EA020001F000411B
:1007800010EBD37041F100015EEA430E08BF20EA8E
:10079000D37070BDC4F1200500FA05F24EEA020ED6
:1007A00020FA04F301FA05F243EA020321FA04F005
:1007B00001F0004121FA04F220EA020000EBD370BC
:1007C0005EEA430E08BF20EAD37070BD94F0000FBC
:1007D0000FD101F00046400041EB010111F4801FF0
:1007E00008BF013CF7D041EA060195F0000F18BFA1
:1007F000704703F00046520043EB030313F4801FDD
:1008000008BF013DF7D043EA0603704794EA0C0F96
:100810000CEA135518BF95EA0C0F0CD050EA4106AC
:1008200018BF52EA4306D1D181EA030101F0004129
:100830004FF0000070BD50EA410606BF1046194651
:1008400052EA430619D094EA0C0F02D150EA01365D
:1008500013D195EA0C0F05D152EA03361CBF10469E
:1008600019460AD181EA030101F0004141F0FE413D
:1008700041F470014FF0000070BD41F0FE4141F4C1
:10088000780170BD70B54FF0FF0C4CF4E06C1CEAC1
:1008900011541DBF1CEA135594EA0C0F95EA0C0F76
:1008A00000F0A7F8A4EB050481EA030E52EA033531
:1008B0004FEA013100F088804FEA03334FF0805552
:1008C00045EA131343EA12634FEA022245EA11157F
:1008D00045EA10654FEA00260EF000419D4208BF30
:1008E000964244F1FD0404F5407402D25B084FEADD
:1008F0003202B61A65EB03055B084FEA32024FF489
:1009000080104FF4002CB6EB020E75EB030E22BFE5
:10091000B61A754640EA0C005B084FEA3202B6EBA5
:10092000020E75EB030E22BFB61A754640EA5C0054
:100930005B084FEA3202B6EB020E75EB030E22BFE4
:10094000B61A754640EA9C005B084FEA3202B6EBE5
:10095000020E75EB030E22BFB61A754640EADC00A4
:1009600055EA060E18D04FEA051545EA16754FEA06
:1009700006164FEAC30343EA52734FEAC2025FEA24
:100980001C1CC0D111F4801F0BD141EA00014FF0B3
:1009900000004FF0004CB6E711F4801F04BF014384
:1009A0000020B4F1FD0C88BFBCF5E06F3FF6AFAEA0
:1009B000B5EB030C04BFB6EB020C5FEA500C50F130
:1009C000000041EB045170BD0EF0004E4EEA1131B3
:1009D00014EB5C04C2BFD4EB0C0541EA045170BDBA
:1009E00041F480114FF0000E013C90E645EA060EFE
:1009F0008DE60CEA135594EA0C0F08BF95EA0C0F2C
:100A00003FF43BAF94EA0C0F0AD150EA01347FF473
:100A100034AF95EA0C0F7FF425AF104619462CE74A
:100A200095EA0C0F06D152EA03353FF4FDAE1046AD
:100A3000194622E750EA410618BF52EA43067FF4FE
:100A4000C5AE50EA41047FF40DAF52EA43057FF48E
:100A5000EBAE12E74FF0FF3C06E000BF4FF0010C99
:100A600002E000BF4FF0010C4DF804CD4FEA410CFD
:100A70007FEA6C5C4FEA430C18BF7FEA6C5C1BD0CA
:100A800001B050EA410C0CBF52EA430C91EA030F4B
:100A900002BF90EA020F0020704710F1000F91EAA8
:100AA000030F58BF994208BF90422CBFD8176FEA76
:100AB000E37040F0010070474FEA410C7FEA6C5C44
:100AC00002D150EA013C07D14FEA430C7FEA6C5C4B
:100AD000D6D152EA033CD3D05DF8040B704700BF77
:100AE0008446104662468C461946634600E000BFC5
:100AF00001B5FFF7B7FF002848BF10F1000F01BD97
:100B00004DF808EDFFF7F4FF0CBF012000205DF861
:100B100008FB00BF4DF808EDFFF7EAFF34BF0120E6
:100B200000205DF808FB00BF4DF808EDFFF7E0FF7F
:100B300094BF012000205DF808FB00BF4DF808EDD0
:100B4000FFF7CEFF94BF012000205DF808FB00BF37
:100B50004DF808EDFFF7C4FF34BF012000205DF819
:100B600008FB00BF4FEA410C7FEA6C5C02D150EAFF
:100B7000013C0AD14FEA430C7FEA6C5C02D152EA95
:100B8000033C02D14FF0000070474FF00100704766
:100B90004FEA410212F5001215D211D56FF47873A5
:100BA000B3EB625212D94FEAC12343F0004343EA48
:100BB000505311F0004F23FA02F018BF4042704723
:100BC0004FF00000704750EA013005D111F00040AD
:100BD00008BF6FF0004070474FF00000704700BF43
:100BE00053B94AB9002908BF00281CBF4FF0FF3194
:100BF0004FF0FF3000F07AB9ADF1080C6DE904CE8A
:100C000000F006F8DDF804E0DDE9022304B07047E7
:100C10002DE9F0478C460D460446089E002B51D125
:100C20008A4217466DD9B2FA82FEBEF1000F0BD090
:100C3000CEF1200C01FA0EF520FA0CFC02FA0EF7A8
:100C40004CEA050C00FA0EF44FEA174A250CBCFBDF
:100C5000FAF81FFA87F90AFB18CC45EA0C4508FB9D
:100C600009F3AB420AD9ED1908F1FF3280F0238174
:100C7000AB4240F22081A8F102083D44ED1AA4B233
:100C8000B5FBFAF00AFB105544EA054400FB09F9EC
:100C9000A14509D9E41900F1FF3380F00A81A1458B
:100CA00040F2078102383C44A4EB090440EA0840C2
:100CB0000021002E61D024FA0EF40023346073600A
:100CC000BDE8F0878B4207D9002E54D0002186E87A
:100CD00021000846BDE8F087B3FA83F1002940F00F
:100CE0008E80AB4202D3824200F2FA80841A65EB16
:100CF00003050120AC46002E3FD086E81010BDE869
:100D0000F08712B90127B7FBF2F7B7FA87FEBEF1F9
:100D1000000F34D1EB1B3A0C1FFA87FC0121B3FB07
:100D2000F2F8250C02FB183345EA03450CFB08F3E7
:100D3000AB4207D9ED1908F1FF3002D2AB4200F205
:100D4000D1808046ED1AA3B2B5FBF2F002FB10553C
:100D500043EA05440CFB00FCA44507D9E41900F163
:100D6000FF3302D2A44500F2B8801846A4EB0C046D
:100D700040EA08409DE731463046BDE8F087CEF1B5
:100D8000200405FA0EF307FA0EF720FA04F83A0CDD
:100D900025FA04F448EA0308B4FBF2F14FEA1845D7
:100DA00002FB11441FFA87FC45EA044501FB0CF3E2
:100DB000AB4200FA0EF409D9ED1901F1FF3080F0D1
:100DC0008A80AB4240F2878002393D44EB1A1FFA19
:100DD00088F5B3FBF2F002FB103345EA034500FB54
:100DE0000CF3AB4207D9ED1900F1FF386FD2AB42DB
:100DF0006DD902383D44EB1A40EA01418FE7C1F159
:100E0000200722FA07F88B4005FA01F448EA0303A9
:100E100020FA07FE4FEA134CFD404EEA040EB5FBE4
:100E2000FCF94FEA1E440CFB19551FFA83F844EAFB
:100E3000054509FB08F4AC4202FA01F200FA01FA96
:100E400008D9ED1809F1FF3043D2AC4241D9A9F1DC
:100E500002091D442D1B1FFA8EFEB5FBFCF00CFB96
:100E600010554EEA054400FB08F8A04507D9E418E0
:100E700000F1FF3529D2A04527D902381C4440EAA9
:100E80000940A4EB0804A0FB02894C45C6464D4628
:100E900015D312D056B1BAEB0E0364EB050404FA75
:100EA00007F7CB401F43CC40376074600021BDE89A
:100EB000F0871846F8E69046E0E6C245EAD2B8EB7D
:100EC000020E69EB03050138E4E72846D7E7404600
:100ED00091E78146BEE7014678E702383C4445E7A2
:100EE000084608E7A8F102083D442BE7704700BF19
:100EF00010B504460E4B18784FF47A73B3FBF0F339
:100F00000C4A1068B0FBF3F000F020FA68B90F2C1F
:100F100001D9012010BD002221464FF0FF3000F022
:100F2000D7F9054B1C60002010BD012010BD00BF8B
:100F300000000020080000200400002008B50B4B32
:100F40001A6842F400721A601A6842F480621A60E9
:100F50001A6842F480721A60032000F0A7F900209A
:100F6000FFF7C6FF03F0F2F9002008BD003C024085
:100F7000034A1168034B1B780B441360704700BF92
:100F8000D806002000000020014B1868704700BF01
:100F9000D8060020494B5A6822F440325A605A68F9
:100FA00041680A435A600268536823F480735360AF
:100FB00002685368016943EA012353600268536879
:100FC00023F0407353600268536881680B43536099
:100FD0000268936823F40063936002689368C168B1
:100FE0000B439360826A364B9A4249D002689368F9
:100FF00023F07063936002689368816A0B43936087
:101000000268936823F04053936002689368C16A52
:101010000B4393600268936823F0020393600268B5
:101020009368816943EA41039360036A002B32D1DC
:101030000268536823F4006353600268D36A23F4A0
:101040007003D3620168CB6AC269013A43EA025372
:10105000CB620268936823F400739360026893681C
:10106000016B43EA412393600268936823F4806331
:10107000936002689368416943EA812393607047F3
:101080000268936823F0706393600268936823F0AA
:1010900040539360BEE70268536843F400635360B3
:1010A0000268536823F46043536001684B68426AE6
:1010B000013A43EA42334B60BFE700BF00230140DF
:1010C0000100000F30B310B50446036C43B1236C2C
:1010D00013F0100F0AD00120002384F83C3010BD1B
:1010E000436480F83C3003F051F9F0E7236C23F4BB
:1010F000885323F0020343F0020323642046FFF7E2
:1011000049FF00206064236C23F0030343F00103D4
:101110002364E1E70120704730B482B000230193DB
:1011200090F83C30012B00F0B580012380F83C3072
:101130000B68092B3ED90568EA689BB203EB4303B1
:101140001E3B072404FA03F322EA0303EB6005685D
:10115000EA688C680B8803EB43031E3B04FA03F335
:101160001343EB604B68062B3AD805686A6B03EBB8
:101170008303053B1F2404FA03F322EA03036B6392
:1011800005686A6B4B6803EB8303053B0C8804FA24
:1011900003F313436B6302683F4B9A4250D00268DB
:1011A0003D4B9A4255D0002380F83C30184602B09F
:1011B00030BC704705682A699BB203EB43030724E0
:1011C00004FA03F322EA03032B6105682A698C6899
:1011D0000B8803EB430304FA03F313432B61C1E7CA
:1011E0000C2B16D805682A6B03EB8303233B1F24C3
:1011F00004FA03F322EA03032B6305682A6B4B68A6
:1012000003EB8303233B0C8804FA03F313432B63A0
:10121000C1E70568EA6A03EB8303413B1F2404FA34
:1012200003F322EA0303EB620568EA6A4B6803EB07
:101230008303413B0C8804FA03F31343EB62AAE7F0
:101240000B68122BABD1154A536843F480035360EB
:10125000A5E70B68124A934201D0112BA3D10F4A84
:10126000536843F4000353600A680D4B9A429AD1C5
:101270000C4B1B680C4AA2FB03239B0C03EB830360
:101280005A00019202E0019B013B0193019B002B5C
:10129000F9D188E702208AE70020014000230140BD
:1012A000120000100800002083DE1B43074AD368A9
:1012B00023F4E0631B041B0C000200F4E0601843FD
:1012C00040F0BF6040F40030D060704700ED00E0B7
:1012D00030B4164BDB68C3F30223C3F10704042CBC
:1012E00028BF04241D1D062D17D9033B012505FA2F
:1012F00004F4013C2140994005FA03F3013B1340FB
:10130000194300280BDB0901C9B200F1604000F568
:10131000614080F8001330BC70470023E6E700F01E
:101320000F000901C9B2024B1954F4E700ED00E0C7
:1013300014ED00E0420900F01F00012303FA00F061
:10134000014B43F82200704700E100E00138B0F1A2
:10135000807F0AD2064B5860F021064A82F823109B
:101360000020986007221A6070470120704700BF74
:1013700010E000E000ED00E00268D3B2103B0B4942
:10138000A1FB03131B090A49C95CC165032B06D8DD
:1013900022F47F7222F003028265806D704722F48E
:1013A0007F7222F0030204328265F6E7ABAAAAAA92
:1013B000A07C0008836A826992B9012B0AD01BB114
:1013C000022B01D000207047C36A13F0807F2CD11C
:1013D00000207047C36AB3F1C07F28D00020704757
:1013E000B2F5005F05D0022B29D9032B15D00020C0
:1013F0007047032B03D8DFE803F01C041C0A00200D
:101400007047C36A13F0807F15D100207047C36A0C
:10141000B3F1C07F11D000207047C36A13F0807F02
:1014200001D0012070470020704701207047012043
:10143000704701207047012070470120704701204C
:101440007047000070B50446FFF79EFD002C5DD08C
:101450000546002384F83430022384F835302268AE
:10146000136823F00103136023681A6812F0010F58
:101470000AD0FFF789FD401B0528F5D920236365B5
:10148000032084F8350070BD1A6821491140626854
:10149000A0680243E0680243206902436069024396
:1014A000A0690243E0690243206A02430A43616A79
:1014B000042916D01A602668756925F00705636A45
:1014C0001D43042B12D075612046FFF755FFE26DD6
:1014D0003F239340836000206065012384F835300A
:1014E00070BDE16A206B01430A43E3E7A36A1D4331
:1014F000E36A002BE7D02046FFF75CFF0028E2D02C
:1015000040236365012084F8350070BD012070BD63
:101510003F8010F090F83530DBB2022B03D08023EF
:10152000436501207047052380F835300268136851
:1015300023F001031360002070470000F0B583B072
:10154000044600230193724B1D68724BA3FB0535C3
:10155000AD0A876D3E68C26D082393401E4210D0CD
:1015600003681A6812F0040F0BD01A6822F0040204
:101570001A60C26D08239340BB60436D43F00103C2
:101580004365E26D012393401E4209D022685269EF
:1015900012F0800F04D0BB60636D43F002036365FB
:1015A000E26D042393401E4209D02268126812F0B3
:1015B000020F04D0BB60636D43F004036365E26D0A
:1015C000102393401E4224D02268126812F0080FA4
:1015D0001FD0BB6023681A6812F4802F0DD01B68DF
:1015E00013F4002F04D1236C9BB12046984710E0E0
:1015F000A36C73B1204698470BE01A6812F4807F01
:1016000003D11A6822F008021A60236C0BB120463D
:101610009847E26D202393401E4255D022681268FD
:1016200012F0100F50D0BB6094F83530DBB2052BB0
:101630000ED023681A6812F4802F33D01B6813F47D
:10164000002F2AD1636C002B3ED0204698473BE008
:101650002268136823F0160313602268536923F08D
:1016600080035361236CA3B12268136823F008033D
:101670001360E26D3F239340BB60002384F8343055
:10168000012384F83530236D002B3FD02046984746
:101690003CE0A36C002BE7D1EBE7E36BA3B1204662
:1016A000984711E01A6812F4807F09D11A6822F075
:1016B00010021A60002384F83430012384F8353096
:1016C000E36B0BB120469847636DFBB1636D13F07C
:1016D000010F17D0052384F835302268136823F0F2
:1016E00001031360019B013301939D4204D32368DE
:1016F0001B6813F0010FF5D1002384F83430012367
:1017000084F83530E36C0BB12046984703B0F0BD48
:1017100008000020B5814E1BF0B583B0002498E08E
:101720004FEAD40E0EF1080E50F82E2004F00706F2
:10173000B6000F27B74022EA07020F6907FA06F63C
:10174000324340F82E2094E086681640CF6807FAAE
:101750000EF73E438660466826EA03034E68C6F3EA
:101760000016A64033434360C3681A408B6803FAEF
:101770000EF31A43C2604B6813F0805F68D00023F9
:101780000193514B5A6C42F480425A645B6C03F4EF
:1017900080430193019BA3089E1C4C4A52F82620CB
:1017A00004F003064FEA860E0F2606FA0EF622EA2A
:1017B0000602474FB84279D0464EB04278D006F57F
:1017C0008066B04276D006F58066B04274D006F5E9
:1017D0008066B04272D006F58066B04270D006F5E1
:1017E0008066B04260D0072606FA0EF63243023316
:1017F000364E46F82320384B1A68EB4302EA0306BC
:101800004F6817F4803F01D045EA0206324A16605D
:10181000526803EA02064F6817F4003F01D045EA18
:1018200002062D4A5660926803EA02064F6817F4D2
:10183000801F01D045EA0206274A9660D26813400D
:101840004E6816F4001F01D045EA0203224AD36015
:1018500001340F2C36D80123A3400A6803EA02059D
:10186000AB42F5D14A68022A3FF45AAF122A3FF43C
:1018700057AF06684FEA440E032202FA0EF2D24333
:1018800016404F6807F0030707FA0EF73E4306605D
:101890004E68771E012F7FF657AF112E3FF454AFDD
:1018A000122E7FF461AF4FE706269DE700269BE7E7
:1018B000012699E7022697E7032695E7042693E792
:1018C000052691E703B0F0BD003802400038014022
:1018D0000000024000040240003C014012B909042B
:1018E0008161704781617047436959404161704728
:1018F00090F83E30DBB2402B13D00369B3F5804F34
:101900001ED0036D002B2DD0036D012B33D1026847
:10191000436CC3F3C81303F0060343F0F1031361F0
:1019200029E0036D2BB90268436C03F0FE031361D9
:1019300021E00268436C43F00103DBB213611AE05B
:1019400090F83D30DBB2212B06D00268436C43F0A7
:101950000103DBB213610EE00268436C03F0FE0387
:10196000136108E00268436CC3F3C81303F0060375
:1019700043F0F0031361002070470268436CDBB250
:1019800013610020704710B48BB090F83E30DAB28B
:10199000C16A046B90F83D30DBB2222B0CD00023DF
:1019A000099303685A6909929B690993099B00206E
:1019B0000BB05DF8044B7047036D0BB9402A17D08C
:1019C000036D1BB90369B3F5404F19D0438D9BB22A
:1019D000002B25D1029303685A6902929A690292F8
:1019E000029A1A6842F400721A6000230365DEE767
:1019F000009303685A6900929B690093009BD6E7A5
:101A00000023019303685A6901929A690192019A2D
:101A10001A6842F480721A60036D01330365C6E7E9
:101A2000438D9BB2012B1AD0438D9BB2022B6BD0FE
:101A30000268136843F48063136003685A6812F401
:101A4000006F03D05A6842F480525A600023089312
:101A500003685A6908929B690893089BC5E711F5CA
:101A6000803F16D004293DD008293BD0122C39D014
:101A7000C36A022B30D00268136823F480631360BA
:101A80000023059303685A6905929B690593059B9A
:101A9000ABE70268136823F48063136003685A6835
:101AA00012F4006F0CD01A6822F480621A600023CE
:101AB000039303685A6903929B690393039B94E71A
:101AC000002204925A6904929A690492049A1A684C
:101AD00042F400721A6088E70268136843F4806376
:101AE0001360CDE70268136823F48063136000235A
:101AF000069303685A6906929A690692069A1A68CA
:101B000042F400721A6070E7C36A022B1BD00268AD
:101B1000136823F4806313600268136843F400635E
:101B2000136003685A6812F4006F03D05A6842F4D5
:101B300080525A600023079303685A6907929B6991
:101B40000793079B51E70268136843F480631360AF
:101B5000E7E7438D9BB253B10268436A591C416267
:101B60001B781361438D9BB2013B9BB243850020E0
:101B70007047438D9BB253B1436A5A1C426202685C
:101B800012691A70438D9BB2013B9BB243850020C2
:101B900070470000002800F0828038B5044690F8B5
:101BA0003D30002B41D0242384F83D302268136857
:101BB00023F00103136000F05DFE3A4BA3FB00230A
:101BC0009B0C2268536021686568374A954231D87A
:101BD00001330B6221686368334A934234D85B0057
:101BE000B0FBF3F0C0F30B03032B00D80420C86153
:101BF0002268E369216A0B43136022682369E16864
:101C00000B43936022686369A1690B43D360226828
:101C1000136843F00103136000202064202384F83C
:101C20003D30206384F83E0038BD80F83C3002F03F
:101C300017FCB8E74FF4967202FB03F31B4AA2FBB2
:101C400003239B090133C4E7A5688DB903EB430265
:101C5000B0FBF2F2C2F30B02B2FA82F25209E2B91D
:101C600095B903EB4303B0FBF3F040F40040BEE74B
:101C700003EB830202EB8202B0FBF2F2C2F30B022F
:101C8000B2FA82F25209EAE703EB830303EB830320
:101C9000B0FBF3F040F44040A9E70120A7E70120A2
:101CA000704700BF83DE1B43A0860100D34D621046
:101CB00090F83D30DAB2438D9BB2FBB110B50168AC
:101CC000436A5C1C44621B780B61438D9BB2013BF1
:101CD0009BB24385438D9BB20BB9292A01D00020CA
:101CE00010BD0268536823F48063536021230363AB
:101CF000282380F83D3002F021FFF0E700207047F4
:101D000008B590F83D30DAB2438D9BB27BB1436A9F
:101D1000591C4162016809691970438D9BB2013BEE
:101D20009BB24385438D9BB20BB92A2A01D0002078
:101D300008BD0268536823F4806353602223036361
:101D4000282380F83D3002F037FFF0E7704708B5F0
:101D500003689A6912F0040F09D000219B6913F0FF
:101D6000800F06D0028BFFF7F1FF002008BD012194
:101D7000F4E78289F7E7704708B590F83D30DBB2A9
:101D8000C26A042A09D0082A07D0212B21D003686F
:101D90006FF480625A61002008BD282BF5D11A4BE0
:101DA000C3620268536823F4E063536003686FF40E
:101DB00080625A610268136823F480631360002311
:101DC0000363202280F83D2080F83E30FFF7D3FFE8
:101DD000E1E70D4BC36221230363202380F83D30EC
:101DE000002380F83E300268536823F4E0635360B8
:101DF00003686FF480625A610268136823F4806399
:101E0000136002F09BFEC6E70000FFFF704710B5AD
:101E100090F83D30DBB290F83E20D2B2C46A018D1A
:101E200009B9212B05D0212B3CD0402A38D00020E5
:101E300010BD042C04D0082C02D014F5803F19D119
:101E40000268536823F4E06353600268136843F444
:101E50000073136000230363202380F83D3090F863
:101E60003E30DBB2402B15D0002380F83E3002F02C
:101E700047FEDCE70268536823F4E06353601123F4
:101E80000363002380F83E30202380F83D3002F0C9
:101E900037FECCE7002380F83E30FFF7B7FFC6E7F8
:101EA000222BC4D1438D9BB283B190F83E30DBB27C
:101EB000402B11D00268436A591C41621B781361A0
:101EC000438D9BB2013B9BB24385B0E702685368E8
:101ED00023F480635360AAE7036D9BB9C36C012BA5
:101EE00008D00268836CC3F307231361036D0133C9
:101EF00003659CE70268836CDBB21361036D0233F8
:101F0000036594E7036D012B18D0036D022B8ED16E
:101F100090F83D30DBB2222B18D090F83D30DBB288
:101F2000212B84D10268436A591C41621B781361DA
:101F3000438D9BB2013B9BB2438578E70268836C7B
:101F4000DBB21361036D0133036570E70268136848
:101F500043F4807313606AE708B5C26A90F83D30B5
:101F6000DBB2212B01D0002008BD438D9BB203BB07
:101F7000042A04D0082A02D012F5803F25D1026835
:101F8000536823F4E06353600268136843F40073FA
:101F9000136000230363202380F83D3090F83E3027
:101FA000DBB2402B21D0002380F83E3002F0A8FDA8
:101FB000D9E70268436A591C41621B781361438D5B
:101FC0009BB2013B9BB24385CDE70268536823F483
:101FD000E063536011230363002380F83E30202325
:101FE00080F83D3002F08CFDBDE7002380F83E30E4
:101FF000FFF70CFFB7E7704708B590F83D30DBB24C
:10200000222B01D0002008BD438D9BB2032B14D995
:10201000436A5A1C4262026812691A70438D9BB26D
:10202000013B9BB24385438D9BB2032BEAD10268EF
:10203000536823F480635360E4E7012BE2D802681D
:10204000136823F4806313600268536823F4E06329
:102050005360436A5A1C4262026812691A70438DC7
:102060009BB2013B9BB24385202380F83D30002387
:10207000036390F83E30DBB2402B05D0002380F89C
:102080003E3002F07BFDBDE7002380F83E30FFF7D5
:10209000B2FFB7E708B5C26A438D9BB2042B14D0D8
:1020A000438D9BB2032B21D0438D9BB2022B33D0A7
:1020B000436A5A1C4262026812691A70438D9BB2CD
:1020C000013B9BB24385002008BD0268536823F49E
:1020D00080635360436A5A1C4262026812691A7034
:1020E000438D9BB2013B9BB24385ECE7026853688A
:1020F00023F4806353600268136823F480631360E1
:10210000436A5A1C4262026812691A70438D9BB27C
:10211000013B9BB24385D6E7013A012A2FD90268D9
:10212000136843F400731360436A5A1C42620268E6
:1021300012691A70438D9BB2013B9BB24385436A7F
:102140005A1C4262026812691A70438D9BB2013BAD
:102150009BB243850268536823F440735360202385
:1021600080F83D300023036390F83E30DBB2402B13
:1021700010D0002380F83E3002F000FDA3E7026893
:10218000136823F4806313600268136843F4807358
:102190001360C9E7002380F83E30FFF72CFF92E779
:1021A0007047704710B5044690F83D30293B012B2D
:1021B00037D990F83D30DBB2602B07D003685B68FD
:1021C00013F4006F02D1202380F83D3000232363F5
:1021D00084F83E302268136823F400631360236898
:1021E0005A6812F4006F3FD05A6822F400625A60B5
:1021F000626B92F83530DBB2012B18D03A4B136585
:10220000606BFFF787F900283FD02268136823F03E
:1022100001031360202384F83D30606B036D984701
:1022200033E000230363282380F83D30D2E7A36B1B
:102230002D4A1A65A06BFFF76DF930B323685A6910
:1022400012F0400F04D0626A511C61621B69137066
:102250002268136823F001031360202384F83D30C3
:10226000A06B036D984710E094F83D20D2B2602A2D
:1022700011D05A6912F0400F04D0626A511C616299
:102280001B6913702046FFF78BFF94F83D30DBB2DB
:10229000282B17D010BD202284F83D200022226474
:1022A0005A6912F0400F04D0626A511C61621B69C6
:1022B00013702268136823F0010313602046FFF7B0
:1022C00070FFE2E7236C13F0040FE3D0074BE362E7
:1022D00000232363202284F83D2084F83E302046EA
:1022E000FFF749FDD6E700BF312600080000FFFFD9
:1022F00010B582B090F83D30DBB201684A6822F434
:10230000E0624A60002201920268516901911168FD
:1023100041F001011160019A01680A6822F48062AB
:102320000A6001684A6812F4006F0ED090F83D20F0
:10233000D2B2222A44D090F83D20D2B22A2A3FD0ED
:10234000426B1268526892B24285428D92B202B3D9
:102350004A6912F0040F09D0426A541C44620969A8
:102360001170428D92B2013A92B24285026851696F
:1023700011F0400F09D0416A4C1C446212690A7086
:10238000428D92B2013A92B24285026C42F004024E
:102390000264026CD2B9282B1BD02A2B19D0292B0E
:1023A00017D0026B222A01D0222B1DD100230363F8
:1023B000202280F83D2080F83E3002F0FDFB13E043
:1023C000826B1268526892B24285BEE7FFF7EAFE5E
:1023D0000AE0074BC36200230363202280F83D20FC
:1023E00080F83E30FFF7C7FC002002B010BD00BFF0
:1023F0000000FFFFF8B5054603689F695C695E68E9
:1024000090F83E30DBB2102B25D0402B23D04C4B24
:10241000234013B116F4007F6ED14A4B234013B111
:1024200016F4007F6BD1484B3B40002B6FD0474BDD
:10243000234033B116F4806F03D0454B2340002B6B
:1024400061D0434B234053B316F4007F27D0284676
:10245000FFF77FFBF8BD14F0011F02D016F4007FD8
:102460001ED13C4B234013B116F4007F1CD1344BDA
:10247000234013B116F4007F1AD1334B3B401BB3FA
:10248000324B23402BB116F4806F02D0304B2340E7
:1024900093B12F4B234013B116F4007F10D1F8BD38
:1024A0002846FFF725FAE8E72846FFF766FAE4E74B
:1024B0002846FFF768FAE0E72846FFF7A8FCF8BDD2
:1024C0002846FFF749FDF8BD234B23402BB116F4F6
:1024D000806F02D01E4B234053B11D4B2340002B75
:1024E000DDD016F4007FDAD02846FFF7D3FDF8BD23
:1024F0002846FFF781FDF8BDFFF729FCF8BD284607
:10250000FFF7F6FEF8BD2846FFF7D2FBF8BD124BE9
:1025100023402BB116F4806F02D00D4B234053B1F2
:102520000B4B2340002BBAD016F4007FB7D02846BF
:10253000FFF71FFBB3E72846FFF7E2FBF8BD00BF3C
:1025400002000100100001000400100080000100E2
:1025500004000100080001004000010070B50446BD
:1025600003685D695E68314A154209D016F4807FC0
:1025700006D0026C42F0010202646FF480725A616C
:1025800015F4813F0AD016F4807F07D0236C43F006
:102590000203236423686FF400725A6115F4823FCA
:1025A0001AD016F4807F17D094F83E30DBB2628DDB
:1025B00091B294F83D20D2B2206B202B1DD0236C19
:1025C00043F00403236494F83E30DBB2102B22D096
:1025D00023686FF480625A6115F4843F0AD016F4C0
:1025E000807F07D0236C43F00803236423686FF4D3
:1025F00000625A61236CA3B970BD0029DFD1212A82
:1026000005D0292A03D0282AD9D12128D7D120467C
:10261000FFF7B2FBE0E72268136843F4007313602E
:10262000D6E72046FFF7BEFDE6E700BF0001010048
:1026300008B5806B0268136823F48063136000237D
:102640004385426B1365826B136590F83D30DBB2B6
:10265000602B0DD0202380F83D30002380F83E30E1
:102660000268136823F001031360FFF799FD08BDAA
:10267000202380F83D30002380F83E300364026858
:10268000136823F001031360FFF78BFD08BD000002
:1026900010B582B000230193194B1A6C42F080529E
:1026A0001A641B6C03F080530193019B0122154BAC
:1026B0001A60FEF769FC0446134B5B6813F4803F15
:1026C00008D1FEF761FC001BB0F57A7FF4D9032036
:1026D00002B010BD01220D4B1A60FEF755FC0446F6
:1026E000094B5B6813F4003F07D1FEF74DFC001B5C
:1026F000B0F57A7FF4D90320EAE70020E8E700BFCD
:102700000038024040000E420070004044000E427B
:10271000002800F09D8070B504464F4B1B6803F005
:102720000F038B4209D2CBB24B4A1370136803F0EC
:102730000F03994201D0012070BD236813F0020FEE
:1027400017D013F0040F04D0444A936843F4E053C5
:102750009360236813F0080F04D0404A936843F451
:10276000604393603D4A936823F0F003A0680343FD
:1027700093600D46236813F0010F32D06368012B7C
:1027800021D09A1E012A25D9344A126812F0020F6C
:1027900060D032498A6822F0030213438B60FEF74F
:1027A000F3FB06462D4B9B6803F00C036268B3EB0A
:1027B000820F16D0FEF7E8FB801B41F28833984267
:1027C000F0D9032070BD254A126812F4003FE0D111
:1027D000012070BD214A126812F0007FD9D101207A
:1027E00070BD1D4B1B6803F00F039D4209D2EAB276
:1027F000194B1A701B6803F00F039D4201D0012092
:1028000070BD236813F0040F06D0144A936823F4B4
:10281000E053E1680B439360236813F0080F07D07F
:102820000E4A936823F46043216943EAC10393602D
:1028300000F040F8094B9B68C3F30313084AD35CCC
:10284000D840084B18600020FEF752FB002070BDF6
:1028500001207047012070BD003C0240003802405A
:10286000A87C000808000020014B1868704700BFD2
:102870000800002008B5FFF7F7FF044B9B68C3F37F
:102880008223034AD35CD84008BD00BF0038024011
:10289000B87C000808B5FFF7E7FF044B9B68C3F35B
:1028A0004233034AD35CD84008BD00BF0038024021
:1028B000B87C0008F8B55C4B9B6803F00C03082B50
:1028C00006D00C2B5AD0042B00F0AC805748F8BD32
:1028D000554B5A6802F03F025B6813F4800F2AD010
:1028E000514B5B68C3F388131E4600275C0100252B
:1028F000E41A65EB0705A90141EA9461A001001BF8
:1029000061EB0501CB0043EA5073C400A01943EB0F
:1029100007014B0243EAD0534402204619460023E4
:10292000FEF75EF9404B5B68C3F3014301335B0084
:10293000B0FBF3F0F8BD3C4B5B68C3F388131E4655
:1029400000275C010025E41A65EB0705A90141EAAF
:102950009461A001001B61EB0501CB0043EA5073B9
:10296000C400A01943EB07018B0243EA9053840291
:10297000204619460023FEF733F9D3E72A4B5A685D
:1029800002F03F025B6813F4800F28D0264B5B688F
:10299000C3F388131E4600275C010025E41A65EB8B
:1029A0000705A90141EA9461A001001B61EB050143
:1029B000CB0043EA5073C400A01943EB07014B025C
:1029C00043EAD0534402204619460023FEF708F993
:1029D000154B5B68C3F30273B0FBF3F0F8BD124B09
:1029E0005B68C3F388131E4600275C010025E41AC8
:1029F00065EB0705A90141EA9461A001001B61EBA9
:102A00000501CB0043EA5073C400A01943EB070152
:102A10008B0243EA90538402204619460023FEF7B6
:102A2000DFF8D5E70248F8BD003802400024F40082
:102A300000127A0070B582B00446036813F0010FEB
:102A400041D0A64B9B6803F00C03042B32D0A34B60
:102A50009B6803F00C03082B27D0A04B9B6803F066
:102A60000C030C2B59D06368B3F5803F5BD0B3F5F2
:102A7000A02F5ED0994B1A6822F480321A601A682F
:102A800022F480221A606368002B5CD0FEF77CFA87
:102A90000546924B1B6813F4003F14D1FEF774FAFD
:102AA000401B6428F5D903209DE18C4B5B6813F42F
:102AB000800FD2D0894B1B6813F4003F03D06368AA
:102AC000002B00F08D81236813F0020F67D0834B39
:102AD0009B6813F00C0F4AD0804B9B6803F00C03EB
:102AE000082B3FD07D4B9B6803F00C030C2B48D088
:102AF000E368002B74D00122794B1A60FEF744FA88
:102B00000546764B1B6813F0020F60D1FEF73CFAC6
:102B1000401B0228F5D9032065E1704B5B6813F474
:102B2000800FA0D0C6E76D4A136843F4803313606A
:102B3000A9E76A4B1A6842F480221A601A6842F4C4
:102B400080321A609FE7FEF71FFA0546634B1B6849
:102B500013F4003FB7D0FEF717FA401B6428F5D9ED
:102B6000032040E15D4B5B6813F4800FBAD15B4BEF
:102B70001B6813F0020F0AD0E368012B07D0012075
:102B800031E1564B5B6813F4800FB1D1EFE7534A44
:102B9000136823F0F803216943EAC1031360236833
:102BA00013F0080F40D0636963B301224D4B1A60E4
:102BB000FEF7EAF90546494B5B6F13F0020F33D17C
:102BC000FEF7E2F9401B0228F5D903200BE1434A46
:102BD000136823F0F803216943EAC1031360DEE7B9
:102BE00000223F4B1A60FEF7CFF905463B4B1B68AE
:102BF00013F0020FD3D0FEF7C7F9401B0228F5D916
:102C00000320F0E00022374B1A60FEF7BDF90546BD
:102C1000324B5B6F13F0020F06D0FEF7B5F9401B85
:102C20000228F5D90320DEE0236813F0040F79D0E1
:102C30002A4B1B6C13F0805F33D100230193274B89
:102C40001A6C42F080521A641B6C03F0805301939B
:102C5000019B0125244B1B6813F4807F23D0A368BC
:102C6000012B34D0052B41D01C4B1A6F22F00102EE
:102C70001A671A6F22F004021A67A368002B3FD06C
:102C8000FEF782F90646154B1B6F13F0020F48D171
:102C9000FEF77AF9801B41F288339842F3D903207A
:102CA000A1E00025D6E7104A136843F4807313604F
:102CB000FEF76AF906460C4B1B6813F4807FCED1F1
:102CC000FEF762F9801B0228F5D903208BE0034A46
:102CD000136F43F001031367CFE700BF00380240D2
:102CE00000004742800E474200700040404B1A6F80
:102CF00042F004021A671A6F42F001021A67BCE739
:102D0000FEF742F906463A4B1B6F13F0020F08D04C
:102D1000FEF73AF9801B41F288339842F3D9032039
:102D200061E0E5B9A369002B5CD0314A926802F0FA
:102D30000C02082A59D0022B17D000222D4B1A6002
:102D4000FEF722F904462A4B1B6813F0007F45D09A
:102D5000FEF71AF9001B0228F5D9032043E0244AA4
:102D6000136C23F080531364DCE70022214B1A60BC
:102D7000FEF70AF905461E4B1B6813F0007F06D0CC
:102D8000FEF702F9401B0228F5D903202BE0E36986
:102D9000226A1343626A43EA8213A26A5208013A22
:102DA00043EA0243E26A43EA0263226B43EA0273A4
:102DB0000F4A536001220F4B1A60FEF7E5F80446F4
:102DC0000B4B1B6813F0007F06D1FEF7DDF8001BEC
:102DD0000228F5D9032006E0002004E0002002E0EC
:102DE000012000E0002002B070BD0120FBE700BF21
:102DF0000038024060004742F8B505460F461646C7
:102E00001C463BE02CB1FEF7BFF8069BC01A84427B
:102E100034D82A68536823F0E00353606B68B3F535
:102E2000827F0BD0AB6AB3F5005F14D0012385F825
:102E30005130002385F850300320F8BDAB68B3F55E
:102E4000004F02D0B3F5806FECD12A68136823F0ED
:102E500040031360E6E72A68136823F400531B0459
:102E60001B0C13602A68136843F400531360DDE7FA
:102E70000123B34209D0B4F1FF3FC3D12B689B6853
:102E800037EA0303F4D00023F3E70020F8BD10B5C0
:102E900082B0044600920B4600228021FFF7ACFF6F
:102EA000034620B1636D43F0200363650323184696
:102EB00002B010BD00283BD010B504460023836249
:102EC00090F85130002B2ED0022384F85130226824
:102ED000136823F04003136022686368A1680B4302
:102EE000E1680B4321690B4361690B43A16901F45C
:102EF00000710B43E1690B43216A0B43A16A0B4349
:102F000013602268638B03F00403616A0B43536010
:102F10002268D36923F40063D36100206065012334
:102F200084F8513010BD80F8503001F06DFBCBE7D4
:102F3000012070472DE9F04385B098460C9D90F82C
:102F40005030012B04D10223184605B0BDE8F083B0
:102F500004460F461646012380F85030FEF714F859
:102F6000814694F85130DBB26268012B12D0B2F581
:102F7000827F07D00223012284F85120002284F8A6
:102F80005020E1E7A268002A40F0E980042B01D03C
:102F90000223F0E7002F00F0E480002E00F0E38031
:102FA000B8F1000F00F0E18094F85130DBB2012B52
:102FB0002CD000236365A663A4F83E80A4F83C806F
:102FC0002763A4F83680A4F83480236463642368FC
:102FD0001A6812F0400F03D11A6842F040021A60DA
:102FE000E368B3F5006F15D063681BB1E38E9BB245
:102FF000012B08D1236817F8012B1A73E38E9BB2BB
:10300000013B9BB2E3864FF0010869E0052384F899
:103010005130CEE763681BB1E38E9BB2012B08D120
:10302000236837F8022BDA60E38E9BB2013B9BB238
:10303000E3864FF001081AE0E38F9BB273B1236877
:103040009A6812F0010F09D0DB6826F8023BE38F83
:103050009BB2013B9BB2E3874FF00108B5F1FF3F04
:1030600005D0FDF791FFA0EB090085427FD9E38EE3
:103070009BB21BB9E38F9BB2002B4ED0B8F1000F6F
:10308000DAD0E38E9BB2002BD6D023689A6812F078
:10309000020FD1D037F8022BDA60E38E9BB2013BEE
:1030A0009BB2E3864FF00008C6E7E38F9BB273B193
:1030B00023689A6812F0010F09D0DB683370E38F40
:1030C0009BB2013B9BB2E38701364FF00108B5F19B
:1030D000FF3F05D0FDF758FFA0EB0900854248D916
:1030E000E38E9BB213B9E38F9BB2B3B1B8F1000F7B
:1030F000DBD0E38E9BB2002BD7D023689A6812F006
:10310000020FD2D03A781A73E38E9BB2013B9BB286
:10311000E38601374FF00008C7E7CDF800902B4653
:10312000012202212046FFF767FE08B1032322E7B0
:103130004A4629462046FFF7AAFE034618B1202337
:103140006365012317E7A268002A7FF414AF039296
:103150002268D168039192680392039A0BE70223D5
:1031600009E7012307E7012305E7012303E7032319
:1031700001E70323FFE6704710B584B004460268F8
:103180005168936803F0410001285CD013F0020FEE
:1031900002D011F0800F5DD113F4B07F5DD011F03B
:1031A000200F5AD013F0400F0FD094F85100C0B246
:1031B000032854D0606D40F004006065002000904A
:1031C000D068009090680090009813F0200F0CD009
:1031D000606D40F0010060650020029090680290F0
:1031E000106820F040001060029A13F4807F09D02C
:1031F000636D43F0080363650023039323689B68B2
:103200000393039B636D43B32268536823F0E00389
:103210005360012384F8513011F0030F27D0226846
:10322000536823F003035360E36C23B1124A1A6519
:10323000E06CFEF76FF9A36C7BB10F4A1A65A06CC6
:10324000FEF768F909E011F0400F9FD0236C20468B
:10325000984702E0636C2046984704B010BD0023F5
:103260000193D368019393680193019BF5E720468E
:10327000FFF781FFF1E700BF7D32000808B5806BE2
:103280000023C387C386FFF776FF08BD30B4036A07
:1032900023F001030362036A4468826922F0730227
:1032A0000D682A4323F002038D682B430F4DA8427B
:1032B0001AD005F58065A84214D000255DB123F031
:1032C0000803CD682B4323F0040324F440744D69B4
:1032D0002C438D692C43446082614A6842630362D7
:1032E00030BC70470125E9E70125E7E70000014010
:1032F00030B4036A23F480730362036A4468C269CA
:1033000022F073020D682A4323F400738D6843EAA8
:103310000523114DA8421DD005F58065A84217D0A0
:10332000002575B123F40063CD6843EA052323F437
:10333000806324F440544D6944EA05148D6944EADD
:1033400005144460C2614A68C263036230BC7047BE
:103350000125E6E70125E4E70000014030B4036AF7
:1033600023F480530362036A4468C26922F4E6428C
:103370000D6842EA052223F400538D6843EA0533C1
:103380000C4DA84213D005F58065A8420DD000254C
:1033900025B124F480444D6944EA85144460C26137
:1033A0004A680264036230BC70470125F0E70125DA
:1033B000EEE700BF0000014030B4046A24F01004BE
:1033C00004628469056A24F4407444EA022222F407
:1033D00070421B039BB21A4325F0A005090101F0BE
:1033E000A0010D438261056230BC704730B4046AAD
:1033F00024F480740462C469056A24F0030422433F
:1034000022F0F0021B01DBB21A4325F42065090209
:1034100001F420610D43C261056230BC704730B4D5
:10342000046A24F480540462C469056A24F4407474
:1034300044EA022222F470421B039BB21A4325F491
:103440002045090301F420410D43C261056230BCEF
:10345000704770470368454A90424AD0B0F1804FA8
:1034600049D0A2F57C42904247D002F5806290425A
:1034700045D002F58062904243D002F578429042F6
:1034800035D000221AB123F070034A681343374A3B
:1034900090423AD0B0F1804F50D0A2F57C42904299
:1034A0004ED002F5806290424CD002F5806290428C
:1034B0004AD002F57842904248D002F570529042CC
:1034C00046D002F58062904244D002F5806290427C
:1034D00042D0A2F59832904240D002F580629042EC
:1034E0003ED002F5806290420DD000220EE0012213
:1034F000C8E70122C6E70122C4E70122C2E7012290
:10350000C0E70122BEE7012200E001221AB123F444
:103510004073CA68134303608B68C3620B6883629D
:10352000124B984220D003F5806398421AD00023B2
:103530000BB10B6903630123436170470122E5E787
:103540000122E3E70122E1E70122DFE70122DDE7D3
:103550000122DBE70122D9E70122D7E70122D5E7E3
:103560000122D3E70123E3E70123E1E70000014063
:10357000A8B110B5044690F839305BB1022384F845
:103580003930211D2068FFF765FF012384F83930A9
:10359000002010BD80F8383001F0D6F8EEE70120A9
:1035A0007047A8B110B5044690F839305BB10223DA
:1035B00084F83930211D2068FFF74CFF012384F87F
:1035C0003930002010BD80F83830FFF742FFEEE7B9
:1035D00001207047002847D0F8B505460C4690F802
:1035E0003930002B3BD0022385F83930294651F879
:1035F000042B936823F0070393602868FFF72AFFE2
:10360000286886688369026A21680E4323F4407340
:1036100023F00303A168A76941EA07210B4323F4C0
:103620007C4323F0FC03E168E76941EA07210B438F
:103630002769216A090341EA07110B4322F0AA0214
:103640006168646941EA04110A43866029688B61F4
:103650002B681A62012385F839300020F8BD80F804
:10366000383001F0A7F8BEE70120704770B4046A53
:1036700024F0010404628469056A234EB04230D00C
:10368000B0F1804F2FD0A6F57C46B0422DD006F584
:103690008066B0422BD006F58066B04229D006F590
:1036A0007846B04227D006F57056B04225D0A6F530
:1036B0009436B04213D000260EBB24F0030242F031
:1036C000010222F0F0021B01DBB2134325F00A02D3
:1036D00001F00A0111438361016270BC7047012649
:1036E000EAE70126E8E70126E6E70126E4E7012606
:1036F000E2E70126E0E70126DEE70126DCE724F029
:1037000003042243DDE700BF0000014038B590F814
:103710003830012B58D00D460446012380F838304C
:10372000022380F83930DAB1042A2AD0082A3AD0A4
:10373000CB684A6809680068FFF771FE2268D369A0
:1037400023F44063D3612268D369A96843EA012363
:10375000D361012384F83930002084F8380038BD63
:10376000CB684A6809680068FFF780FF22689369A0
:1037700023F00C03936122689369A9680B4393615A
:10378000E7E7CB684A6809680068FFF715FE22681A
:10379000936923F44063936122689369A96843EABB
:1037A00001239361D5E7CB684A6809680068FFF791
:1037B0001DFE2268D36923F00C03D3612268D3690C
:1037C000A9680B43D361C4E7022038BD30B4036A53
:1037D00023F010030362036A4468826922F4E6421C
:1037E0000D6842EA052223F020038D6843EA0513A1
:1037F000114DA8421DD005F58065A84217D00025BF
:1038000075B123F08003CD6843EA051323F040032C
:1038100024F440644D6944EA85048D6944EA8504D2
:10382000446082614A688263036230BC704701254C
:10383000E6E70125E4E700BF0000014038B590F855
:103840003830012B66D00D460446012380F838300D
:10385000022380F839300C2A1AD8DFE802F0071961
:103860001919201919193419191947000068FFF797
:103870000DFD2268936943F0080393612268936900
:1038800023F0040393612268936929690B439361D0
:10389000012384F83930002084F8380038BD0068EE
:1038A000FFF794FF2268936943F4006393612268F1
:1038B000936923F48063936122689369296943EAD9
:1038C00001239361E4E70068FFF712FD2268D369E2
:1038D00043F00803D3612268D36923F00403D36162
:1038E0002268D36929690B43D361D1E70068FFF7E8
:1038F00035FD2268D36943F40063D3612268D3693C
:1039000023F48063D3612268D369296943EA0123E0
:10391000D361BDE7022038BD90F83830012B22D0AA
:1039200030B4012280F83820022380F8393004684E
:10393000636823F070036360046863680D682B4359
:1039400063600468A36823F08003A3600468A3682D
:1039500049680B43A36080F83920002380F8383091
:10396000184630BC70470220704790F83830012B61
:1039700025D0012380F83830CB6823F440738A685F
:10398000134323F480634A68134323F400630A68F3
:10399000134323F480530A69134323F400534A6901
:1039A000134323F480438A69134323F400431343EE
:1039B00002685364002380F83830184670470220AC
:1039C000704700002DE9F04704460268136923F4AC
:1039D0004053C1680B4313610168CB6823F416435D
:1039E00023F00C0382680069024360690243E069C6
:1039F00002431343CB602268536923F44073A169E7
:103A00000B435361E369B3F5004F62D0D4F80080F3
:103A1000BB4B984500F01B8103F58063984500F08F
:103A20001681FEF727FF00EB800000EB8000656841
:103A3000AD00B0FBF5F5B34FA7FB05356D092E01C1
:103A4000FEF718FF00EB800000EB80006568AD001A
:103A5000B0FBF5FAFEF70EFF00EB800000EB8000F4
:103A60006568AD00B0FBF5F5A7FB05356D094FF0B6
:103A7000640909FB15A52D013235A7FB05356D0934
:103A800005F0F0053544FEF7F5FE00EB800000EB95
:103A900080006668B600B0FBF6F6FEF7EBFE00EBC2
:103AA000800000EB800063689B00B0FBF3F0A7FB95
:103AB0000030400909FB10694FEA091909F1320980
:103AC000A7FB0937C7F343172F44C8F80870BDE8B0
:103AD000F087D4F8008003F1804303F51043984544
:103AE0005CD003F58063984558D0FEF7C3FE00EB29
:103AF000800000EB800065686D00B0FBF5F5814F3C
:103B0000A7FB05356D092E01FEF7B4FE00EB800022
:103B100000EB800065686D00B0FBF5FAFEF7AAFEC9
:103B200000EB800000EB800065686D00B0FBF5F5F0
:103B3000A7FB05356D094FF0640909FB15A5ED00DC
:103B40003235A7FB05356D096D0005F4F875354470
:103B5000FEF790FE00EB800000EB800066687600C8
:103B6000B0FBF6F6FEF786FE00EB800000EB80006F
:103B700063685B00B0FBF3F3A7FB03235B0909FB5E
:103B800013694FEAC90909F13209A7FB0937C7F3DD
:103B900042172F44C8F80870BDE8F087FEF77AFE98
:103BA00000EB800000EB800065686D00B0FBF5F570
:103BB000544FA7FB05356D092E01FEF76BFE00EB98
:103BC000800000EB800065686D00B0FBF5FAFEF741
:103BD00061FE00EB800000EB800065686D00B0FBCB
:103BE000F5F5A7FB05356D094FF0640909FB15A52F
:103BF000ED003235A7FB05356D096D0005F4F8754C
:103C00003544FEF747FE00EB800000EB800066685D
:103C10007600B0FBF6F6FEF73DFE00EB800000EB11
:103C2000800063685B00B0FBF3F3A7FB03235B0931
:103C300009FB13694FEAC90909F13209A7FB0937E2
:103C4000C7F342172F44C8F80870BDE8F087FEF7A5
:103C500021FE00EB800000EB80006568AD00B0FB4A
:103C6000F5F5284FA7FB05356D092E01FEF712FE6D
:103C700000EB800000EB80006568AD00B0FBF5FA5A
:103C8000FEF708FE00EB800000EB80006568AD00E9
:103C9000B0FBF5F5A7FB05356D094FF0640909FB8D
:103CA00015A52D013235A7FB05356D0905F0F00589
:103CB0003544FEF7EFFD00EB800000EB8000666806
:103CC000B600B0FBF6F6FEF7E5FD00EB800000EB7A
:103CD000800063689B00B0FBF3F3A7FB03235B0941
:103CE00009FB13694FEA091909F13209A7FB0937E2
:103CF000C7F343172F44C8F80870BDE8F08700BF2A
:103D0000001001401F85EB512DE9F04105460F469B
:103D100016469846069C2B681B6837EA03030CBFBF
:103D200001230023B3421ED1B4F1FF3FF3D02CB1E5
:103D3000FDF72AF9A0EB08008442ECD22A68D36888
:103D400023F4D073D3602A68536923F001035361CD
:103D5000202385F8393085F83A30002385F838304B
:103D60000320BDE8F0810020BDE8F08158B310B514
:103D7000044690F839300BB3242384F83930226894
:103D8000D36823F40053D3602046FFF71BFE22685C
:103D9000136923F4904313612268536923F02A03C3
:103DA00053612268D36843F40053D3600020E0637A
:103DB000202384F8393084F83A3010BD80F8383048
:103DC00000F05AFDD8E7012070472DE9F04182B09C
:103DD0001E4690F83930DBB2202B04D0022318465F
:103DE00002B0BDE8F08104460D469046002955D04A
:103DF000002A55D090F83830012B01D10223EEE78C
:103E0000012380F838300023C363212380F8393040
:103E1000FDF7BAF80746A4F82480A4F8268010E03D
:103E200000963B46002280212046FFF76DFF0028C8
:103E300038D122682B88C3F3080353602369CBB9B8
:103E40000235E38C9BB2BBB1E38C9BB2013B9BB2CE
:103E5000E384A368B3F5805FE2D000963B4600227E
:103E600080212046FFF750FFF0B923682A785A6076
:103E70000135E6E70135E4E700963B4600224021A4
:103E80002046FFF741FF034608B10323A7E720229E
:103E900084F83920002284F83820A0E701239EE727
:103EA00001239CE703239AE7032398E708B500F072
:103EB00001FE08BDF0B58BB000240594069407946C
:103EC000089409940194294B1A6B42F004021A6376
:103ED0001A6B02F004020192019A02941A6B42F0EA
:103EE00080021A631A6B02F080020292029A039413
:103EF0001A6B42F001021A631A6B02F0010203927C
:103F0000039A04941A6B42F002021A631B6B03F0CB
:103F100002030493049B164F224620213846FDF7E6
:103F2000DDFC144D2246C0212846FDF7D7FC4FF496
:103F300000530593104B0693079405A90F48FDF70E
:103F4000EBFB20230593012606960794089405A908
:103F50003846FDF7E1FBC0230593069607940894C5
:103F600005A92846FDF7D8FB0BB0F0BD003802408C
:103F7000000002400004024000002110000802403E
:103F800010B582B0002400941E4B1A6B42F400124C
:103F90001A631A6B02F400120092009A01941A6BD1
:103FA00042F480021A631B6B03F480030193019BAC
:103FB000224621460B20FDF78BF90B20FDF7BAF9BD
:103FC000224621460E20FDF783F90E20FDF7B2F9B7
:103FD000224621460F20FDF77BF90F20FDF7AAF9B5
:103FE000224621462F20FDF773F92F20FDF7A2F975
:103FF000224621463820FDF76BF93820FDF79AF963
:1040000002B010BD0038024008B50848084B0360F4
:104010004FF4E133436000238360C36003610C22EB
:1040200042618361C361FFF7A1FE08BD1C0A002045
:104030000044004030B595B00024129413940B94C2
:104040000C940D940E940F9410941194079408946A
:1040500009940A940094019402940394049405949E
:104060000694234D234B2B606C60AC60EC602C619C
:104070006C612846FFF77CFA2846FFF792FA129403
:10408000139412A92846FFF747FC60230B930C9466
:104090000D940E940F941094119422460BA9284667
:1040A000FFF7CCFB04220BA92846FFF7C7FB0794B8
:1040B0000123089309940A94082207A92846FFF7C8
:1040C00025FB0C2207A92846FFF720FB009401944A
:1040D0000294039404944FF40053059306946946A4
:1040E0002846FFF742FC284600F098FB15B030BD8B
:1040F000800900200000014030B58DB0242200214D
:1041000003A800F0D6FE0024019402940B4D0C4B42
:104110002B606C60AC60EC602C6101230393059311
:10412000099303A92846FFF755FA0194029401A9BF
:104130002846FFF7F1FB0DB030BD00BF9C08002002
:10414000000C004008B50948094B0360094B436067
:10415000002383600C22C2604FF4804202614361FD
:104160008361C3610362FDF715FD08BD940700205C
:1041700000540040A086010008B50A480A4B0360BD
:1041800042F210734360002383600622C2604FF442
:104190008042026143618361C3610362FDF7FAFCFF
:1041A00008BD00BFE80700200058004008B50C48D3
:1041B0000C4B03604FF48273436000238360C36041
:1041C000036143614FF4802282611822C26103625D
:1041D000436283620A23C362FEF76CFE08BD00BF20
:1041E000DC06002000380040F0B585B000230093C5
:1041F0000193029303931C4C1C4A22604FF48032BB
:104200006260A36001252561A5612362E362184A0B
:10421000A262E3600426E661256365612046FCF73F
:1042200051FF062300930195032702976946204614
:10423000FCF772FF0725009502230193694620468B
:10424000FCF76AFF08230093019769462046FCF7B4
:1042500063FF084B00930196029569462046FCF7E0
:104260005BFF05B0F0BD00BFD80800200020014072
:104270000100000F1200001030B595B0342200216B
:1042800007A800F016FE00240294039404940594F9
:10429000069400941D4B1A6C42F080521A641B6CF9
:1042A00003F080530093009B0194194B1A6842F469
:1042B00040421A601B6803F440430193019B0123B1
:1042C00007934FF48033089302250D954FF4800334
:1042D0000E9304230F93B423109311951295139505
:1042E00007A8FEF7A7FBFEF7D3F90F230293039568
:1042F00004944FF4A05305934FF480530693052183
:1043000002A8FEF705FA15B030BD00BF0038024024
:104310000070004008B5FCF711FEFFF7ADFFFFF796
:10432000C9FDFFF72DFEFFF76FFEFFF783FEFFF7D6
:10433000E3FEFFF707FFFFF71FFFFFF737FFFFF76A
:1043400053FFFFF7B3FDFEE77047000000B583B0F1
:10435000002100910C4B5A6C42F480425A645A6C12
:1043600002F480420092009A01911A6C42F080524D
:104370001A641B6C03F080530193019B0720FCF728
:1043800095FF03B05DF804FB0038024070B588B0BB
:10439000002303930493059306930793026803F1A4
:1043A000804303F590339A4201D008B070BD0446B3
:1043B0000025009503F58C335A6C42F480725A64E0
:1043C0005A6C02F480720092009A01951A6B42F0C6
:1043D00001021A631A6B02F001020192019A02951E
:1043E0001A6B42F002021A631B6B03F00203029382
:1043F000029BC02303930326049603A91448FDF7E8
:104400008BF9012303930496059503A91148FDF741
:1044100083F91148114B036045608560C5604FF416
:10442000806303614FF4006343614FF40053836181
:104430004FF48073C36105624562FDF703F818B954
:10444000054BA3639C63B0E7FFF77EFFF8E700BF6F
:1044500000000240000402402009002010640240D5
:104460002DE9F0438BB0002305930693079308933F
:10447000099303685B4A934205D05B4A93426FD02D
:104480000BB0BDE8F083044600250095574E336B12
:1044900043F002033363336B03F002030093009B8A
:1044A0004FF44073059312230693032308930423C8
:1044B000099305A94E48FDF72FF90195336C43F494
:1044C00000133364336C03F400130193019B4948D8
:1044D000494B03604FF00073436040238360C56025
:1044E0004FF48063036145618561C5614FF44033DA
:1044F00003624562FCF7A6FF60BB3E4B63639C63AF
:104500003E483F4B03604FF00073436000238360DD
:10451000C3604FF48062026143618361C3614FF401
:10452000403202624362FCF78DFFB0B9334BA363A4
:104530009C63002211461F20FCF7CAFE1F20FCF7D7
:10454000F9FE002211462020FCF7C2FE2020FCF7D5
:10455000F1FE95E7FFF7F8FECFE7FFF7F5FEE5E799
:1045600000250295214C236B43F002032363236B48
:1045700003F002030293029B0395236B43F00403B1
:104580002363236B03F004030393039B4FF48063C3
:1045900005934FF01209CDF818904FF00108CDF8AF
:1045A0001C80032708970426099605A91048FDF7E3
:1045B000B3F84FF480530593CDF81890CDF81C80D4
:1045C0000897099605A90F48FDF7A6F80495236CEE
:1045D00043F480032364236C03F480030493049B5B
:1045E0004EE700BF00540040005800400038024031
:1045F0000004024034070020B8600240BC090020DB
:1046000010600240000802402DE9F04389B0002309
:10461000039304930593069307930268434B9A42CE
:1046200002D009B0BDE8F08304460025009503F5EB
:1046300000331A6C42F480421A641A6C02F480420D
:104640000092009A01951A6B42F004021A631A6BE9
:1046500002F004020192019A02951A6B42F00202E2
:104660001A631B6B03F002030293029B022603965C
:1046700004960327069707230793DFF8C89003A93A
:104680004846FDF749F804230393049605950697D9
:104690004FF00508CDF81C8003A94846FDF73CF80B
:1046A0004FF440530393049605950697CDF81C806C
:1046B00003A91F48FDF730F81E481F4B03604560F3
:1046C0008560C5604FF48063036145618561C561A4
:1046D00005624562FCF7B6FE08BB164BE3649C63BB
:1046E0001648174B03600023436040228260C3607A
:1046F0004FF48062026143618361C361036243627C
:10470000FCF7A0FE70B90D4BA3649C630022114618
:104710002420FCF7DDFD2420FCF70CFE81E7FFF7E9
:1047200013FEDAE7FFF710FEEDE700BF00380040A8
:10473000000402403C080020586002405C0A00204F
:10474000706002400008024000B589B00023039366
:1047500004930593069307930268144B9A4202D080
:1047600009B05DF804FB0021019103F59C335A6CFC
:1047700042F001025A645A6C02F001020192019A5D
:1047800002911A6B42F001021A631B6B03F00103E2
:104790000293029B4FF4406303930223049301238B
:1047A000079303A90248FCF7B7FFD9E700000140CF
:1047B0000000024000B589B00023039304930593E1
:1047C000069307930268134B9A4202D009B05DF832
:1047D00004FB0021019103F50B331A6C42F008022F
:1047E0001A641A6C02F008020192019A02911A6B83
:1047F00042F001021A631B6B03F001030293029B58
:104800000323039302230493079303A90248FCF7AD
:1048100083FFDBE7000C00400000024000B587B0DA
:1048200000230193029303930493059302680F4BB3
:104830009A4202D007B05DF804FB002300930C4BB2
:104840001A6B42F001021A631B6B03F00103009321
:10485000009B4FF4407301930223029301230593BD
:1048600001A90448FCF758FFE4E700BF000001403D
:10487000003802400000024000B589B000230393D5
:1048800004930593069307930268164B9A4202D04D
:1048900009B05DF804FB0021019103F5FA331A6CAD
:1048A00042F400321A641A6C02F400320192019A46
:1048B00002911A6B42F001021A631B6B03F00103B1
:1048C0000293029B0C230393022304930123059379
:1048D000032306930723079303A90348FCF71CFF50
:1048E000D6E700BF00440040000002407047FEE7EA
:1048F000FEE7FEE7FEE770477047704708B5FCF734
:1049000037FB08BD08B50248FCF718FE08BD00BF1C
:10491000BC09002008B50248FCF710FE08BD00BF26
:104920003C08002008B50248FCF708FE08BD00BF9F
:104930005C0A002008B50248FDF75CFD08BD00BF19
:104940009407002008B50248FDF708FE08BD00BF27
:104950009407002008B50248FEF70EFC08BD00BF12
:10496000DC06002008B50248FCF7E8FD08BD00BFE2
:104970003407002008B50248FCF7E0FD08BD00BF81
:10498000200900200F49D1F8883043F47003C1F8A2
:1049900088300D4B1A6842F001021A6000209860BE
:1049A0001A6822F0847222F480321A60074A5A6030
:1049B0001A6822F480221A60D8604FF000638B607E
:1049C000704700BF00ED00E00038024010300024C6
:1049D00008B50146014800F0F9F908BDC07C00089F
:1049E00008B50C4800F0B2F90B490C4800F002F988
:1049F0000B4B186020220B490B4800F05FF80B4B63
:104A000018604FF400520A490A4800F057F80A4B60
:104A1000186008BD1C0A0020DC060020B80B00202E
:104A2000900C002000000240BC0A0020A80B0020CF
:104A300000080240B00B0020C80A0020F8B5FFF7BC
:104A4000CFFF164C2368196800224A6019688A61F2
:104A50001868FEF72FFA124800F0B8F9114800F074
:104A6000B5F9114F0121386800F039F826680F4C6C
:104A70000FCC7060B160F260336103CC7061B161E2
:104A80002388B383304600F0DDF80446386800F030
:104A90002FF82146064800F099F9F8BD900C002047
:104AA000C87C0008E07C0008A80B0020047D0008FA
:104AB000207D000808B5FFF7C1FF08BD82800160B6
:104AC000704708B5012281880068FCF707FF08BD20
:104AD00008B5002281880068FCF700FF08BD08B512
:104AE000012902D0FFF7F4FF08BDFFF7EAFF08BD78
:104AF00008B581880068FCF7F7FE08BD7047000024
:104B000038B50546002400E001340A4B1B889C425E
:104B10000EDA094B53F824000368AB42F4D1FFF7D7
:104B2000EDFF054B53F82430032283F8D820EBE740
:104B300038BD00BF98060020940C002038B505460B
:104B4000002400E001340A4B1B889C420EDA094B1A
:104B500053F824000368AB42F4D1FFF7CFFF054BB5
:104B600053F82430032283F8D820EBE738BD00BF88
:104B700098060020940C00207047000038B50546C8
:104B8000002400E001340A4B1B889C420EDA094BDA
:104B900053F824000368AB42F4D1FFF7EDFF054B57
:104BA00053F82430032283F8D920EBE738BD00BF47
:104BB00098060020940C002038B50546002400E03B
:104BC00001340A4B1B889C420EDA094B53F824002F
:104BD0000368AB42F4D1FFF7CFFF054B53F8243005
:104BE000032283F8D920EBE738BD00BF98060020E8
:104BF000940C002010B401604FF6FF73C0F8CC3065
:104C0000012380F8D03000230C4A128814469342C6
:104C10000BDA0B4A52F823201268914201D001337B
:104C2000F2E7074A42F8230005E00132034B1A80FD
:104C3000034B43F824005DF8044B70479A060020AC
:104C4000BC0C0020F0B583B0044603689B69B3F543
:104C5000007F1BD0254655F8047B04F168062846E2
:104C6000FBF7D6FAD4F8CC30009383B2324629460B
:104C70003846FEF75FF902280ED0032817D0012826
:104C800024D060B9032384F8D03008E00021D0F8A4
:104C9000D400FFF724FFDDE7022384F8D030236837
:104CA0009B69B3F5007F18D0304603B0F0BD0423F4
:104CB00084F8D0302368002283F850202368012232
:104CC00083F85120084800F097F8E8E7052384F8B6
:104CD000D030064800F090F8E1E70121D4F8D40084
:104CE000FFF7FDFEE0E700BF3C7D0008607D0008A7
:104CF00010B401604FF6FF73C0F8CC304FF0FF33B3
:104D0000C0F8D030012380F8D43080F8D5300023AB
:104D10000C4A1288144693420BDA0B4A52F82320AD
:104D20001268914201D00133F2E7074A42F82300AA
:104D300005E00132034B1A80034B43F824005DF871
:104D4000044B70479C060020BC0D002008B50146AE
:104D50000148FFF7CDFF08BDE40C002070B5054603
:104D6000044654F8046B2046FBF752FAD5F8CC30D1
:104D700082B221463046FFF728F8022808D00328DF
:104D80000AD0012817D010B9032385F8D43070BD9C
:104D9000022385F8D43070BD042385F8D4302B6805
:104DA000002283F838202B68202283F83920054818
:104DB00000F022F870BD052385F8D430024800F0D9
:104DC0001BF870BD847D0008A87D00080FB410B5E5
:104DD00082B004AA52F8041B0192064C204600F04F
:104DE00089F8201FFFF7BAFF02B0BDE8104004B0F9
:104DF000704700BFE80C002008B5FFF7E9FD08BDCB
:104E0000DFF834D0002103E00C4B5B5843500431F1
:104E10000B480C4B42189A42F6D30B4A02E000238F
:104E200042F8043B094B9A42F9D3FFF7ABFD00F07F
:104E300011F8FFF76FFA704700000220A880000801
:104E4000000000207C0600207C0600201C0E0020B4
:104E5000FEE7000070B50D4E0D4CA41BA4100025FC
:104E6000A54209D10B4E0C4C02F00EFFA41BA4105E
:104E70000025A54205D170BD56F82530984701356B
:104E8000EEE756F8253098470135F2E7A080000894
:104E9000A0800008A0800008A480000810B5431E70
:104EA0000A44914200D110BD11F8014B03F8014FA3
:104EB000F7E702440346934200D1704703F8011B11
:104EC000F9E710B59AB04FF40274009104916FF0B5
:104ED0000041029105914FF6FF71ADF80E10694641
:104EE000ADF80C4000F010F8009B00221A701AB0C8
:104EF00010BD000013460A46014602480068FFF74D
:104F0000E0BF00BF0C0000202DE9F04FBDB08A4685
:104F100015461F46834601F025FE03680D9318468B
:104F2000FBF776F9BAF80C3008901B0618D5DAF8BA
:104F30001030ABB94021584601F02AFECAF80000F3
:104F4000CAF8100048B90C23CBF800304FF0FF33FB
:104F5000099309983DB0BDE8F08F4023CAF814309A
:104F60009FED997B8DED067B00232CAC1F94219344
:104F7000209305950393119310930993059D2B4658
:104F800013F8012B12B1252A40F08380059BEE1AFD
:104F90000DD084E84800219B33442193209B0133AA
:104FA000072B209377DC0834099B334409932B7833
:104FB000002B00F029870023691C8DF85F301A460A
:104FC0004FF0FF390A931D460A204E1C09780596BA
:104FD000029102992039582900F21884DFE811F073
:104FE000A60016041604AB001604160416041604D4
:104FF00016041604AE0065001604B700BA001604C5
:10500000D700DA00DA00DA00DA00DA00DA00DA00D3
:10501000DA00DA0016041604160416041604160440
:10502000160416041604160415012B0116042B0190
:105030001604160416041604ED00160416044003A4
:1050400016041604160416041604A80316041604FF
:105050008600160416041604160416041604160414
:1050600016041604160407016B002B012B012B01FB
:10507000F0006B0016041604FA0016042203420323
:1050800076030101160487031604AA031604160406
:10509000C2031D4673E71FAA5146584602F084FA20
:1050A000002840F092862CAC7EE701232B22059944
:1050B0008BE70F46FBE70BB18DF85F20AE0640F1A2
:1050C000AA80073727F0070707F10803D7E9006729
:1050D0000493002E77F1000306DA76424FF02D0399
:1050E00067EB47078DF85F300123CAE20BB18DF8FB
:1050F0005F20374B1193AB0640F13983073727F018
:10510000070707F10803D7E900670493E8070BD501
:1051100056EA070308D030238DF860309DF8083038
:105120008DF8613045F002050223A7E2002ABED1C6
:1051300001232022BBE745F00105B8E73E680A9647
:10514000002E07F10401B4DA76420A960F4645F0C4
:105150000405ACE705994E1C097802912A2910D064
:105160004FF0000905960299303909293FF631AF11
:1051700000FB091905990E4616F8011B02910596C8
:10518000F1E73968059641EAE17904378FE745F0A0
:1051900080058CE700210A9102990A9E303900FBB4
:1051A00006110A9105990E4616F8011B0291029903
:1051B000059630390929EFD90BE745F0080576E760
:1051C00045F0400573E700BF00000000000000004C
:1051D000DC7D0008059909786C2905D10599013114
:1051E000059145F0200562E745F010055FE73B1D9E
:1051F000049300263B688DF888308DF85F604FF08F
:10520000010937460DF188081BE10BB18DF85F20CD
:1052100045F0100552E715F0100F07F1040303D015
:105220003E680493F71754E73E68049315F0400F67
:1052300018BF36B2F6E70BB18DF85F20073727F0BD
:10524000070707F10803049397ED007B8DED067BBC
:10525000069B1293079B23F0004313934FF0FF32FA
:105260004A4BDDE91201FBF77DFC002840F0D585B3
:105270004FF0FF32454BDDE91201FBF755FC0028EA
:1052800040F0CB8500220023DDE90601FBF742FC5C
:1052900010B12D238DF85F303D4B3E4A029925F029
:1052A00080054729CCBF904698464FF00309002659
:1052B0003746C6E0B9F1FF3F22D0029B23F020031E
:1052C000472B04D1B9F1000F08BF4FF0010945F495
:1052D00080730C93079B002B15DA069B0E93079B9C
:1052E00003F100430F932D230B93029B23F0200720
:1052F000462F0ED0452F46D109F1010602210AE0C2
:105300004FF00609E3E79DED067B00238DED0E7B54
:10531000EAE74E4603211DAB01931AAB00933246D8
:1053200019AB9DED0E0B584600F04EFE472F804600
:1053300002D1E80740F17E8508EB0603462F039370
:1053400011D198F80030302B09D100220023DDE97B
:105350000E01FBF7D5FB10B9C6F101061996039AA9
:10536000199B1A44039200220023DDE90E01FBF78A
:10537000C7FB88B930221D9B039999420ED9591C4D
:105380001D911A70F7E74E46B8E700BFFFFFEF7FA9
:10539000CC7D0008D07D0008039B1D931D9B472FEB
:1053A000A3EB0803039340F0FA80199BD91C02DB9E
:1053B000994580F22081029B023B0293199A9DF845
:1053C00008108DF86C10531E002B1993B6BFC2F154
:1053D00001032B222D22092B8DF86D2040F3FB8039
:1053E0000DF17B020A2693FBF6F006FB10333033F7
:1053F000092802F8013C02F1FF31034600F3E48082
:10540000303301F8013C023A0DF16E030DF17B00DF
:1054100082421946C0F0DA80039A1BABCB1A012AEC
:10542000109303EB020902DC15F0010702D0089B80
:10543000002799440B9B13B12D238DF85F300C9DF1
:1054400000264E453346B8BF4B460B939DF85F3060
:1054500013B10B9B01330B9315F0020314931EBF82
:105460000B9B02330B9315F08403159318D10A9B01
:105470000B9A9B1A002B0C9312DD0C9B102BA94B43
:10548000236000F3D5810C9B63600C9A219B13442D
:105490002193209B0133072B209300F3E2810834F2
:1054A0009DF85F3073B10DF15F03236001236360EA
:1054B000219B01332193209B0133072B209300F381
:1054C000DA810834149B6BB118AB2360022363604C
:1054D000219B02332193209B0133072B209300F360
:1054E000D4810834159B802B14D10A9B0B9A9B1AEC
:1054F000002B0FDD8C4A2260102B00F3D081219A03
:10550000636013442193209B0133072B209300F306
:10551000DF810834A6EB0906002E0FDD824B2360E5
:10552000102E00F3DF81209B219866600133064432
:10553000072B2196209300F3EC810834EB0500F152
:10554000F281219B84E800034B442193209B01338B
:10555000072B209340F319841FAA5146584602F0A6
:1055600023F8002840F031842CAC6B0700F1108444
:10557000099B0A9A0B998A42ACBF9B185B18099346
:10558000219B3BB11FAA5146584602F00DF8002856
:1055900040F01B8400232093049F2CACEEE4029B7C
:1055A000652B7FF70BAF029B662B24D1199B002B39
:1055B00019DDB9F1000F01D1EA0702D5089A1344A9
:1055C0004B44199F994635E70A460CE712F8011B30
:1055D00003F8011B1CE7302213448DF86E208DF870
:1055E0006F301CA918E7B9F1000F01D1EB0715D5F1
:1055F000089B0133E4E7199A039B9A4206DBEF0705
:105600000ED5089B134467220292DAE7039B0899A0
:10561000002A0B44F7DCC2F10102F3E70123D0E7D3
:105620001346F0E70BB18DF85F2015F0200F07F15E
:10563000040308D009993A68CE1708463146C2E9F2
:1056400000011F469AE4EE0603D53A6809991160F5
:10565000F7E76806F9D53A68BDF824101180F0E73D
:1056600045F0100515F0200322D0073727F0070773
:1056700007F10803D7E900670493002300228DF89F
:105680005F20B9F1FF3F00F0DB8325F080020B9231
:1056900056EA070240F0D983B9F1000F00F0AA8062
:1056A000012B76D0022B00F0918000260027D2E358
:1056B0003A1D15F01001049202D03E680027DDE784
:1056C00015F04003F9D03E880027D6E73B1D049330
:1056D000302378228DF86030144B3E6811930027F8
:1056E00045F002058DF8612002230292C6E73B1DBA
:1056F0000026B9F1FF3F0493D7F800808DF85F6072
:105700000AD04A4631464046FAF78AFD002800F0A2
:105710008D80A0EB0809CBE54046FAF779FD81467C
:10572000C6E500BF007E0008107E0008ED7D000881
:1057300045F01005A90609D5073727F0070707F137
:105740000803D7E900670493012397E73B1D15F091
:10575000100F049301D03E6802E06A06FBD53E8834
:105760000027F1E70BB18DF85F20A34BC2E43B1D8E
:1057700015F0100F049301D03E6802E06E06FBD5D1
:105780003E880027C2E4434666E3002F08BF0A2E86
:1057900005D20DF1F008303608F8416D77E30DF1D0
:1057A000B008304639460A220023FBF719FA303296
:1057B00008F8012D0023304639460A22FBF710FA7B
:1057C00006460F4656EA0703EBD160E300260027A2
:1057D0000DF1B00806F00F03119AD35C08F8013DF3
:1057E000330943EA07733A091E46174656EA070388
:1057F000F0D14CE33BB9EA0705D50DF1F0083023B1
:1058000008F8413D43E30DF1B00840E30BB18DF8DA
:105810005F20029B002B00F0F7829DF808308DF886
:10582000883000268DF85F600497E8E406463FE57F
:1058300010236360219B10332193209B0133072B9E
:10584000209304DC08340C9B103B0C9315E61FAA34
:105850005146584601F0A8FE002840F0B6822CAC14
:10586000F1E71FAA5146584601F09EFE002840F07D
:10587000AC822CAC14E61FAA5146584601F094FEA7
:10588000002840F0A2822CAC1CE61FAA51465846C4
:1058900001F08AFE002840F098822CAC22E610220B
:1058A0006260219A10322192209A0132072A2092B6
:1058B00002DC0834103B1DE61FAA514658460C93E3
:1058C00001F072FE002840F080822CAC0C9BF1E7C6
:1058D0001FAA5146584601F067FE002840F0758225
:1058E0002CAC17E610236360219B10332193209B7F
:1058F0000133072B209302DC0834103E0EE61FAA6A
:105900005146584601F050FE002840F05E822CAC13
:10591000F3E71FAA5146584601F046FE002840F022
:1059200054822CAC0AE6029B652B40F3A98100222D
:105930000023DDE90601FBF7E3F8002862D02F4BD6
:10594000236001236360219B01332193209B01335A
:10595000072B209325DC0834199B039A934202DB22
:10596000EE077FF502AE0D9B2360089B6360089AEB
:10597000219B13442193209B0133072B20931ADC96
:105980000834039B5E1E002E7FF7EFAD1C4F4FF0D7
:105990001008102E276018DC6660219B1E4421969B
:1059A000D4E51FAA5146584601F0FEFD002840F0FC
:1059B0000C822CACD0E71FAA5146584601F0F4FDEA
:1059C000002840F002822CACDBE7219BC4F8048065
:1059D00010332193209B0133072B209302DC0834E2
:1059E000103ED6E71FAA5146584601F0DDFD0028BB
:1059F00040F0EB812CACF3E7ED7D0008FE7D000864
:105A0000107E0008199B002B7ADC9B4B236001233E
:105A10006360219B01332193209B0133072B20934B
:105A200044DC0834199B23B9039B13B9E8077FF5BD
:105A30009CAD0D9B2360089B6360089A219B1344D7
:105A40002193209B0133072B209339DC04F10803B9
:105A5000199E002E19DA894F76421024102E1F60ED
:105A600038DC219A5E601644209A21960132072A7A
:105A700003F10803209208DD1FAA5146584601F0A1
:105A800093FD002840F0A1812CAB039A5A60039942
:105A9000219AC3F800800A442192209A0132072AF1
:105AA00020923FF759AD03F108045EE51FAA514665
:105AB000584601F079FD002840F087812CACB1E711
:105AC0001FAA5146584601F06FFD002840F07D8125
:105AD0002CABBDE7219A5C6010322192209A0132F2
