:020000040800F2
:10000000000002208D3800086D2C00086F2C0008BD
:10001000712C0008732C0008752C000800000000EB
:10002000000000000000000000000000772C000825
:10003000792C0008000000007B2C00087D2C0008B3
:10004000DD380008DD380008DD380008DD3800083C
:10005000DD380008DD380008DD380008DD3800082C
:10006000DD380008DD380008DD380008DD3800081C
:10007000DD380008DD380008DD380008DD3800080C
:10008000852C0008952C0008DD380008DD380008B4
:10009000DD380008DD380008DD380008DD380008EC
:1000A000DD380008DD380008DD380008DD380008DC
:1000B000DD380008DD380008DD380008DD380008CC
:1000C000DD380008DD380008DD380008DD380008BC
:1000D000DD380008DD380008A52C0008DD380008F0
:1000E000DD380008DD380008DD380008DD3800089C
:1000F000DD380008DD380008DD380008DD3800088C
:10010000DD380008DD380008DD380008DD3800087B
:10011000DD380008DD380008DD380008DD3800086B
:10012000DD380008DD380008DD380008DD3800085B
:10013000DD3800080000000000000000DD38000885
:10014000DD380008DD380008DD380008DD3800083B
:10015000DD380008DD380008DD380008DD3800082B
:10016000DD380008DD380008DD380008DD3800081B
:10017000DD380008DD380008DD3800080000000028
:1001800000000000DD380008000000000000000052
:10019000DD3800080000000000000000DD38000825
:1001A000000000000000000000000000DD38000832
:1001B000DD380008DD380008DD380008DD380008CB
:0401C000DD3800081E
:1001D00010B5054C237833B9044B13B10448AFF381
:1001E00000800123237010BDDC010020000000000E
:1001F000704B000808B5034B1BB103490348AFF32C
:10020000008008BD00000000E0010020704B0008E5
:10021000034613F8012B002AFBD1181A0138704746
:1002200001F0FF01102A2BDB10F0070F08D010F8A7
:10023000013B013A8B422DD010F0070F42B3F6D1AB
:10024000F0B441EA012141EA014122F007047FF0C4
:1002500000070023F0E80256083C85EA010586EA1B
:10026000010685FA47F5A3FA87F586FA47F6A5FA57
:1002700087F68EB9EED1F0BC01F0FF0102F0070263
:1002800032B110F8013B013A83EA010313B1F8D10E
:100290000020704701387047002D06BF35460338EF
:1002A000073815F0010F07D1013015F4807F02BF28
:1002B000013015F4C03F0130F0BC0138704700BF79
:1002C00053B94AB9002908BF00281CBF4FF0FF31BD
:1002D0004FF0FF3000F07AB9ADF1080C6DE904CEB3
:1002E00000F006F8DDF804E0DDE9022304B0704711
:1002F0002DE9F0478C460D460446089E002B51D14F
:100300008A4217466DD9B2FA82FEBEF1000F0BD0B9
:10031000CEF1200C01FA0EF520FA0CFC02FA0EF7D1
:100320004CEA050C00FA0EF44FEA174A250CBCFB08
:10033000FAF81FFA87F90AFB18CC45EA0C4508FBC6
:1003400009F3AB420AD9ED1908F1FF3280F023819D
:10035000AB4240F22081A8F102083D44ED1AA4B25C
:10036000B5FBFAF00AFB105544EA054400FB09F915
:10037000A14509D9E41900F1FF3380F00A81A145B4
:1003800040F2078102383C44A4EB090440EA0840EB
:100390000021002E61D024FA0EF400233460736033
:1003A000BDE8F0878B4207D9002E54D0002186E8A3
:1003B00021000846BDE8F087B3FA83F1002940F038
:1003C0008E80AB4202D3824200F2FA80841A65EB3F
:1003D00003050120AC46002E3FD086E81010BDE892
:1003E000F08712B90127B7FBF2F7B7FA87FEBEF123
:1003F000000F34D1EB1B3A0C1FFA87FC0121B3FB31
:10040000F2F8250C02FB183345EA03450CFB08F310
:10041000AB4207D9ED1908F1FF3002D2AB4200F22E
:10042000D1808046ED1AA3B2B5FBF2F002FB105565
:1004300043EA05440CFB00FCA44507D9E41900F18C
:10044000FF3302D2A44500F2B8801846A4EB0C0496
:1004500040EA08409DE731463046BDE8F087CEF1DE
:10046000200405FA0EF307FA0EF720FA04F83A0C06
:1004700025FA04F448EA0308B4FBF2F14FEA184500
:1004800002FB11441FFA87FC45EA044501FB0CF30B
:10049000AB4200FA0EF409D9ED1901F1FF3080F0FA
:1004A0008A80AB4240F2878002393D44EB1A1FFA42
:1004B00088F5B3FBF2F002FB103345EA034500FB7D
:1004C0000CF3AB4207D9ED1900F1FF386FD2AB4204
:1004D0006DD902383D44EB1A40EA01418FE7C1F182
:1004E000200722FA07F88B4005FA01F448EA0303D3
:1004F00020FA07FE4FEA134CFD404EEA040EB5FB0E
:10050000FCF94FEA1E440CFB19551FFA83F844EA24
:10051000054509FB08F4AC4202FA01F200FA01FABF
:1005200008D9ED1809F1FF3043D2AC4241D9A9F105
:1005300002091D442D1B1FFA8EFEB5FBFCF00CFBBF
:1005400010554EEA054400FB08F8A04507D9E41809
:1005500000F1FF3529D2A04527D902381C4440EAD2
:100560000940A4EB0804A0FB02894C45C6464D4651
:1005700015D312D056B1BAEB0E0364EB050404FA9E
:1005800007F7CB401F43CC40376074600021BDE8C3
:10059000F0871846F8E69046E0E6C245EAD2B8EBA6
:1005A000020E69EB03050138E4E72846D7E7404629
:1005B00091E78146BEE7014678E702383C4445E7CB
:1005C000084608E7A8F102083D442BE7704700BF42
:1005D00010B504460E4B18784FF47A73B3FBF0F362
:1005E0000C4A1068B0FBF3F000F094F868B90F2CD7
:1005F00001D9012010BD002221464FF0FF3000F04C
:100600004BF8054B1C60002010BD012010BD00BF41
:1006100000000020080000200400002008B50B4B5B
:100620001A6842F400721A601A6842F480621A6012
:100630001A6842F480721A60032000F01BF8002050
:10064000FFF7C6FF02F09EF9002008BD003C024003
:10065000034A1168034B1B780B441360704700BFBB
:100660000802002000000020014B1868704700BFFE
:1006700008020020074AD36823F4E0631B041B0C24
:10068000000200F4E060184340F0BF6040F4003026
:10069000D060704700ED00E030B4164BDB68C3F368
:1006A0000223C3F10704042C28BF04241D1D062DBA
:1006B00017D9033B012505FA04F4013C2140994078
:1006C00005FA03F3013B1340194300280BDB090132
:1006D000C9B200F1604000F5614080F8001330BC01
:1006E00070470023E6E700F00F000901C9B2024B92
:1006F0001954F4E700ED00E014ED00E0420900F0C9
:100700001F00012303FA00F0014B43F82200704759
:1007100000E100E00138B0F1807F0AD2064B58605A
:10072000F021064A82F823100020986007221A6000
:1007300070470120704700BF10E000E000ED00E0CE
:1007400030B405682C6824F480242C60046863604D
:100750008368402B05D0036899600368DA6030BC79
:10076000704703689A600368D960F8E70268D3B2FB
:10077000103B0B49A1FB03131B090A49C95CC16566
:10078000032B06D822F47F7222F003028265806D6B
:10079000704722F47F7222F0030204328265F6E78A
:1007A000ABAAAAAA944B0008836A826992B9012B6A
:1007B0000AD01BB1022B01D000207047C36A13F08E
:1007C000807F2CD100207047C36AB3F1C07F28D04E
:1007D00000207047B2F5005F05D0022B29D9032B0A
:1007E00015D000207047032B03D8DFE803F01C046A
:1007F0001C0A00207047C36A13F0807F15D10020C7
:100800007047C36AB3F1C07F11D000207047C36A3C
:1008100013F0807F01D00120704700207047012035
:100820007047012070470120704701207047012068
:10083000704701207047000070B50446FFF714FFB1
:10084000002C5DD00546002384F83430022384F860
:1008500035302268136823F00103136023681A6897
:1008600012F0010F0AD0FFF7FFFE401B0528F5D953
:1008700020236365032084F8350070BD1A68214980
:1008800011406268A0680243E068024320690243A5
:1008900060690243A0690243E0690243206A02439F
:1008A0000A43616A042916D01A602668756925F022
:1008B0000705636A1D43042B12D075612046FFF7BC
:1008C00055FFE26D3F239340836000206065012364
:1008D00084F8353070BDE16A206B01430A43E3E7D9
:1008E000A36A1D43E36A002BE7D02046FFF75CFFB5
:1008F0000028E2D040236365012084F8350070BDF4
:10090000012070BD3F8010F038B5856D90F83440FF
:10091000012C31D0012480F8344090F83540E4B205
:10092000012C04D0002380F83430022038BD044666
:10093000022084F83500002060652046FFF700FFA4
:10094000E26D3F239340AB602268136843F01603C7
:1009500013602268536943F080035361236C23B111
:100960002268136843F0080313602268136843F099
:1009700001031360002038BD022038BD90F83530E7
:10098000DBB2022B03D0802343650120704705238F
:1009900080F835300268136823F0010313600020EB
:1009A00070470000F0B583B0044600230193724BFA
:1009B0001D68724BA3FB0535AD0A876D3E68C26D9D
:1009C000082393401E4210D003681A6812F0040FE7
:1009D0000BD01A6822F004021A60C26D08239340FB
:1009E000BB60436D43F001034365E26D0123934017
:1009F0001E4209D02268526912F0800F04D0BB60F9
:100A0000636D43F002036365E26D042393401E426D
:100A100009D02268126812F0020F04D0BB60636D27
:100A200043F004036365E26D102393401E4224D01B
:100A30002268126812F0080F1FD0BB6023681A6882
:100A400012F4802F0DD01B6813F4002F04D1236CF7
:100A50009BB12046984710E0A36C73B1204698479D
:100A60000BE01A6812F4807F03D11A6822F00802A2
:100A70001A60236C0BB120469847E26D2023934007
:100A80001E4255D02268126812F0100F50D0BB6081
:100A900094F83530DBB2052B0ED023681A6812F4B7
:100AA000802F33D01B6813F4002F2AD1636C002BE6
:100AB0003ED0204698473BE02268136823F0160397
:100AC00013602268536923F080035361236CA3B140
:100AD0002268136823F008031360E26D3F239340FC
:100AE000BB60002384F83430012384F83530236D53
:100AF000002B3FD0204698473CE0A36C002BE7D169
:100B0000EBE7E36BA3B12046984711E01A6812F4B3
:100B1000807F09D11A6822F010021A60002384F83D
:100B20003430012384F83530E36B0BB1204698470D
:100B3000636DFBB1636D13F0010F17D0052384F8CB
:100B400035302268136823F001031360019B0133E1
:100B500001939D4204D323681B6813F0010FF5D164
:100B6000002384F83430012384F83530E36C0BB172
:100B70002046984703B0F0BD08000020B5814E1B09
:100B8000F0B583B0002498E04FEAD40E0EF1080EC1
:100B900050F82E2004F00706B6000F27B74022EACF
:100BA00007020F6907FA06F6324340F82E2094E058
:100BB00086681640CF6807FA0EF73E43866046689F
:100BC00026EA03034E68C6F30016A640334343608B
:100BD000C3681A408B6803FA0EF31A43C2604B686D
:100BE00013F0805F68D000230193514B5A6C42F49C
:100BF00080425A645B6C03F480430193019BA30819
:100C00009E1C4C4A52F8262004F003064FEA860E3A
:100C10000F2606FA0EF622EA0602474FB84279D0AE
:100C2000464EB04278D006F58066B04276D006F5E2
:100C30008066B04274D006F58066B04272D006F588
:100C40008066B04270D006F58066B04260D007265C
:100C500006FA0EF632430233364E46F82320384B5E
:100C60001A68EB4302EA03064F6817F4803F01D08D
:100C700045EA0206324A1660526803EA02064F68E5
:100C800017F4003F01D045EA02062D4A56609268EB
:100C900003EA02064F6817F4801F01D045EA0206F6
:100CA000274A9660D26813404E6816F4001F01D0A0
:100CB00045EA0203224AD36001340F2C36D80123BF
:100CC000A3400A6803EA0205AB42F5D14A68022A4A
:100CD0003FF45AAF122A3FF457AF06684FEA440E6A
:100CE000032202FA0EF2D24316404F6807F00307C0
:100CF00007FA0EF73E4306604E68771E012F7FF617
:100D000057AF112E3FF454AF122E7FF461AF4FE76F
:100D100006269DE700269BE7012699E7022697E72E
:100D2000032695E7042693E7052691E703B0F0BD77
:100D30000038024000380140000002400004024038
:100D4000003C014012B9090481617047816170471C
:100D500010B582B000230193194B1A6C42F08052F7
:100D60001A641B6C03F080530193019B0122154B05
:100D70001A60FFF779FC0446134B5B6813F4803F5D
:100D800008D1FFF771FC001BB0F57A7FF4D903207E
:100D900002B010BD01220D4B1A60FFF765FC04463E
:100DA000094B5B6813F4003F07D1FFF75DFC001BA4
:100DB000B0F57A7FF4D90320EAE70020E8E700BF26
:100DC0000038024040000E420070004044000E42D5
:100DD000002800F09D8070B504464F4B1B6803F05F
:100DE0000F038B4209D2CBB24B4A1370136803F046
:100DF0000F03994201D0012070BD236813F0020F48
:100E000017D013F0040F04D0444A936843F4E0531E
:100E10009360236813F0080F04D0404A936843F4AA
:100E2000604393603D4A936823F0F003A068034356
:100E300093600D46236813F0010F32D06368012BD5
:100E400021D09A1E012A25D9344A126812F0020FC5
:100E500060D032498A6822F0030213438B60FFF7A7
:100E600003FC06462D4B9B6803F00C036268B3EB52
:100E7000820F16D0FFF7F8FB801B41F288339842AF
:100E8000F0D9032070BD254A126812F4003FE0D16A
:100E9000012070BD214A126812F0007FD9D10120D3
:100EA00070BD1D4B1B6803F00F039D4209D2EAB2CF
:100EB000194B1A701B6803F00F039D4201D00120EB
:100EC00070BD236813F0040F06D0144A936823F40E
:100ED000E053E1680B439360236813F0080F07D0D9
:100EE0000E4A936823F46043216943EAC103936087
:100EF00000F040F8094B9B68C3F30313084AD35C26
:100F0000D840084B18600020FFF762FB002070BD3E
:100F100001207047012070BD003C024000380240B3
:100F20009C4B000808000020014B1868704700BF68
:100F30000800002008B5FFF7F7FF044B9B68C3F3D8
:100F40008223034AD35CD84008BD00BF003802406A
:100F5000AC4B000808B5FFF7E7FF044B9B68C3F3F1
:100F60004233034AD35CD84008BD00BF003802407A
:100F7000AC4B0008F8B55C4B9B6803F00C03082BE6
:100F800006D00C2B5AD0042B00F0AC805748F8BD8B
:100F9000554B5A6802F03F025B6813F4800F2AD069
:100FA000514B5B68C3F388131E4600275C01002584
:100FB000E41A65EB0705A90141EA9461A001001B51
:100FC00061EB0501CB0043EA5073C400A01943EB69
:100FD00007014B0243EAD05344022046194600233E
:100FE000FFF76EF9404B5B68C3F3014301335B00CD
:100FF000B0FBF3F0F8BD3C4B5B68C3F388131E46AF
:1010000000275C010025E41A65EB0705A90141EA08
:101010009461A001001B61EB0501CB0043EA507312
:10102000C400A01943EB07018B0243EA90538402EA
:10103000204619460023FFF743F9D3E72A4B5A68A5
:1010400002F03F025B6813F4800F28D0264B5B68E8
:10105000C3F388131E4600275C010025E41A65EBE4
:101060000705A90141EA9461A001001B61EB05019C
:10107000CB0043EA5073C400A01943EB07014B02B5
:1010800043EAD0534402204619460023FFF718F9DB
:10109000154B5B68C3F30273B0FBF3F0F8BD124B62
:1010A0005B68C3F388131E4600275C010025E41A21
:1010B00065EB0705A90141EA9461A001001B61EB02
:1010C0000501CB0043EA5073C400A01943EB0701AC
:1010D0008B0243EA90538402204619460023FFF70F
:1010E000EFF8D5E70248F8BD003802400024F400CC
:1010F00000127A0070B582B00446036813F0010F45
:1011000041D0A64B9B6803F00C03042B32D0A34BB9
:101110009B6803F00C03082B27D0A04B9B6803F0BF
:101120000C030C2B59D06368B3F5803F5BD0B3F54B
:10113000A02F5ED0994B1A6822F480321A601A6888
:1011400022F480221A606368002B5CD0FFF78CFACF
:101150000546924B1B6813F4003F14D1FFF784FA45
:10116000401B6428F5D903209DE18C4B5B6813F488
:10117000800FD2D0894B1B6813F4003F03D0636803
:10118000002B00F08D81236813F0020F67D0834B92
:101190009B6813F00C0F4AD0804B9B6803F00C0344
:1011A000082B3FD07D4B9B6803F00C030C2B48D0E1
:1011B000E368002B74D00122794B1A60FFF754FAD0
:1011C0000546764B1B6813F0020F60D1FFF74CFA0F
:1011D000401B0228F5D9032065E1704B5B6813F4CE
:1011E000800FA0D0C6E76D4A136843F480331360C4
:1011F000A9E76A4B1A6842F480221A601A6842F41E
:1012000080321A609FE7FFF72FFA0546634B1B6891
:1012100013F4003FB7D0FFF727FA401B6428F5D935
:10122000032040E15D4B5B6813F4800FBAD15B4B48
:101230001B6813F0020F0AD0E368012B07D00120CE
:1012400031E1564B5B6813F4800FB1D1EFE7534A9D
:10125000136823F0F803216943EAC103136023688C
:1012600013F0080F40D0636963B301224D4B1A603D
:10127000FFF7FAF90546494B5B6F13F0020F33D1C4
:10128000FFF7F2F9401B0228F5D903200BE1434A8E
:10129000136823F0F803216943EAC1031360DEE712
:1012A00000223F4B1A60FFF7DFF905463B4B1B68F6
:1012B00013F0020FD3D0FFF7D7F9401B0228F5D95E
:1012C0000320F0E00022374B1A60FFF7CDF9054606
:1012D000324B5B6F13F0020F06D0FFF7C5F9401BCE
:1012E0000228F5D90320DEE0236813F0040F79D03B
:1012F0002A4B1B6C13F0805F33D100230193274BE3
:101300001A6C42F080521A641B6C03F080530193F4
:10131000019B0125244B1B6813F4807F23D0A36815
:10132000012B34D0052B41D01C4B1A6F22F0010247
:101330001A671A6F22F004021A67A368002B3FD0C5
:10134000FFF792F90646154B1B6F13F0020F48D1B9
:10135000FFF78AF9801B41F288339842F3D90320C2
:10136000A1E00025D6E7104A136843F480731360A8
:10137000FFF77AF906460C4B1B6813F4807FCED139
:10138000FFF772F9801B0228F5D903208BE0034A8E
:10139000136F43F001031367CFE700BF003802402B
:1013A00000004742800E474200700040404B1A6FD9
:1013B00042F004021A671A6F42F001021A67BCE792
:1013C000FFF752F906463A4B1B6F13F0020F08D095
:1013D000FFF74AF9801B41F288339842F3D9032082
:1013E00061E0E5B9A369002B5CD0314A926802F054
:1013F0000C02082A59D0022B17D000222D4B1A605C
:10140000FFF732F904462A4B1B6813F0007F45D0E2
:10141000FFF72AF9001B0228F5D9032043E0244AEC
:10142000136C23F080531364DCE70022214B1A6015
:10143000FFF71AF905461E4B1B6813F0007F06D014
:10144000FFF712F9401B0228F5D903202BE0E369CE
:10145000226A1343626A43EA8213A26A5208013A7B
:1014600043EA0243E26A43EA0263226B43EA0273FD
:101470000F4A536001220F4B1A60FFF7F5F804463C
:101480000B4B1B6813F0007F06D1FFF7EDF8001B34
:101490000228F5D9032006E0002004E0002002E045
:1014A000012000E0002002B070BD0120FBE700BF7A
:1014B000003802406000474230B4036A23F0010361
:1014C0000362036A4468826922F073020D682A434A
:1014D00023F002038D682B430F4DA8421AD005F567
:1014E0008065A84214D000255DB123F00803CD68C3
:1014F0002B4323F0040324F440744D692C438D697D
:101500002C43446082614A684263036230BC704786
:101510000125E9E70125E7E70000014030B4036A4F
:1015200023F480730362036A4468C26922F0730281
:101530000D682A4323F400738D6843EA0523114D97
:10154000A8421DD005F58065A84217D0002575B1C9
:1015500023F40063CD6843EA052323F4806324F475
:1015600040544D6944EA05148D6944EA0514446009
:10157000C2614A68C263036230BC70470125E6E776
:101580000125E4E70000014030B4036A23F48053EE
:101590000362036A4468C26922F4E6420D6842EAC3
:1015A000052223F400538D6843EA05330C4DA8420D
:1015B00013D005F58065A8420DD0002525B124F48F
:1015C00080444D6944EA85144460C2614A680264FB
:1015D000036230BC70470125F0E70125EEE700BF4C
:1015E0000000014030B4046A24F0100404628469ED
:1015F000056A24F4407444EA022222F470421B0378
:101600009BB21A4325F0A005090101F0A0010D438A
:101610008261056230BC704730B4046A24F480747F
:101620000462C469056A24F00304224322F0F00234
:101630001B01DBB21A4325F42065090201F4206185
:101640000D43C261056230BC704730B4046A24F4B3
:1016500080540462C469056A24F4407444EA022296
:1016600022F470421B039BB21A4325F42045090360
:1016700001F420410D43C261056230BC70477047E0
:101680000368454A90424AD0B0F1804F49D0A2F554
:101690007C42904247D002F58062904245D002F5EC
:1016A0008062904243D002F57842904235D00022C9
:1016B0001AB123F070034A681343374A90423AD074
:1016C000B0F1804F50D0A2F57C4290424ED002F54E
:1016D000806290424CD002F5806290424AD002F57E
:1016E0007842904248D002F57052904246D002F5BE
:1016F0008062904244D002F58062904242D0A2F5CE
:101700009832904240D002F5806290423ED002F57D
:10171000806290420DD000220EE00122C8E7012233
:10172000C6E70122C4E70122C2E70122C0E7012285
:10173000BEE7012200E001221AB123F44073CA6817
:10174000134303608B68C3620B688362124B984239
:1017500020D003F5806398421AD000230BB10B69A7
:1017600003630123436170470122E5E70122E3E7B8
:101770000122E1E70122DFE70122DDE70122DBE7C9
:101780000122D9E70122D7E70122D5E70122D3E7D9
:101790000123E3E70123E1E700000140A8B110B510
:1017A000044690F839305BB1022384F83930211DAA
:1017B0002068FFF765FF012384F83930002010BD51
:1017C00080F8383001F0FEF8EEE701207047A8B14C
:1017D00010B5044690F839305BB1022384F83930F3
:1017E000211D2068FFF74CFF012384F839300020C9
:1017F00010BD80F83830FFF742FFEEE70120704758
:10180000002847D0F8B505460C4690F83930002B33
:101810003BD0022385F83930294651F8042B9368D0
:1018200023F0070393602868FFF72AFF286886687B
:101830008369026A21680E4323F4407323F0030393
:10184000A168A76941EA07210B4323F47C4323F0F5
:10185000FC03E168E76941EA07210B432769216A34
:10186000090341EA07110B4322F0AA026168646987
:1018700041EA04110A43866029688B612B681A6269
:10188000012385F839300020F8BD80F8383001F0A8
:10189000CFF8BEE70120704770B4046A24F0010459
:1018A00004628469056A234EB04230D0B0F1804FA3
:1018B0002FD0A6F57C46B0422DD006F58066B0420A
:1018C0002BD006F58066B04229D006F57846B042A6
:1018D00027D006F57056B04225D0A6F59436B04212
:1018E00013D000260EBB24F0030242F0010222F0C6
:1018F000F0021B01DBB2134325F00A0201F00A01DA
:1019000011438361016270BC70470126EAE701263A
:10191000E8E70126E6E70126E4E70126E2E70126FB
:10192000E0E70126DEE70126DCE724F0030422439A
:10193000DDE700BF0000014038B590F83830012BDA
:1019400058D00D460446012380F83830022380F831
:101950003930DAB1042A2AD0082A3AD0CB684A684A
:1019600009680068FFF771FE2268D36923F44063B9
:10197000D3612268D369A96843EA0123D3610123B3
:1019800084F83930002084F8380038BDCB684A68C4
:1019900009680068FFF780FF2268936923F00C0351
:1019A000936122689369A9680B439361E7E7CB6869
:1019B0004A6809680068FFF715FE2268936923F4F6
:1019C0004063936122689369A96843EA01239361A4
:1019D000D5E7CB684A6809680068FFF71DFE2268F2
:1019E000D36923F00C03D3612268D369A9680B4340
:1019F000D361C4E7022038BD30B4036A23F010037A
:101A00000362036A4468826922F4E6420D6842EA8E
:101A1000052223F020038D6843EA0513114DA842E7
:101A20001DD005F58065A84217D0002575B123F0BB
:101A30008003CD6843EA051323F0400324F4406497
:101A40004D6944EA85048D6944EA850444608261F5
:101A50004A688263036230BC70470125E6E70125CE
:101A6000E4E700BF0000014038B590F83830012BA2
:101A700066D00D460446012380F83830022380F8F2
:101A800039300C2A1AD8DFE802F007191919201981
:101A900019193419191947000068FFF70DFD22685C
:101AA000936943F0080393612268936923F0040368
:101AB00093612268936929690B439361012384F838
:101AC0003930002084F8380038BD0068FFF794FFF3
:101AD0002268936943F4006393612268936923F455
:101AE0008063936122689369296943EA01239361C2
:101AF000E4E70068FFF712FD2268D36943F00803AA
:101B0000D3612268D36923F00403D3612268D369C7
:101B100029690B43D361D1E70068FFF735FD2268DF
:101B2000D36943F40063D3612268D36923F48063EB
:101B3000D3612268D369296943EA0123D361BDE7F0
:101B4000022038BD90F83830012B22D030B4012269
:101B500080F83820022380F839300468636823F065
:101B600070036360046863680D682B4363600468F6
:101B7000A36823F08003A3600468A36849680B434B
:101B8000A36080F83920002380F83830184630BC34
:101B900070470220704790F83830012B25D0012380
:101BA00080F83830CB6823F440738A68134323F4F9
:101BB00080634A68134323F400630A68134323F4E1
:101BC00080530A69134323F400534A69134323F4EF
:101BD00080438A69134323F4004313430268536428
:101BE000002380F83830184670470220704702689A
:101BF000D36823F0C003D360202380F839307047C6
:101C00000268D36823F49073D3600268536923F0A9
:101C100001035361202380F83A30704790F839303F
:101C2000DBB2212B01D0022070478368B3F5805FBF
:101C300017D00268036A591C01621B785360C38C79
:101C40009BB2013B9BB2C384DBB90268D36823F02B
:101C50008003D3600268D36843F04003D360002060
:101C60007047036A02681B88C3F308035360036963
:101C70001BB9036A02330362E1E7036A01330362BB
:101C8000DDE70020704700002DE9F04704460268B8
:101C9000136923F44053C1680B4313610168CB6897
:101CA00023F4164323F00C03826800690243606941
:101CB0000243E06902431343CB602268536923F473
:101CC0004073A1690B435361E369B3F5004F62D0E0
:101CD000D4F80080BB4B984500F01B8103F580636E
:101CE000984500F01681FFF725F900EB800000EB26
:101CF00080006568AD00B0FBF5F5B34FA7FB053577
:101D00006D092E01FFF716F900EB800000EB800053
:101D10006568AD00B0FBF5FAFFF70CF900EB800049
:101D200000EB80006568AD00B0FBF5F5A7FB05355D
:101D30006D094FF0640909FB15A52D013235A7FB8C
:101D400005356D0905F0F0053544FFF7F3F800EBB4
:101D5000800000EB80006668B600B0FBF6F6FFF787
:101D6000E9F800EB800000EB800063689B00B0FBAB
:101D7000F3F0A7FB0030400909FB10694FEA09198D
:101D800009F13209A7FB0937C7F343172F44C8F8F5
:101D90000870BDE8F087D4F8008003F1804303F5B4
:101DA000104398455CD003F58063984558D0FFF701
:101DB000C1F800EB800000EB800065686D00B0FBAF
:101DC000F5F5814FA7FB05356D092E01FFF7B2F838
:101DD00000EB800000EB800065686D00B0FBF5FA59
:101DE000FFF7A8F800EB800000EB800065686D004D
:101DF000B0FBF5F5A7FB05356D094FF0640909FB4C
:101E000015A5ED003235A7FB05356D096D0005F40C
:101E1000F8753544FFF78EF800EB800000EB80008A
:101E200066687600B0FBF6F6FFF784F800EB8000FA
:101E300000EB800063685B00B0FBF3F3A7FB0323B8
:101E40005B0909FB13694FEAC90909F13209A7FBCC
:101E50000937C7F342172F44C8F80870BDE8F08768
:101E6000FFF778F800EB800000EB800065686D00FC
:101E7000B0FBF5F5544FA7FB05356D092E01FFF7B3
:101E800069F800EB800000EB800065686D00B0FB36
:101E9000F5FAFFF75FF800EB800000EB8000656863
:101EA0006D00B0FBF5F5A7FB05356D094FF0640932
:101EB00009FB15A5ED003235A7FB05356D096D0051
:101EC00005F4F8753544FFF745F800EB800000EBAA
:101ED000800066687600B0FBF6F6FFF73BF800EB93
:101EE000800000EB800063685B00B0FBF3F3A7FBAE
:101EF00003235B0909FB13694FEAC90909F1320998
:101F0000A7FB0937C7F342172F44C8F80870BDE88C
:101F1000F087FFF71FF800EB800000EB800065689A
:101F2000AD00B0FBF5F5284FA7FB05356D092E0177
:101F3000FFF710F800EB800000EB80006568AD0053
:101F4000B0FBF5FAFFF706F800EB800000EB80002D
:101F50006568AD00B0FBF5F5A7FB05356D094FF0E1
:101F6000640909FB15A52D013235A7FB05356D095F
:101F700005F0F0053544FEF7EDFF00EB800000EBC7
:101F800080006668B600B0FBF6F6FEF7E3FF00EBF4
:101F9000800000EB800063689B00B0FBF3F3A7FBBD
:101FA00003235B0909FB13694FEA091909F1320997
:101FB000A7FB0937C7F343172F44C8F80870BDE8DB
:101FC000F08700BF001001401F85EB512DE9F04163
:101FD00005460F4616469846069C2B681B6837EA4E
:101FE00003030CBF01230023B3421ED1B4F1FF3F12
:101FF000F3D02CB1FEF738FBA0EB08008442ECD202
:102000002A68D36823F4D073D3602A68536923F015
:1020100001035361202385F8393085F83A300023D5
:1020200085F838300320BDE8F0810020BDE8F0815C
:1020300058B310B5044690F839300BB3242384F814
:1020400039302268D36823F40053D3602046FFF769
:102050001BFE2268136923F49043136122685369BD
:1020600023F02A0353612268D36843F40053D360FA
:102070000020E063202384F8393084F83A3010BD22
:1020800080F8383000F074FDD8E7012070472DE962
:10209000F04182B01E4690F83930DBB2202B04D0DC
:1020A0000223184602B0BDE8F08104460D46904672
:1020B000002955D0002A55D090F83830012B01D195
:1020C0000223EEE7012380F838300023C363212385
:1020D00080F83930FEF7C8FA0746A4F82480A4F83F
:1020E000268010E000963B46002280212046FFF724
:1020F0006DFF002838D122682B88C3F30803536092
:102100002369CBB90235E38C9BB2BBB1E38C9BB2A4
:10211000013B9BB2E384A368B3F5805FE2D00096F5
:102120003B46002280212046FFF750FFF0B923688C
:102130002A785A600135E6E70135E4E700963B4628
:10214000002240212046FFF741FF034608B1032348
:10215000A7E7202284F83920002284F83820A0E75D
:1021600001239EE701239CE703239AE7032398E7D3
:102170002DE9F04182B01E4690F83A30DBB2202BB8
:1021800003D0022002B0BDE8F08104460D4690461F
:10219000002958D0002A58D090F83830012B01D1AE
:1021A0000220EFE7012380F838300023C3632223A5
:1021B00080F83A30FEF758FA0746A4F82C80A4F8C5
:1021C0002E801DE000963B46002220212046FFF78E
:1021D000FDFE00283BD1236933B923685B68C3F354
:1021E000080325F8023B0BE023685B68DBB225F8A7
:1021F000013B05E023685B6803F07F032B7001352A
:10220000E38D9BB2C3B1E38D9BB2013B9BB2E385EF
:10221000A368B3F5805FD5D000963B46002220210D
:102220002046FFF7D3FEA0B92369002BE2D1236833
:102230005B682B700135E3E7202384F83A300020F7
:1022400084F838009EE701209CE701209AE70320EC
:1022500098E7032096E7000038B590F83940E4B2DB
:10226000202C01D0022038BD002931D0002A31D0E5
:1022700090F83830012B01D1022038BD13460446B6
:10228000012280F8382001628384C3840025C5635D
:10229000212280F83920026B0F48D063226B0F484F
:1022A0001064226B0E48D064226B156522680432DC
:1022B000206BFEF729FB23686FF040021A6084F858
:1022C00038502268536943F080035361284638BD73
:1022D000012038BD012038BD8D230008D923000816
:1022E000C124000830B583B090F83A40E4B2202C05
:1022F00002D0022003B030BD00293DD0002A3DD0DD
:1023000090F83830012B01D10220F3E713460A463A
:102310000446012180F83810826283850025C56358
:10232000222180F83A10416B1548C863616B15484B
:102330000864616B1448C864616B0D6521680431E1
:10234000606BFEF7E1FA019523681A6801925A68FA
:102350000192019A84F83850DA6842F48072DA60A7
:102360002268536943F0010353612268536943F0C3
:10237000400353612846BDE70120BBE70120B9E7D0
:10238000E3230008B7240008C124000808B5836BC4
:102390000268126812F4807F0CD10022DA84196876
:1023A0004A6922F080024A611A68D36843F0400308
:1023B000D36008BD184601F087F808BD08B501686C
:1023C000CB6823F04003CB60202380F8393001F044
:1023D0007BF8002008BD704708B5806BFFF7FBFF56
:1023E00008BD08B5836B0268126812F4807F13D1B0
:1023F0000022DA851968CA6822F48072CA601968F6
:102400004A6922F001024A6119684A6922F04002D1
:102410004A61202283F83A20184601F071F908BD7C
:1024200008B590F83A30DBB2222B01D0022008BD6B
:102430008368B3F5805F0FD003690BBB836A5A1CB6
:102440008262026852681A70C38D9BB2013B9BB2D4
:10245000C385F3B1002008BD826A036943B90368EC
:102460005B68C3F308031380836A02338362EBE77C
:1024700003685B68DBB21380836A01338362E3E73E
:10248000826A531C836203685B6803F07F031370E6
:10249000DAE70268D36823F49073D3600268536963
:1024A00023F001035361202380F83A3001F028F92A
:1024B000002008BD704708B5806BFFF7FBFF08BD23
:1024C00010B5846B23685A6994F83930DBB2212B3C
:1024D00010D023685A6902F0400294F83A30DBB217
:1024E000222B11D0E36B43F01003E363204601F08D
:1024F000C1F910BD02F08002002AEAD00023E38473
:102500002046FFF774FBE4E7002AEBD00023E385C5
:102510002046FFF775FBE5E710B50446026813682F
:10252000D168526913F00F0005D113F0200F02D0CB
:1025300011F0200F53D1002867D012F0010202D110
:1025400011F4907F61D013F0010F06D011F4807F59
:1025500003D0E06B40F00100E06313F0040F04D0FF
:102560001AB1E06B40F00200E06313F0020F04D0F8
:102570001AB1E06B40F00400E06313F0080F04D0E0
:102580001AB1E26B42F00802E263E26B002A48D023
:1025900013F0200F02D011F0200F24D123685B69C3
:1025A00003F04003E26B12F0080F00D13BB320466A
:1025B000FFF726FB23685A6912F0400F1BD05A69B7
:1025C00022F040025A61636B8BB11A4A1A65606B44
:1025D000FEF7D4F928B3606B036D984710BD204611
:1025E000FFF71EFF10BD2046FFF71AFFD6E7204673
:1025F00001F040F910BD204601F03CF910BD204625
:1026000001F038F90023E36310BD13F0800F02D00E
:1026100011F0800F06D113F0400F02D011F0400FDF
:1026200004D110BD2046FFF7F9FA10BD2046FFF790
:10263000C5FEF6E73926000808B5806B0023C38580
:10264000C38401F017F908BD30B58BB000240594A0
:1026500006940794089409940194224B1A6B42F053
:1026600004021A631A6B02F004020192019A0294A6
:102670001A6B42F080021A631A6B02F08002029217
:10268000029A03941A6B42F001021A631A6B02F069
:1026900001020392039A04941A6B42F002021A6335
:1026A0001B6B03F002030493049B0F4D2246202171
:1026B0002846FEF747FB4FF4005305930B4B069358
:1026C000079405A90A48FEF75BFA20230593012326
:1026D00006930794089405A92846FEF751FA0BB013
:1026E00030BD00BF00380240000002400000211051
:1026F0000008024010B582B0002401940D4B1A6B03
:1027000042F400121A631B6B03F400130193019B44
:10271000224621461020FDF7BFFF1020FDF7EEFFF7
:10272000224621461120FDF7B7FF1120FDF7E6FFF5
:1027300002B010BD0038024008B50848084B0360DD
:102740004FF4E133436000238360C36003610C22D4
:1027500042618361C361FFF76BFC08BD8003002009
:102760000044004030B595B00024129413940B94AB
:102770000C940D940E940F94109411940794089453
:1027800009940A9400940194029403940494059487
:102790000694234D234B2B606C60AC60EC602C6185
:1027A0006C612846FEF7FAFF2846FFF710F81294EE
:1027B000139412A92846FFF7C5F960230B930C94D4
:1027C0000D940E940F941094119422460BA9284650
:1027D000FFF74AF904220BA92846FFF745F90794A9
:1027E0000123089309940A94082207A92846FFF7B1
:1027F000A3F80C2207A92846FFF79EF8009401943D
:102800000294039404944FF400530593069469468C
:102810002846FFF7C0F9284600F07CF915B030BD16
:10282000080300200000014030B58DB024220021B3
:1028300003A801F079F80024019402940B4D0C4B8D
:102840002B606C60AC60EC602C61012303930593FA
:10285000099303A92846FEF7D3FF0194029401A926
:102860002846FFF76FF90DB030BD00BF6C020020A5
:10287000000C004030B58DB02422002103A801F0E7
:1028800053F80024019402940B4D4FF080432B60C9
:102890006C60AC60EC602C61012303930593099399
:1028A00003A92846FEF7ACFF0194029401A928462B
:1028B000FFF748F90DB030BD4403002030B595B0A6
:1028C0003422002107A801F02FF800240294039479
:1028D00004940594069400941D4B1A6C42F08052A7
:1028E0001A641B6C03F080530093009B0194194BF6
:1028F0001A6842F440421A601B6803F44043019393
:10290000019B012307934FF48033089302250D9513
:102910004FF480030E9304230F93B4231093119567
:102920001295139507A8FEF7E5FBFEF711FA0F23A2
:102930000293039504944FF4A05305934FF48053EE
:102940000693052102A8FEF743FA15B030BD00BF7B
:10295000003802400070004008B5FDF75FFEFFF749
:10296000ADFFFFF771FEFFF7C5FEFFF7E5FEFFF7CE
:10297000F9FEFFF759FFFFF77DFF00F0EDFCFEE7E2
:102980007047000000B583B0002100910C4B5A6CD9
:1029900042F480425A645A6C02F480420092009AD7
:1029A00001911A6C42F080521A641B6C03F0805340
:1029B0000193019B0720FDF75DFE03B05DF804FB6A
:1029C0000038024000B589B00023039304930593B7
:1029D000069307930268144B9A4202D009B05DF83F
:1029E00004FB0021019103F59C335A6C42F0010273
:1029F0005A645A6C02F001020192019A02911A6B18
:102A000042F001021A631B6B03F001030293029B65
:102A10004FF440630393022304930123079303A914
:102A20000248FEF7ADF8D9E700000140000002407F
:102A300070B58AB000230593069307930893099312
:102A40000368B3F1804F04D02E4A934239D00AB0C4
:102A500070BD0024009403F50E331A6C42F001029D
:102A60001A641A6C02F001020092009A01941A6B27
:102A700042F001021A631A6B02F001020192019AFC
:102A800002941A6B42F002021A631B6B03F00203FA
:102A90000293029B4FF400430593022606960125FC
:102AA000099505A91848FEF76BF84FF400730593D4
:102AB000069607940894099505A91448FEF760F84E
:102AC000C5E700210391124B1A6C42F008021A6408
:102AD0001A6C02F008020392039A04911A6B42F0F6
:102AE00001021A631B6B03F001030493049B03238D
:102AF000059302230693099305A90348FEF740F8BE
:102B0000A5E700BF000C00400000024000040240A6
:102B10000038024000B587B000230193029303936D
:102B20000493059302680F4B9A4202D007B05DF8F8
:102B300004FB002300930C4B1A6B42F001021A6352
:102B40001B6B03F001030093009B4FF44073019350
:102B5000022302930123059301A90448FEF710F80C
:102B6000E4E700BF000001400038024000000240DE
:102B700030B589B00023039304930593069307931C
:102B80000268344B9A4201D009B030BD044600259A
:102B9000019503F5FA331A6C42F400321A641A6C88
:102BA00002F400320192019A02951A6B42F001027E
:102BB0001A631B6B03F001030293029B0C23039324
:102BC000022304930123059303230693072307930A
:102BD00003A92148FDF7D4FF2048214B03604FF0A3
:102BE0000063436040238360C5604FF480630361EA
:102BF00045618561C56105624562FDF71DFE10BB3B
:102C0000164B23639C631748174B03604FF0006318
:102C1000436000238360C3604FF4806202614361BC
:102C20008361C36103624362FDF706FE70B90D4B19
:102C300063639C63002211462620FDF72DFD2620AC
:102C4000FDF75CFDA0E7FFF79BFED9E7FFF798FED5
:102C5000EDE700BF0044004000000240A802002051
:102C6000A06002400C020020886002407047FEE72E
:102C7000FEE7FEE7FEE770477047704708B5FDF7CF
:102C8000E7FC08BD08B50248FDF78CFE08BD00BF93
:102C90000C02002008B50248FDF784FE08BD00BF05
:102CA000A802002008B50248FFF736FC08BD00BFA7
:102CB000800300200F49D1F8883043F47003C1F835
:102CC00088300D4B1A6842F001021A6000209860AB
:102CD0001A6822F0847222F480321A60074A5A601D
:102CE0001A6822F480221A60D8604FF000638B606B
:102CF000704700BF00ED00E00038024010300024B3
:102D000008B5024B186800F032FB08BDA004002093
:102D1000F0B583B06649674800F046FB0546664C4F
:102D2000214600F0EFFB2146284600F0EBFB214650
:102D3000284600F0E7FB6149284600F0E3FB6049C4
:102D4000284600F0DFFB5F4F2C1D07F1300E3E469A
:102D50000FCE20606160A260E36037461034764594
:102D6000F5D13068206033792371284600F052FB9A
:102D70005549284600F0C6FB5449284600F0C2FBDE
:102D80000223009301231A465149284600F0BAFB5A
:102D9000474C204600F036FB05464E4800F0C6FB87
:102DA0004D4800F0C3FB4D49284600F0ABFB4C48B2
:102DB00000F0BCFB21463F4800F0F6FA0446494DBE
:102DC000061D05F1300E2F460FCF30607160B260E6
:102DD000F3603D4610367745F5D107CD3060716020
:102DE000B2602B783373204600F04CFB94F8D4305B
:102DF000DBB2032BFAD13C49204600F0ADFB94F83E
:102E0000D430DBB2032BFAD13849204600F0A4FBC2
:102E100094F8D430DBB2032BFAD1254800F0F2FA53
:102E20000446334800F0B0FB94F8D430DBB2032BF7
:102E3000FAD1304800F0A8FB94F8D430DBB2032B71
:102E4000FAD12D4800F0A0FB2C4800F09DFB94F82F
:102E5000D430DBB2032BFAD1294800F095FB94F86B
:102E6000D430DBB2032BFAD1114C2146114800F0CB
:102E70009BFA0546234900F0A3FB2349284600F0AE
:102E80009FFB204600F0BEFA204800F0B3FB20482C
:102E900000F0B0FB114800F049FB4FF4FA7000F06D
:102EA00078FA1C4B186800F069FA03B0F0BD00BF57
:102EB00080030020C8030020B44B0008F84B000832
:102EC0001C4C00085C4C0008944C0008A44C000802
:102ED000C44C0008F04C0008044D0008284D0008C0
:102EE000604D0008A44D0008E44D0008F84D0008AE
:102EF0001C4E0008344E0008584E0008844E00084E
:102F0000904E0008B04E0008C44E0008E84E00087D
:102F1000004F0008A00400202DE9F04FADF5017D21
:102F2000BD49BE4800F040FA0446BD4D294600F0B8
:102F3000E9FA2946204600F0E5FA2946204600F045
:102F4000E1FAB849204600F0DDFA012513E0B64960
:102F5000204600F0D7FA2A46B449204600F0D2FABB
:102F6000691C89B2204600F061FB0246B049204648
:102F700000F0C8FA0435052DE9DD032513E0AA4960
:102F8000204600F0BFFA2A46A849204600F0BAFAC7
:102F9000691C89B2204600F049FB0246A44920463C
:102FA00000F0B0FA023D002DE9DCA249204600F015
:102FB000A9FADFF8C4B25946204600F0A3FADFF8B8
:102FC000BC924946204600F09DFA67A9204600F0D1
:102FD000B5FB4EA9204600F0B1FBDFF8A4824146C4
:102FE000204600F08FFA944F67AA3946204600F039
:102FF00089FA924D4EAA2946204600F083FA90495C
:10300000204600F07FFADFF87CA25146204600F00F
:1030100079FA4946204600F075FA35A9204600F0B5
:10302000A9FB4146204600F06DFA35AA39462046F4
:1030300000F068FA784E304600F0E4F9814800F07C
:1030400075FA584600F072FA484600F06FFA67A821
:1030500000F0AAFB4EA800F0A7FB404600F066FA7D
:1030600067A9384600F062FA4EA9284600F05EFAD9
:10307000754800F05BFA504600F058FA484600F0F8
:1030800055FA35A800F0AEFB404600F04FFA35A9DE
:10309000384600F04BFADFF884813146404600F0B4
:1030A00083F90446694900F02DFADFF8DCB159468E
:1030B000204600F027FADFF8D4A133AB34AA5146FA
:1030C000204600F0ABFB624F3946204600F01AFA6A
:1030D000DFF8BC91349A4946204600F013FA339A3F
:1030E0004946204600F00EFA349A339B1A44594957
:1030F000204600F007FA5849204600F003FA01ABD9
:103100001AAA5649204600F089FB3946204600F0AD
:10311000F9F91AAA2946204600F0F4F901AA29462D
:10312000204600F0EFF9DFF86C9101AB1AAA49468E
:10313000204600F0E7F9304600F064F9484800F016
:10314000F5F9584600F0F2F933AA34A9504600F0D8
:1031500079FB384600F0EAF9424C3499204600F0F9
:10316000E5F93399204600F0E1F93499339B19448D
:103170003D4800F0DBF9384800F0D8F901AA1AA957
:10318000364800F05FFB384600F0D0F91AA928460F
:1031900000F0CCF901A9284600F0C8F901AA1AA943
:1031A000484600F0C3F9314800F0C0F9304800F05B
:1031B000BDF93146404600F0F7F80446012527E006
:1031C0002C49204600F0C8F994F8D430DBB2032B28
:1031D000FAD12A461549204600F0BEF994F8D430B9
:1031E000DBB2032BFAD1691C89B2204600F05CFAED
:1031F000024694F8D530DBB2032BFAD10C492046B5
:1032000000F080F994F8D430DBB2032BFAD1043506
:10321000052DD5DD032567E080030020C8030020CD
:10322000244F0008684F0008A84F0008BC4F000852
:10323000F04F0008005000087C5000088C50000837
:103240009450000804510008185100082C5100083F
:103250008051000894510008A4510008E051000872
:10326000045200081852000820520008284D000897
:103270003052000874520008145000084C500008E6
:1032800064500008A85000083C510008785100081C
:103290008C510008E85100081849204600F05CF9FC
:1032A00094F8D430DBB2032BFAD12A4614492046D5
:1032B00000F052F994F8D430DBB2032BFAD1691C38
:1032C00089B2204600F0F0F9024694F8D530DBB21E
:1032D000032BFAD10B49204600F014F994F8D430AE
:1032E000DBB2032BFAD1023D002DD5DC064800F0FD
:1032F0001DF90DF5017DBDE8F08F00BF7452000887
:10330000BC4F0008F04F0008284D000808B52022E7
:103310000549064800F028F8054B1860FFF7F8FC4F
:10332000FFF7FAFD08BD00BF00000240C003002007
:10333000A004002010B504460449054800F034F804
:103340002246044900F0DEF810BD00BF80030020D3
:10335000C80300208C50000808B5FFF7D7FF4FF4D2
:103360007A7000F016F808BD82800160704708B5D9
:10337000012281880068FDF7E5FC08BD08B5002240
:1033800081880068FDF7DEFC08BD08B5FDF76CF923
:1033900008BD38B50546FFF7F8FF0446FFF7F5FF0F
:1033A000001BA842FAD338BD10B401604FF6FF737A
:1033B000C0F8CC304FF0FF33C0F8D030012380F894
:1033C000D43080F8D53000230C4A1288144693423A
:1033D0000BDA0B4A52F823201268914201D00133D4
:1033E000F2E7074A42F8230005E00132034B1A8056
:1033F000034B43F824005DF8044B7047F8010020AC
:103400007C05002008B501460148FFF7CDFF08BD47
:10341000A404002070B50546044654F8046B204609
:10342000FCF7F6FED5F8CC3082B221463046FEF7E6
:103430002EFE022808D003280AD0012817D010B980
:10344000032385F8D43070BD022385F8D43070BDD5
:10345000042385F8D4302B68002283F838202B68A9
:10346000202283F83920054800F00CFA70BD0523AE
:1034700085F8D430024800F005FA70BD24530008E6
:103480004853000890F8D430DBB2022B19D070B545
:103490000446054655F8046B2846FCF7B9FE82B28F
:1034A00029463046FEF7D8FE012803D0022384F8CF
:1034B000D43070BD052384F8D430024800F0E2F91E
:1034C00070BD70476C53000838B50546002400E015
:1034D00001340A4B1B889C420EDA094B53F8240036
:1034E0000368AB42F4D1FFF70BFC054B53F82430D3
:1034F000032283F8D420EBE738BD00BFF801002099
:103500007C0500200EB410B583B0044605AA52F81D
:10351000041B0192043000F027FA2046FFF77AFFDF
:1035200003B0BDE8104003B0704700000FB410B501
:1035300082B004AA52F8041B0192064C204600F007
:1035400013FA201FFFF766FF02B0BDE8104004B079
:10355000704700BFA80400200EB410B583B090F8E7
:10356000D430DBB2022B09D0044606AA0192059999
:10357000043000F0F9F92046FFF784FF03B0BDE8FE
:10358000104003B0704700000FB410B582B00A4B72
:1035900093F8D430DBB2022B09D005AA0192074C74
:1035A0000499204600F0E0F9201FFFF76BFF02B0FE
:1035B000BDE8104004B07047A4040020A804002017
:1035C0000EB430B504460399FFF7C6FFFFF7DDFEE2
:1035D000054694F8D430DBB2032B06D0FFF7D5FEB6
:1035E000401BD4F8CC309842F3D9BDE8304003B04A
:1035F000704700000FB410B50298FFF7C5FFFFF742
:10360000C4FE0446084B93F8D430DBB2032B07D03A
:10361000FFF7BBFE001B044BD3F8CC309842F1D926
:10362000BDE8104004B07047A404002070B5054602
:103630000E4600F168042046FCF7EAFD0246002130
:10364000204600F071F9D5F8D0303246214628687E
:10365000FEF78EFD022809D003280BD0012818D0D0
:1036600010B9032385F8D530204670BD022385F8B4
:10367000D530F9E7042385F8D5302B68002283F88C
:1036800038202B68202283F83920054800F0FAF80A
:10369000EAE7052385F8D530024800F0F3F8E3E7C0
:1036A000B4520008D852000890F8D530DBB2022B93
:1036B00018D070B50E46044600F168052846FCF7A0
:1036C000A7FD02460021284600F02EF93246294681
:1036D0002068FEF707FE012806D0022384F8D530C3
:1036E000284670BD68307047052384F8D5300248FD
:1036F00000F0C8F8284670BDFC5200087047000072
:1037000038B50546002400E001340A4B1B889C4272
:103710000EDA094B53F824000368AB42F4D1FFF7EB
:10372000EDFF054B53F82430032283F8D520EBE757
:1037300038BD00BFF80100207C05002070B50646AA
:103740000D460121FFF772FF03782B70002406E07D
:10375000013401213046FFF769FF03782B552A1900
:103760002B5D202B03D00D2B01D00A2BF0D1002391
:10377000137070BD70B506460D460121FFF756FF68
:1037800003782B70002406E0013401213046FFF756
:103790004DFF03782B552A192B5D0D2B01D00A2BD9
:1037A000F2D10023137070BD38B5054601210C48D5
:1037B000FFF73CFF03782B70002406E00134012161
:1037C0000748FFF733FF03782B552A192B5D202B71
:1037D00003D00D2B01D00A2BF0D10023137038BD7C
:1037E000A404002038B5054601210B48FFF71EFF51
:1037F00003782B70002406E0013401210648FFF70E
:1038000015FF03782B552A192B5D0D2B01D00A2BA0
:10381000F2D10023137038BDA40400200EB430B5DB
:103820009AB01DAC54F8045B01A9FFF7A3FF009404
:103830002246294601A800F0C5F81AB0BDE830407C
:1038400003B070470FB430B59BB01EAC54F8045BA6
:1038500001A90748FFF78EFF00942246294601A8D8
:1038600000F0B0F81BB0BDE8304004B0704700BFB6
:10387000A404002008B5024800F004F808BD00BF09
:103880008C52000808B5FFF755FD08BDDFF834D0AD
:10389000002103E00C4B5B58435004310B480C4BA8
:1038A00042189A42F6D30B4A02E0002342F8043B46
:1038B000094B9A42F9D3FFF7FDF900F011F8FFF731
:1038C0004BF87047000002206055000800000020FF
:1038D000DC010020DC010020D0050020FEE7000014
:1038E00070B50D4E0D4CA41BA4100025A54209D1A6
:1038F0000B4E0C4C01F03CF9A41BA4100025A54272
:1039000005D170BD56F8253098470135EEE756F8D9
:10391000253098470135F2E75855000858550008FA
:10392000585500085C55000802440346934200D1F4
:10393000704703F8011BF9E710B59AB04FF4027411
:10394000009104916FF00041029105914FF6FF71D3
:10395000ADF80E106946ADF80C4000F099F8009BE8
:1039600000221A701AB010BD13460A4601460248DA
:103970000068FFF7E1BF00BF0C00002070B59AB0EF
:1039800004461E4608464FF401731546ADF80C3048
:1039900000910491FCF73CFC094B099300214FF680
:1039A000FF73019005900D911291ADF80E302A46EB
:1039B00033466946204600F0B9F91AB070BD00BF21
:1039C0001146000813460A46014602480068FFF700
:1039D000D5BF00BF0C0000202DE9F0478E689E4245
:1039E00082460C469146984635D88A8912F4906FE3
:1039F00031D0256809696F1A6569022305EB450511
:103A000095FBF3F508F101033B449D4238BF1D4689
:103A1000530531D5294600F0F1FF064650B90C2375
:103A2000CAF80030A38943F04003A3814FF0FF3070
:103A3000BDE8F0873A46216900F06CFFA38923F4C2
:103A4000906343F08003A381266165613E44ED1BD2
:103A50002660A5604646464528BF4646324649464A
:103A6000206800F062FFA3689B1BA36023681E44CC
:103A700026600020BDE8F0872A4601F01DF80646C2
:103A80000028E1D12169504600F06AFFC7E7000035
:103A90002DE9F04F9DB0804603938B891C060D469F
:103AA00016460FD50B696BB9402100F0A7FF2860BF
:103AB000286128B90C23C8F800304FF0FF30C5E06A
:103AC00040236B610023099320238DF82930302394
:103AD0008DF82A304FF0010B37463C4614F8013B75
:103AE000002B3CD1B7EB060A0BD053463246294691
:103AF0004046FFF771FF013000F0A380099B53445B
:103B000009933B78002B00F09C8000234FF0FF329C
:103B100004930793059206938DF853301A93052268
:103B200021785048FCF77CFB671C049BD8B9D90668
:103B300044BF20228DF853201A0744BF2B228DF852
:103B4000532022782A2A16D0079A00210A202746D5
:103B500001343B78303B092B51D9C9B111E0252BF9
:103B6000C0D02746B9E73F4A801A0BFA00F0184345
:103B700004903C46D3E7039A111D12680391002A72
:103B800001DB079204E0524243F0020307920493E0
:103B90003B782E2B0ED17B782A2B07F1010132D1F5
:103BA000039B1A1D1B680392002BB8BF4FF0FF3315
:103BB000023705932C4C397803222046FCF730FB62
:103BC00038B14023001B03FA00F0049B0343049325
:103BD0000137397825488DF8281006227E1CFCF71D
:103BE0001FFB002835D0224BFBB9039B073323F082
:103BF000070308330393099B4B4409936CE700FBCD
:103C000002320121A3E70023059318460A240F4638
:103C100001313A78303A092A03D9002BCAD00590ED
:103C2000C8E704FB00200123F1E703AB00932A4619
:103C3000104B04A94046AFF30080B0F1FF3F81462E
:103C4000D9D1AB895B063FF538AF09981DB0BDE807
:103C5000F08F03AB00932A46064B04A9404600F0C0
:103C60002FFAEAE7945300089A5300089E5300087D
:103C700000000000D939000838B54B1C144603D1A8
:103C80004FF0FF35284638BD938923F020039381F8
:103C9000536B5268CDB28BB1A36B9A4208DA23689A
:103CA0005A1E226003F8015C636801336360E9E730
:103CB000214600F0D1FD0028F1D0E1E72169236819
:103CC00051B1994208D213F8011C8D4204D1013B35
:103CD000013223606260D5E7E36304F14403636368
:103CE0000323A3632346226403F8465F2360012372
:103CF000DCE710B50C46496B69B104F14403994205
:103D000001D000F02DFE236C63600020606313B1CE
:103D1000E36B236010BD2369236000236360A389E4
:103D200043F02003A3814FF0FF3010BD2DE9F04F89
:103D3000ADF5257D0DF10C080193002346934793C3
:103D4000A04BA293DFF884929F4BCDF820810646CA
:103D50000C46A39392460A279AF80030002B00F0F5
:103D60002F8100F0B7FD9AF800B05844437813F063
:103D7000080343D1BBF1250F0AF1010540F09980FA
:103D8000459343939AF801302A2B03D11023439390
:103D90000AF102052978A1F13002092AAA4605F1A3
:103DA000010541D903228948FCF73AFA38B1A0EB62
:103DB000090301209840439B18434390AA469AF870
:103DC0000030672B0AF101054AD8652B80F0B780D7
:103DD000472B2FD8452B80F0B280002B00F082803B
:103DE000252B66D003234993449745E04799013139
:103DF0004791616801330139616023606368002B7A
:103E00000BDD00F067FD23681978084441780D0741
:103E1000ECD40AF10105AA469EE7A39B2146304651
:103E200098470028EDD0F4E7459B07FB0313303B90
:103E30004593AFE75B2B61D00CD8582BD2D1439A76
:103E400042F400724392102244926F2BB4BF0323BA
:103E5000042310E0632B5CD0642BC3D14497F4E7B8
:103E6000702B42D01DD86E2B59D043D8692BB9D1B5
:103E700000234493032349936368002B61DD439B34
:103E800059066FD5499B022B7CDC01AB224643A926
:103E9000304600F035FA012800F092800228BAD1AD
:103EA0001DE0752BDAD0782BC9D0732B9AD1022361
:103EB000E1E76368002B0CDD23681A7893457FD116
:103EC000013362682360479B013A01336260479384
:103ED000A1E7A39B2146304698470028ECD046989E
:103EE000002863D14FF0FF3066E0439A42F0200291
:103EF0004392A4E7082344930423BCE729464046A1
:103F000000F056FB439B43F04003439305460123D7
:103F1000B1E7439B43F0400343930023ABE7439A4D
:103F2000D0063FF578AF12F0010F019A479B02F1DE
:103F300004010191126814BF138013606BE705231D
:103F400099E7A39B214630469847002897D0C6E7BB
:103F5000479A013247926268013A002A62600ADD9C
:103F60000133236000F0B6FC23681A7810444278CD
:103F70001207EDD486E7A39B2146304698470028D8
:103F8000F0D0ACE7042B06DC01AB224643A9304657
:103F900000F01AFA7FE70E4B002B3FF43CAF01AB69
:103FA000224643A93046AFF3008074E7A38913F09B
:103FB000400F18BF4FF0FF300DF5257DBDE8F08FA5
:103FC0004698F9E7793C0008F33C00089A5300084A
:103FD000000000002DE9F04791461F468A680B69F2
:103FE000DDF820809342B8BF1346C9F8003091F83D
:103FF000432006460C4612B10133C9F8003023684D
:10400000990642BFD9F800300233C9F8003025685C
:1040100015F0060507D104F1190AE368D9F8002064
:104020009B1A9D4229DB94F843302268003318BF65
:10403000012392062ED404F1430239463046C0478C
:10404000013021D02368E568D9F8002003F0060389
:10405000042B08BFAD1AA36822690CBF25EAE575D9
:1040600000259342C4BF9B1AED184FF000091A3483
:104070004D451BD10020BDE8F0870123524639464B
:104080003046C047013003D14FF0FF30BDE8F08724
:104090000135C2E7E1185A1C302081F84300224460
:1040A00094F8451082F843100233C4E701232246F6
:1040B00039463046C0470130E6D009F10109D7E75B
:1040C0002DE9F04317460A7E85B06E2A98460646CB
:1040D0000C460C9B01F1430E00F0BC801AD8632AF9
:1040E0002ED00AD8002A00F0C880582A00F08A8012
:1040F00004F1420584F842202AE0642A01D0692AAA
:10410000F6D121681A6811F0800F23D0111D1960B3
:10411000136827E0732A00F0B48008D86F2A2AD0E9
:10412000702AE5D10A6842F020020A6003E0752A8D
:1041300021D0782ADCD1782284F845206E4964E0C9
:104140001A6801F14205111D1960136884F84230A4
:104150000123A3E011F0400F02F104011960D7D050
:10416000B2F90030002B03DA2D225B4284F84320A1
:1041700062490A2217E02068196810F0800F03D006
:10418000081D18600B6806E010F0400F01F10400F4
:104190001860F7D00B8859496F2A14BF0A220822E9
:1041A000002084F843006568A560002DC0F29C8063
:1041B000206820F004002060002B3FD1002D40F04B
:1041C00095807546082A0BD12368DA0708D523693C
:1041D00062689A42DEBF302305F8013C05F1FF35E5
:1041E000AEEB05032361CDF800803B4603AA2146D0
:1041F0003046FFF7EFFE013055D14FF0FF3005B0EC
:10420000BDE8F08381F845203C492268186812F027
:10421000800F00F104051D6001D0036802E055061F
:10422000FBD50388D00744BF42F0200222601BB9AF
:10423000226822F0200222601022B1E77546B3FB0B
:10424000F2F002FB1033CB5C05F8013D0346002879
:10425000F5D1B7E708681A68496910F0800F04D0F3
:10426000101D18601368196007E010F0400F02F18C
:10427000040018601368F6D0198000232361754686
:10428000B1E71A68111D1960156862680021284697
:10429000FBF7C6FF08B1401B606063682361002321
:1042A00084F843309FE723692A4639463046C047A1
:1042B0000130A2D023689B0707D5002504F1190916
:1042C000E368039A9B1A9D4205DBE068039B9842D2
:1042D000B8BF184693E701234A4639463046C047DF
:1042E00001308AD00135EBE7002BA7D10B7884F899
:1042F000423004F1420565E7B6530008A5530008B3
:104300002DE9F04115468A6880460C4632B98A6923
:10431000002A0CBF01224FF0FF328A602268D106CA
:104320005FBF1A68111D196017680026A369DBB109
:10433000012B07D12B6862691B78D35CA3B9002ECF
:1043400032D106E0022B07D0002E2DD1A369012B1C
:104350002AD10120BDE8F08100F0BCFA2B681B785F
:10436000184443781B07EFD42368DA065EBF2B6836
:104370001B783B702A686B6802F101022A60A26810
:1043800003F1FF3302F1FF326B6006F1010658BF03
:104390000137A26042B1002BC8DCD4F88031294635
:1043A000404698470028C1D0236813F0100305D178
:1043B000E2680132E260A26902B13B7023691E44E7
:1043C00026610020BDE8F0812DE9F04F9A46744B3C
:1043D0000C468346164693E8070087B003ABA768F0
:1043E00083E807006F4BA1696F4A032918BF1A467B
:1043F0007B1EB3F5AE7F84BF40F25D13A3602368DC
:10440000009243F4506388BF6FF4AE7504F11C0949
:1044100023608CBF7F1900274B464FF000080193A3
:10442000316803AB022253F828000978FBF7F8FE45
:10443000019B28B3B8F1010F56D162682AB908224E
:104440006260226842F400722260226822F4A06254
:104450002260A268511EA16092B13268511C316085
:1044600012781A705D1C7368013B002B736006DCC8
:10447000D4F88031314658469847002876D12B46EB
:1044800008F10108B8F1030FC9D162680AB90A221C
:1044900062606268454960690193891A00F088F892
:1044A000019B4FF000081D46A368002B38D03168EF
:1044B00060690A78805C002832D0302A226821D1D5
:1044C00010051FD508F1010817B10133013FA360A2
:1044D0007368013B002B73601BDD3368013333606D
:1044E000A368013BA360DFE7B8F1020FB1D12268F6
:1044F00002F4C061B1F5007FC2D11021616042F4C5
:104500008072A5E722F4106222600B782B700135CF
:10451000DEE7D4F880313146584698470028DFD08E
:104520002368D9050CD54D4508D915F8011CD4F8D8
:104530007C313246584698476F1E3D464D452CD03B
:10454000226812F010021ED12A706368009E49464C
:104550005846B0472268DAF8003012F0200F08D031
:104560001A1DCAF800201B68186009E04FF0000807
:10457000D6E7D207F4D51A1DCAF800201B681880A8
:10458000E3680133E360A5EB0905A84425694544C8
:104590002561002007B0BDE8F08F0120FAE700BFD9
:1045A000884B00083548000815470008D753000815
:1045B00070B50B785E2B13BF4A1C8A1C4B78002108
:1045C00008BF0121441E00F1FF0504F8011FA542A8
:1045D000FBD113B9013A104670BD81F00104C454F7
:1045E00011460D782D2D01F1010206D05D2DF2D07E
:1045F0000DB90A46EFE72B46F1E74E785D2EFAD06B
:10460000B342F8DC023101339E42C454FBDCE8E7DC
:10461000002070472DE9F84F8046894692461F4694
:104620008B465D460A9815F8014B00F050F920447E
:10463000467816F008060BD12D2C0BD12C780126CC
:104640000BF1020567B1102F14D1302C0AD011E004
:10465000AB46E6E72B2C04BF2C780BF10205F1E703
:10466000302C27D12B7803F0DF03582B4BD16C78FB
:1046700010270235002E0CBF6FF000414FF00041B3
:104680000022B1FBF7FE104607FB1E1CA4F130030D
:10469000092B11D81C46A7421DDD531C07D08645A7
:1046A00016D301D1A44513DB00FB0740012215F806
:1046B000014BEBE70A27DDE7A4F14103192B01D8F1
:1046C000373CE8E7A4F16103192B04D8573CE2E733
:1046D0004FF0FF32EBE7531C08D12223C8F800301B
:1046E0000846BAF1000F07D1BDE8F88F06B1404285
:1046F000BAF1000F0CD022B1013DCAF80050BDE85C
:10470000F88F4D46F9E73024002FB3D10827B1E7E1
:10471000BDE8F88F37B5064C064D2468246A002C96
:1047200008BF2C460094FFF775FF03B030BD00BFF3
:104730000C000020700000202DE9F04780468946DB
:1047400092461E460F463D46089815F8014B00F06C
:10475000BEF82044437813F008030AD12D2C0AD167
:104760002C780123BD1C5EB1102E13D1302C09D042
:1047700010E02F46E7E72B2C04BF2C78BD1CF2E796
:10478000302C25D12A7802F0DF02582A4AD16C78E1
:10479000102602354FF0FF310027B1FBF6F106FB82
:1047A00001FE6FEA0E0E3846A4F13002092A11D834
:1047B0001446A6421DDD002F18DB814216D301D11D
:1047C000A64513DB00FB0640012715F8014BEBE77C
:1047D0000A26DFE7A4F14102192A01D8373CE8E7AD
:1047E000A4F16102192A04D8573CE2E74FF0FF37E1
:1047F000EBE7002F09DA2223C8F800304FF0FF3032
:10480000BAF1000F07D1BDE8F08703B14042BAF119
:10481000000F0CD027B1013DCAF80050BDE8F08769
:104820004D46F9E73024002EB4D10826B2E7BDE8A2
:10483000F087000037B5064C064D2468246A002C2A
:1048400008BF2C460094FFF777FF03B030BD00BFD0
:104850000C000020700000202DE9F0410C46496B4F
:1048600004F1440399421ED14FF4806100F0C6F870
:1048700018B94FF0FF30BDE8F0814FF48063A363B7
:1048800094F84630606380F8FF3394F8453080F840
:10489000FE3394F8443080F8FD3300F2FD302060A0
:1048A0000020BDE8F081A66B77003A4600F004F9DD
:1048B00005460028DDD000EB06080146324640469A
:1048C00000F028F8C4F800806563A763E8E7D0F833
:1048D000EC007047044B054A1B681B6A002B08BF9D
:1048E0001346D3F8EC0070470C0000207000002045
:1048F00082B001B901A942B14BB113780B601278B3
:10490000101C18BF012002B070471046FBE76FF083
:104910000100F8E710B5431E0A44914200D110BDD2
:1049200011F8014B03F8014FF7E7884210B501EB8E
:10493000020303D8421E99420CD110BD9842F9D20D
:104940008118D21AD34200D110BD13F8014D01F8DD
:10495000014DF7E711F8014B02F8014FEBE70000BA
:1049600038B50546002945D051F8043C0C1F002BF2
:10497000B8BFE41800F0E3F81F4A1368104633B9D3
:10498000636014602846BDE8384000F0D9B8A342FF
:104990000CD921686218934204BF1A685B6863608F
:1049A00004BF521822600460ECE713465A680AB14B
:1049B000A242FAD919685818A0420BD120680144C4
:1049C000581882421960DDD1106852685A6001445B
:1049D0001960D7E702D90C232B60D3E72068211890
:1049E0008A4204BF11685268626004BF09182160DE
:1049F0005C60C7E738BD00BFFC01002070B5CD1C6E
:104A000025F0030508350C2D38BF0C25002D064672
:104A100001DBA94203D90C233360002070BD00F0F4
:104A20008EF8234A1468214691B9224C23681BB999
:104A3000304600F067F820602946304600F062F802
:104A4000431C26D10C233360304600F079F8E4E7AC
:104A50000B685B1B1AD40B2B0FD90B60CD50CC18F5
:104A6000304600F06DF804F10B00231D20F0070024
:104A7000C31A1BD05A42E25070BD8C420DBF63680E
:104A80004B686360136018BF0C46E9E70C46496841
:104A9000CAE7C41C24F00304A04205D0211A304602
:104AA00000F030F80130CDD02560D9E770BD00BFEF
:104AB000FC01002000020020F8B5074614460E460F
:104AC00021B91146BDE8F840FFF798BF22B9FFF7BA
:104AD00047FF25462846F8BD00F033F884420FD939
:104AE00021463846FFF78AFF05460028F2D03146B6
:104AF0002246FFF70FFF31463846FFF731FFE9E75F
:104B00003546E7E738B5064C0023054608462360DE
:104B100000F020F8431C02D1236803B12B6038BD9C
:104B2000CC05002049B1FF2A85BF8A2303600A70A3
:104B30004FF0FF3098BF012070470846704770471C
:104B4000704751F8040C0028A0F10400BCBF0B58BA
:104B5000C0187047044B1968024609B90349196027
:104B6000186802441A60704704020020D005002033
:104B7000F8B500BFF8BC08BC9E467047F8B500BF4A
:084B8000F8BC08BC9E4670471A
:104B8800D9530008DC530008DF530008000610164C
:104B980000061016000000000000000001020304D7
:104BA8000607080900000000010203040D2A2A2A4A
:104BB8002A2A2A2A2A2A2A2A2A2A2A2A2A2A2A2A4D
:104BC8002A2A2A2A2A2A2A2A2A2A2A2A2A2A2A2A3D
:104BD8002A2A2A2A2A2A2A2A2A2A2A2A2A2A2A2A2D
:104BE8002A2A2A2A2A2A2A2A2A2A2A0A0D000000D8
:104BF8000D5B41746F6C6C696320547275657374D6
:104C08007564696F202D20432F432B2B5D200A0DDF
:104C1800000000000A0D3D3D3D3D3D3D3D3D3D3D13
:104C28003D3D3D426567696E3A5465737420426143
:104C3800736963204F757470757474696E67733D1A
:104C48003D3D3D3D3D3D3D3D3D3D3D3D3D3D3D3D8C
:104C58003D0D00000A0D546573745B7573617274C1
:104C680053656E645D0D0A0D5B2A2A2A2A2A5D7532
:104C78007361727453656E643A2048656C6C6F207A
:104C8800576F726C64210D0A000000000A0D54650C
:104C980073745B7072696E745D0D0A000D5B2A2A6D
:104CA8002A2A2A5D7072696E743A2048656C6C6FA6
:104CB80020576F726C64210D0A0000000D5B2A2AD0
:104CC8002A2A2A5D5465737420666F726D61742098
:104CD800737472696E673A202564202B202564203E
:104CE8003D2025640D0A00000A0D546573745B703D
:104CF80072696E74665F755D0D0A00000D5B2A2A85
:104D08002A2A2A5D7072696E74665F753A20486552
:104D18006C6C6F20576F726C64210D0A00000000E4
:104D28000D3D3D3D3D3D3D3D3D3D3D3D3D3D3D3DDB
:104D38003D3D3D3D3D3D3D456E643D3D3D3D3D3D3B
:104D48003D3D3D3D3D3D3D3D3D3D3D3D3D3D3D3D8B
:104D58003D3D3D3D0D0A00000A0D3D3D3D3D3D3DBB
:104D68003D3D3D3D3D3D3D3D3D426567696E3A54A3
:104D7800657374204F757470757474696E677320E9
:104D88007769746820444D413D3D3D3D3D3D3D3D85
:104D98003D3D3D3D3D3D3D3D3D0D00000A0D546509
:104DA80073745B757361727453656E645F444D41CF
:104DB8005D0D0A0D5B2A2A2A2A2A5D7573617274B1
:104DC80053656E645F444D413A2048656C6C6F20B2
:104DD800576F726C64210D0A000000000A0D5465BB
:104DE80073745B7072696E745F444D415D0D0A00A7
:104DF8000D5B2A2A2A2A2A5D7072696E745F444DF7
:104E0800413A2048656C6C6F20576F726C64210DB5
:104E18000A0000000A0D546573745B7072696E7441
:104E2800665F444D415D0D0A000000000D5B2A2AB3
:104E38002A2A2A5D7072696E74665F444D413A2071
:104E480048656C6C6F20576F726C64210D0A000006
:104E58000A0D54686572652073686F756C6420620A
:104E680065206F6E6520656D707479206C696E655C
:104E78002062656C6F770D0A000000000D457272A4
:104E88006F72210D000000000D0A2D2D2D2D2D2DE6
:104E98002D2D2D2D2D2D2D2D2D2D2D2D2D2D2D2D3A
:104EA8002D2D2D0D0A0000000A0D546573745B66E4
:104EB8006173745072696E745D0D0A000D5B2A2A65
:104EC8002A2A2A5D666173745072696E743A2048A2
:104ED800656C6C6F20576F726C64210D0A000000BE
:104EE8000A0D546573745B666173745072696E74ED
:104EF800665D0D0A000000000D5B2A2A2A2A2A5D39
:104F0800666173745072696E74663A2048656C6C99
:104F18006F20576F726C64210D0A00000D2B2B2B2C
:104F28002B2B2B2B2B2B2B2B2B2B2B2B2B2B2B2BC9
:104F38002B2B2B2B2B2B2B2B2B2B2B2B2B2B2B2BB9
:104F48002B2B2B2B2B2B2B2B2B2B2B2B2B2B2B2BA9
:104F58002B2B2B2B2B2B2B2B2B2B2B0A0D00000059
:104F68000A0D3D3D3D3D3D3D3D3D3D3D3D3D3D42C7
:104F78006567696E3A54657374204261736963208A
:104F8800496E70757474696E67733D3D3D3D3D3D76
:104F98003D3D3D3D3D3D3D3D3D3D3D3D0D00000020
:104FA8000A0D546573745B7573617274526561643C
:104FB8005D0D0A000D5B2A2A2A2A2A5D506C65615C
:104FC800736520656E7465722045584143544C5989
:104FD800202564206C6574746572730D0A0D3E3E5D
:104FE8003E3E3E3E3E2000000D5B4563686F5D3AE5
:104FF8002025730D0A0000000A0D546573745B7256
:10500800656164576F72645D0D0A00000D5B2A2AA2
:105018002A2A2A5D506C6561736520656E74657215
:105028002074776F20776F726473202873706163C0
:10503800652D7370657261746564292062656C6F93
:10504800770D0A000D3E3E3E3E3E3E3E3E3E3E3E13
:105058003E3E3E3E3E3E3E3E0D0A00000D3C3C3C80
:105068003C3C3C3C3C3C3C3C3C3C3C3C3C3C3C3C78
:105078000D0A00000D5B4563686F5D3A0D0A0D254A
:10508800730D0A000D25730D0A0000000A0D546502
:1050980073745B726561644C696E655D0D0A00002E
:1050A8000D5B2A2A2A2A2A5D506C65617365206582
:1050B8006E74657220616E797468696E67206265C6
:1050C8006C6F7720286E6F206D6F72652074686131
:1050D8006E205B52784275666665725F53697A65C1
:1050E8005D206E756D626572206F662063686172FF
:1050F800616374657273290D0A0000000A0D546516
:1051080073745B72656164576F7264665D0D0A0043
:105118000A0D546573745B726561644C696E6566EB
:105128005D0D0A000A0D546573745B7363616E5DEF
:105138000D0A00000D5B2A2A2A2A2A5D506C656137
:10514800736520656E7465722074776F20696E745C
:105158006567657273202873706163652D73706568
:105168007261746564292062656C6F770D0A0000AE
:1051780025642025640000000D5B4563686F5D3A77
:105188000D0A00000D25640D0A0000000D5B537523
:105198006D5D3A2025640D0A000000000D5B2A2A87
:1051A8002A2A2A5D506C6561736520656E74657284
:1051B8002074776F20737472696E67732028737018
:1051C8006163652D73706572617465642920626519
:1051D8006C6F770D0A00000025732025730000000E
:1051E8000D5B436F6E636174656E6174696F6E5DAC
:1051F8003A20257325730D0A000000000A0D546536
:1052080073745B7363616E665F755D0D0A00000001
:105218000D256C750D0A00000D5B53756D5D3A2008
:10522800256C750D0A0000000A0D3D3D3D3D3D3DD4
:105238003D3D3D3D3D3D3D3D3D426567696E3A54CE
:1052480065737420496E70757474696E677320771E
:1052580069746820444D413D3D3D3D3D3D3D3D3DEA
:105268003D3D3D3D3D3D3D3D0D0000000A0D546571
:1052780073745B7573617274526561645F444D4108
:105288005D0D0A0054484C5F55736172742E633A81
:105298002048414C5F554152545F4572726F7243CA
:1052A800616C6C6261636B282900000054484C5F94
:1052B80055736172742E633A207573617274526506
:1052C80061642829207C2054696D654F757400003D
:1052D80054484C5F55736172742E633A207573613C
:1052E8007274526561642829207C204572726F723D
:1052F8000000000054484C5F55736172742E633A85
:10530800207573617274526561645F444D41282948
:10531800207C204572726F720000000054484C5F78
:1053280055736172742E633A207573617274536594
:105338006E642829207C2054696D654F75740000BF
:1053480054484C5F55736172742E633A20757361CB
:10535800727453656E642829207C204572726F72BE
:105368000000000054484C5F55736172742E633A14
:1053780020757361727453656E645F444D412829CA
:10538800207C204572726F7200000000232D302BA4
:105398002000686C4C00656667454647003031322E
:1053A8003334353637383941424344454600303185
:1053B80032333435363738396162636465660041A3
:1053C8002D46612D66383930313233343536375D04
:1053D800002B2D003030007858000000000000003D
:1053E80000000000000000000000000000000000B5
:1053F80000000000000000000000000000000000A5
:105408000000000000000000000000000000000094
:105418000000000000000000000000000000000084
:105428000000000000000000000000000000000074
:105438000000000000000000000000004300504F82
:10544800534958002E000020202020202020202012
:10545800282828282820202020202020202020201C
:10546800202020202020208810101010101010104C
:105478001010101010101004040404040404040490
:105488000410101010101010414141414141010118
:1054980001010101010101010101010101010101F4
:1054A8000101101010101010424242424242020202
:1054B80002020202020202020202020202020202C4
:1054C8000202101010102000000000000000000070
:1054D80000000000000000000000000000000000C4
:1054E80000000000000000000000000000000000B4
:1054F80000000000000000000000000000000000A4
:105508000000000000000000000000000000000093
:105518000000000000000000000000000000000083
:105528000000000000000000000000000000000073
:105538000000000000000000000000000000000063
:0855480000000000000000005B
:08555000A0ADFF7F0100000087
:04555800F501000851
:04555C00D101000871
:1055600001000000100000000024F40010000020E2
:10557000000000000454000824540008E45300080C
:10558000000000000000000000000000000000001B
:10559000000000000000000000000000000000000B
:1055A00000000000000000000000000000000000FB
:1055B00000000000000000000000000000000000EB
:1055C00000000000000000000000000000000000DB
:1055D0004300000000000000000000000000000088
:1055E00000000000000000000000000000000000BB
:1055F0004300000000000000000000000000000068
:10560000000000000000000000000000000000009A
:105610004300000000000000000000000000000047
:10562000000000000000000000000000000000007A
:105630004300000000000000000000000000000027
:10564000000000000000000000000000000000005A
:105650004300000000000000000000000000000007
:10566000000000000000000000000000000000003A
:1056700043000000000000000000000000000000E7
:10568000000000000000000000000000000000001A
:1056900043000000000000000000000000000000C7
:1056A00000000000000000000000000000000000FA
:1056B000254B0008F1480008000000004E54000887
:1056C0004C54000899530008995300089953000856
:1056D00099530008995300089953000899530008FA
:1056E0009953000899530008FFFFFFFFFFFFFFFFDA
:1056F000FFFFFFFFFFFF0000010041534349490046
:105700000000000000000000000000000000000099
:105710000000000000000000000041534349490020
:105720000000000000000000000000000000000079
:0C5730000000000000000000000000006D
:040000050800388D2A
:00000001FF
