:020000040800F2
:1000000000000220F14A0008894200088B420008E3
:100010008D4200088F420008914200080000000055
:1000200000000000000000000000000093420008F3
:10003000954200080000000097420008994200081D
:10004000414B0008414B0008414B0008414B000860
:10005000414B0008414B0008414B0008414B000850
:10006000414B0008414B0008414B0008A1420008E9
:10007000414B0008414B0008B1420008C142000852
:10008000414B0008414B0008D1420008414B000899
:10009000414B0008414B0008414B0008414B000810
:1000A000414B0008E9420008414B0008414B000861
:1000B000414B000801430008414B00081143000870
:1000C00021430008414B0008414B0008414B000808
:1000D00031430008414B0008414B0008414B0008E8
:1000E000414B0008414B0008414B0008414B0008C0
:1000F00041430008414B0008514300086143000898
:10010000414B0008414B000871430008414B000877
:10011000414B0008414B0008414B00088143000857
:1001200091430008414B0008414B0008414B000837
:10013000414B00080000000000000000414B000897
:10014000414B0008414B0008414B0008414B00085F
:10015000414B0008414B0008414B0008414B00084F
:10016000414B0008414B0008414B0008414B00083F
:10017000414B0008414B0008414B000800000000C3
:1001800000000000414B00080000000000000000DB
:10019000414B00080000000000000000414B000837
:1001A000000000000000000000000000414B0008BB
:1001B000414B0008414B0008414B0008414B0008EF
:0401C000414B0008A7
:1001D00010B5054C237833B9044B13B10448AFF381
:1001E00000800123237010BD70000020000000007B
:1001F000C853000808B5034B1BB103490348AFF3CC
:10020000008008BD0000000074000020C8530008F2
:1002100053B94AB9002908BF00281CBF4FF0FF316D
:100220004FF0FF3000F072B9ADF1080C6DE904CE6B
:1002300000F006F8DDF804E0DDE9022304B07047C1
:100240002DE9F047089E04468846002B4BD18A4290
:10025000154667D9B2FA82F24AB1C2F1200701FA13
:1002600002F320FA07F7954047EA030894404FEA63
:10027000154E230CB8FBFEF71FFA85FC0EFB178802
:1002800043EA084307FB0CF1994209D9EB1807F13F
:10029000FF3080F01B81994240F21881023F2B44CD
:1002A0005B1AA4B2B3FBFEF00EFB103344EA034426
:1002B00000FB0CFCA44509D92C1900F1FF3380F098
:1002C0000781A44540F2048102382C4440EA0740EB
:1002D000A4EB0C0400271EB1D4400023C6E9004360
:1002E0003946BDE8F0878B4209D9002E00F0EB803B
:1002F0000027C6E9000138463946BDE8F087B3FA61
:1003000083F7002F47D18B4202D3824200F2FA805A
:10031000841A61EB030301209846002EE0D0C6E961
:100320000048DDE702B9FFDEB2FA82F2002A40F0AF
:100330008F80491B4FEA154E1FFA85F80127B1FB44
:10034000FEFC230C0EFB1C1143EA014308FB0CF1DD
:10035000994207D9EB180CF1FF3002D2994200F212
:10036000CD808446591AA3B2B1FBFEF00EFB1014E7
:1003700043EA044408FB00F8A04507D92C1900F112
:10038000FF3302D2A04500F2B6801846A4EB080461
:1003900040EA0C409FE7C7F1200CBB4022FA0CFE5C
:1003A0004EEA030E01FA07F420FA0CF521FA0CF3D9
:1003B0004FEA1E482543B3FBF8F92C0C08FB193310
:1003C0001FFA8EFA44EA034309FB0AF49C4202FA3C
:1003D00007F200FA07F10BD91EEB030309F1FF3016
:1003E00080F087809C4240F28480A9F10209734426
:1003F0001B1BADB2B3FBF8F008FB103345EA034416
:1004000000FB0AFAA24508D91EEB040400F1FF33F1
:100410006BD2A24569D90238744440EA0940A0FB76
:100420000289A4EB0A044C45C2464B4654D351D032
:10043000002E69D0B1EB0A0564EB030404FA0CFC4E
:10044000FD40FC404CEA0505C6E90054002747E79B
:10045000C2F1200320FA03F7954001FA02F021FAD5
:1004600003F34FEA154E3843010CB3FBFEF71FFAB6
:1004700085F80EFB173341EA034107FB08F38B4273
:1004800004FA02F407D9691807F1FF3C2FD28B4216
:100490002DD9023F2944CB1A81B2B3FBFEF00EFBEB
:1004A000103341EA034100FB08F38B4207D9691876
:1004B00000F1FF3C17D28B4215D902382944C91AE2
:1004C00040EA07473BE73746304609E70746E7E695
:1004D0001846FBE64145ABD2B8EB020A69EB0E02C7
:1004E00001381346A4E76046E9E7184695E76746F2
:1004F000D1E781467CE702382C4447E7ACF1020C97
:100500002B442FE7384608E73746E9E6704700BF37
:10051000034613F8012B002AFBD1181A0138704743
:1005200001F0FF01102A2BDB10F0070F08D010F8A4
:10053000013B013A8B422DD010F0070F42B3F6D1A8
:10054000F0B441EA012141EA014122F007047FF0C1
:1005500000070023F0E80256083C85EA010586EA18
:10056000010685FA47F5A3FA87F586FA47F6A5FA54
:1005700087F68EB9EED1F0BC01F0FF0102F0070260
:1005800032B110F8013B013A83EA010313B1F8D10B
:100590000020704701387047002D06BF35460338EC
:1005A000073815F0010F07D1013015F4807F02BF25
:1005B000013015F4C03F0130F0BC0138704700BF76
:1005C00010B504460E4B18784FF47A73B3FBF0F372
:1005D0000C4A1068B0FBF3F000F0CEFA68B90F2CAB
:1005E00001D901200AE0002221464FF0FF3000F03F
:1005F00083FA034B5C60002000E0012010BD00BFC7
:10060000000000200800002008B50B4B1A6842F4D7
:1006100000721A601A6842F480621A601A6842F422
:1006200080721A60032000F055FA0020FFF7C8FF1F
:1006300003F072FA002008BD003C0240034A116832
:10064000034B1B780B441360704700BFB4000020BD
:1006500000000020014B1868704700BFB400002064
:10066000494B5A6822F440325A605A6841680A433A
:100670005A600268536823F48073536002685368B9
:10068000016943EA012353600268536823F0407311
:1006900053600268536881680B4353600268936833
:1006A00023F40063936002689368C1680B4393600E
:1006B000826A364B9A4249D00268936823F070638D
:1006C000936002689368816A0B4393600268936841
:1006D00023F04053936002689368C16A0B439360B0
:1006E0000268936823F0020393600268936881694B
:1006F00043EA41039360036A002B32D102685368D6
:1007000023F4006353600268D36A23F47003D36256
:100710000168CB6AC269013A43EA0253CB620268BC
:10072000936823F40073936002689368016B43EA53
:10073000412393600268936823F4806393600268A6
:100740009368416943EA8123936070470268936824
:1007500023F0706393600268936823F040539360C2
:10076000BEE70268536843F400635360026853684D
:1007700023F46043536001684B68426A013A43EADC
:1007800042334B60BFE700BF002301400100000F70
:1007900030B310B50446036C43B1236C13F0100F53
:1007A0000AD00120002384F83C3010BD436480F857
:1007B0003C3003F0CDF9F0E7236C23F4885323F0A9
:1007C000020343F0020323642046FFF749FF0020A1
:1007D0006064236C23F0030343F001032364E1E727
:1007E000012070470368D86C70477047704738B570
:1007F000044602681168536811F0020F2FD003F00D
:10080000200363B3036C13F0100F03D1036C43F4A4
:1008100000730364936813F0405F19D1A369BBB9F7
:10082000D36A13F4700F03D0936813F4806F0FD161
:10083000536823F020035360236C23F480732364F4
:10084000236C13F4805F03D1236C43F00103236412
:10085000204603F0A3FE23686FF012021A6023689B
:1008600019685A6802F0800211F0040F36D0002A8D
:1008700034D0226C12F0100F03D1226C42F40052DB
:1008800022649A6812F4401F21D19A6B12F4401F1F
:1008900003D09A6812F4806F19D15A6812F4806FED
:1008A00015D19A6812F0405F11D1A2697AB95A68DD
:1008B00022F080025A60236C23F480532364236C5B
:1008C00013F4807F03D1236C43F00103236420469B
:1008D00000F0FEF823686FF00C021A6022681168BD
:1008E000536803F0400311F0010F04D01BB11368EB
:1008F00013F0010F09D122681168536803F0806377
:1009000011F0200F00D063B938BD236C43F480335D
:1009100023642046FFF769FF23686FF001021A6025
:10092000E9E7636C43F0020363646FF02005156030
:100930002046FFF75BFF23681D60E5E730B482B017
:100940000023019390F83C30012B00F0B580012387
:1009500080F83C300B68092B3ED90568EA689BB2E9
:1009600003EB43031E3B072404FA03F322EA0303C9
:10097000EB600568EA688C680B8803EB43031E3B59
:1009800004FA03F31343EB604B68062B3AD805686F
:100990006A6B03EB8303053B1F2404FA03F322EA8B
:1009A00003036B6305686A6B4B6803EB8303053BCA
:1009B0000C8804FA03F313436B6302683F4B9A42BB
:1009C00050D002683D4B9A4255D0002380F83C300D
:1009D000184602B030BC704705682A699BB203EB29
:1009E0004303072404FA03F322EA03032B61056897
:1009F0002A698C680B8803EB430304FA03F313435F
:100A00002B61C1E70C2B16D805682A6B03EB830317
:100A1000233B1F2404FA03F322EA03032B63056834
:100A20002A6B4B6803EB8303233B0C8804FA03F324
:100A300013432B63C1E70568EA6A03EB8303413B79
:100A40001F2404FA03F322EA0303EB620568EA6A4F
:100A50004B6803EB8303413B0C8804FA03F3134315
:100A6000EB62AAE70B68122BABD1154A536843F42B
:100A700080035360A5E70B68124A934201D0112B03
:100A8000A3D10F4A536843F4000353600A680D4B27
:100A90009A429AD10C4B1B680C4AA2FB03239B0C75
:100AA00003EB83035A00019202E0019B013B019397
:100AB000019B002BF9D188E702208AE70020014042
:100AC00000230140120000100800002083DE1B43B9
:100AD00070470000074AD36823F4E0631B041B0C33
:100AE000000200F4E060184340F0BF6040F40030C2
:100AF000D060704700ED00E030B4174BDB68C3F303
:100B00000223C3F10704042C28BF04241D1D062D55
:100B100018D9033B4FF0FF3505FA04F421EA04012C
:100B2000994005FA03F322EA0303194300280BDB7B
:100B30000901C9B200F1604000F5614080F800137E
:100B400030BC70470023E5E700F00F000901C9B28F
:100B5000024B1954F4E700BF00ED00E014ED00E093
:100B600000F01F02400901239340024A42F820305E
:100B7000704700BF00E100E00138B0F1807F0AD289
:100B8000064B5860064AF02182F823100020986036
:100B900007221A6070470120704700BF10E000E094
:100BA00000ED00E00268D3B2103B0B49A1FB031338
:100BB0001B090A49C95CC165032B06D822F47F7260
:100BC00022F003028265806D704722F47F7222F06A
:100BD000030204328265F6E7ABAAAAAAE053000832
:100BE000836A826992B9012B0AD01BB1022B01D012
:100BF00000207047C36A13F0807F2CD1002070471B
:100C0000C36AB3F1C07F28D000207047B2F5005FFF
:100C100005D0022B29D9032B15D000207047032BB8
:100C200003D8DFE803F01C041C0A00207047C36AE5
:100C300013F0807F15D100207047C36AB3F1C07FE5
:100C400011D000207047C36A13F0807F01D00120CB
:100C50007047002070470120704701207047012035
:100C60007047012070470120704701207047000045
:100C700070B50446FFF7EEFC002C5BD00546002360
:100C800084F83430022384F835302268136823F066
:100C90000103136023681A6812F0010F0AD0FFF7EE
:100CA000D9FC401B0528F5D920236365032084F86F
:100CB000350070BD1A68204810406168A2680A4378
:100CC000E1680A4321690A4361690A43A1690A4349
:100CD000E1690A43216A0A430243616A04291ED07A
:100CE0001A602668756925F00705636A1D43042BA1
:100CF00007D1A36A1D43E36A1BB12046FFF770FFCB
:100D000090B975612046FFF74DFFE26D3F23934098
:100D1000836000206065012384F83530C9E7E16A0B
:100D2000206B01430A43DBE740236365012084F81D
:100D30003500BEE70120BCE73F8010F090F8353069
:100D4000DBB2022B03D080234365012070470523CB
:100D500080F835300268136823F001031360002027
:100D600070470000F0B583B0044600230193724B36
:100D70001D68724BA3FB0535AD0A876D3E68C26DD9
:100D800008239340334210D003681A6812F0040F0E
:100D90000BD01A6822F004021A60C26D0823934037
:100DA000BB60436D43F001034365E26D0123934053
:100DB000334209D02268526912F0800F04D0BB6020
:100DC000636D43F002036365E26D04239340334295
:100DD00009D02268126812F0020F04D0BB60636D64
:100DE00043F004036365E26D10239340334224D043
:100DF0002268126812F0080F1FD0BB6023681A68BF
:100E000012F4802F0DD01B6813F4002F04D1236C33
:100E10009BB12046984710E0A36C73B120469847D9
:100E20000BE01A6812F4807F03D11A6822F00802DE
:100E30001A60236C0BB120469847E26D2023934043
:100E4000334255D02268126812F0100F50D0BB60A8
:100E500094F83530DBB2052B0ED023681A6812F4F3
:100E6000802F33D01B6813F4002F2AD1636C002B22
:100E70003ED0204698473BE02268136823F01603D3
:100E800013602268536923F080035361236CA3B17C
:100E90002268136823F008031360E26D3F23934038
:100EA000BB60002384F83430012384F83530236D8F
:100EB000002B3FD0204698473CE0A36C002BE7D1A5
:100EC000EBE7E36BA3B12046984711E01A6812F4F0
:100ED000807F09D11A6822F010021A60002384F87A
:100EE0003430012384F83530E36B0BB1204698474A
:100EF000636DFBB1636D13F0010F17D0052384F808
:100F000035302268136823F001031360019B01331D
:100F10000193AB4204D823681B6813F0010FF5D18D
:100F2000002384F83430012384F83530E36C0BB1AE
:100F30002046984703B0F0BD08000020B5814E1B45
:100F400000230F2B00F2D180F0B482B039E00622EA
:100F500000E00022B2403A430234644E46F82420B6
:100F6000634A1468EA4302EA04064F6817F4803FB4
:100F700001D045EA04065E4C2660646802EA040675
:100F80004F6817F4003F01D045EA0406584C6660EC
:100F9000A46802EA04064F6817F4801F01D045EAEE
:100FA0000406534CA660E46822404E6816F4001F05
:100FB00001D045EA04024E4CE26001330F2B00F2EF
:100FC000918001229A400C6804EA0205AA42F4D1F9
:100FD0004C68022C01D0122C10D1DE08083650F8D3
:100FE00026C003F00704A7000F24BC402CEA040C21
:100FF0000C69BC4044EA0C0440F8264004685F00D9
:101000000326BE40F64306EA040C4C6804F00304D1
:10101000BC4044EA0C0404604C6804F1FF3CBCF1A1
:10102000010F03D9112C01D0122C10D1846806EACB
:10103000040CCC68BC4044EA0C048460446824EA94
:1010400002024C68C4F300149C4014434460C2681C
:1010500016408A68BA403243C2604A6812F0805F24
:10106000ABD000220192234A546C44F4804454646F
:10107000526C02F480420192019A9C08A61C1B4A01
:1010800052F8267003F0030296000F22B24027EABE
:101090000207194A90423FF45CAF02F58062904229
:1010A00016D002F58062904214D002F58062904220
:1010B00012D002F58062904210D002F58062904218
:1010C0000ED002F5806290423FF441AF072241E723
:1010D00001223FE702223DE703223BE7042239E7F2
:1010E000052237E702B0F0BC704770470038014076
:1010F000003C0140003802400000024012B90904DF
:10110000816170478161704790F83E30DBB2402BBF
:1011100013D00369B3F5804F1ED0036D002B2DD083
:10112000036D012B33D1436CC3F3C813026803F082
:10113000060343F0F103136129E0036D2BB9436CFF
:10114000026803F0FE03136121E0436C026843F080
:101150000103DBB213611AE090F83D30DBB2212BC2
:1011600006D0436C026843F00103DBB213610EE06A
:10117000436C026803F0FE03136108E0436CC3F3A1
:10118000C813026803F0060343F0F0031361002064
:101190007047436C0268DBB213610020704710B4E3
:1011A0008BB090F83E30DAB2C16A046B90F83D30F3
:1011B000DBB2222B0CD00023099303685A690992F1
:1011C0009B690993099B00200BB05DF8044B7047A5
:1011D000036D0BB9402A17D0036D1BB90369B3F532
:1011E000404F19D0438D9BB2002B25D10293036849
:1011F0005A6902929A690292029A1A6842F400723B
:101200001A6000230365DEE7009303685A690092C1
:101210009B690093009BD6E70023019303685A69FA
:1012200001929A690192019A1A6842F480721A60D6
:10123000036D01330365C6E7438D9BB2012B1AD0C2
:10124000438D9BB2022B6BD00268136843F480631A
:10125000136003685A6812F4006F03D05A6842F4AE
:1012600080525A600023089303685A6908929B6968
:101270000893089BC5E711F5803F16D004293DD09F
:1012800008293BD0122C39D0C36A022B30D0026817
:10129000136823F4806313600023059303685A697D
:1012A00005929B690593059BABE70268136823F4DD
:1012B0008063136003685A6812F4006F0CD01A68D8
:1012C00022F480621A600023039303685A69039230
:1012D0009B690393039B94E7002204925A6904924A
:1012E0009A690492049A1A6842F400721A6088E7B4
:1012F0000268136843F480631360CDE702681368E3
:1013000023F4806313600023069303685A690692EE
:101310009A690692069A1A6842F400721A6070E797
:10132000C36A022B1BD00268136823F48063136026
:101330000268136843F40063136003685A6812F488
:10134000006F03D05A6842F480525A60002307931A
:1013500003685A6907929B690793079B51E70268E4
:10136000136843F480631360E7E7438D9BB24BB18E
:10137000436A5A1C426202681B781361438D013B29
:101380009BB2438500207047438D9BB24BB10368ED
:101390001A69436A591C41621A70438D013B9BB222
:1013A0004385002070470000002800F0828010B5BF
:1013B000044690F83D30002B41D0242384F83D3082
:1013C0002268136823F00103136000F04FFE3A4BCC
:1013D000A3FB00239B0C226853606168374A91424B
:1013E00032D80133226813626368344A934235D895
:1013F0005B00B0FBF3F0C0F30B03032B00D8042019
:101400002368D861E369216A22680B43136023696A
:10141000E16822680B4393606369A16922680B430A
:10142000D3602268136843F0010313600020206436
:10143000202384F83D30206384F83E0010BD80F8FE
:101440003C3002F023FCB8E74FF4967202FB03F342
:101450001B4AA2FB03239B090133C3E7A16889B997
:1014600003EB4302B0FBF2F2C2F30B02B2FA82F2D8
:101470005209E2B991B903EB4303B0FBF3F040F436
:101480000040BDE703EB830202EB8202B0FBF2F205
:10149000C2F30B02B2FA82F25209EAE703EB8303CA
:1014A00003EB8303B0FBF3F040F44040A8E70120D6
:1014B000A6E70120704700BF83DE1B43A086010022
:1014C000D34D621008B590F83D30DAB2438D9BB22F
:1014D00073B1436A591C416201681B780B61438DEB
:1014E000013B9BB24385438D9BB20BB9292A01D0A6
:1014F000002008BD0268536823F4806353602123F1
:101500000363282380F83D3003F0A2F8F0E790F859
:101510003D30DAB2438D9BB2F3B110B5036819695F
:10152000436A5C1C44621970438D013B9BB2438546
:10153000438D9BB20BB92A2A01D0002010BD02684E
:10154000536823F48063536022230363282380F8C5
:101550003D3003F0B3F8F0E700207047704708B55E
:1015600003689A6912F0040F09D000219B6913F0F7
:10157000800F06D0028BFFF7F1FF002008BD01218C
:10158000F4E78289F7E7704708B590F83D30DBB2A1
:10159000C26A042A01D0082A01D1282B07D0212BA6
:1015A0001FD003686FF480625A61002008BD1A4B97
:1015B000C3620268536823F4E063536003686FF406
:1015C00080625A610268136823F480631360002309
:1015D0000363202280F83D2080F83E30FFF7D3FFE0
:1015E000E3E70D4BC36221230363202380F83D30E2
:1015F000002380F83E300268536823F4E0635360B0
:1016000003686FF480625A610268136823F4806390
:10161000136003F01DF8C8E70000FFFF704710B526
:1016200090F83D30DBB290F83E20D2B2C46A018D12
:1016300009B9212B05D0212B3CD0402A38D00020DD
:1016400010BD042C04D0082C02D014F5803F19D111
:101650000268536823F4E06353600268136843F43C
:101660000073136000230363202380F83D3090F85B
:101670003E30DBB2402B15D0002380F83E3002F024
:10168000CDFFDCE70268536823F4E0635360112365
:101690000363002380F83E30202380F83D3002F0C1
:1016A000BDFFCCE7002380F83E30FFF7B7FFC6E769
:1016B000222BC4D1438D9BB27BB190F83E30DBB27C
:1016C000402B10D0436A5A1C426202681B78136197
:1016D000438D013B9BB24385B1E70268536823F415
:1016E00080635360ABE7036D9BB9C36C012B08D0DB
:1016F000836CC3F3072302681361036D0133036531
:101700009DE7836C0268DBB21361036D02330365EE
:1017100095E7036D012B17D0036D022B8FD190F845
:101720003D30DBB2222B17D090F83D30DBB2212BBD
:1017300085D1436A5A1C426202681B781361438D4B
:10174000013B9BB243857AE7836C0268DBB213618D
:10175000036D0133036572E70268136843F4807315
:1017600013606CE708B5C26A90F83D30DBB2212BFC
:1017700001D0002008BD438D9BB203BB042A04D0D6
:10178000082A02D012F5803F24D10268536823F45E
:10179000E06353600268136843F40073136000232E
:1017A0000363202380F83D3090F83E30DBB2402BBD
:1017B00020D0002380F83E3002F030FFD9E7436AA2
:1017C0005A1C426202681B781361438D013B9BB235
:1017D0004385CEE70268536823F4E0635360112326
:1017E0000363002380F83E30202380F83D3002F070
:1017F00015FFBEE7002380F83E30FFF70FFFB8E784
:10180000704708B590F83D30DBB2222B01D00020A4
:1018100008BD438D9BB2032B13D903681A69436A31
:10182000591C41621A70438D013B9BB24385438D25
:101830009BB2032BEBD10268536823F4806353609F
:10184000E5E7012BE3D80268136823F48063136093
:101850000268536823F4E063536003681A69436ABB
:10186000591C41621A70438D013B9BB24385202372
:1018700080F83D300023036390F83E30DBB2402B0C
:1018800005D0002380F83E3002F0FEFEBFE70023C3
:1018900080F83E30FFF7B4FFB9E708B5C26A438D60
:1018A0009BB2042B13D0438D9BB2032B1FD0438DCF
:1018B0009BB2022B30D003681A69436A591C4162FB
:1018C0001A70438D013B9BB24385002008BD02681E
:1018D000536823F48063536003681A69436A591C90
:1018E00041621A70438D013B9BB24385EDE702686C
:1018F000536823F4806353600268136823F48063A1
:10190000136003681A69436A591C41621A70438D57
:10191000013B9BB24385D8E7013A012A2DD90268E1
:10192000136843F40073136003681A69436A591C0F
:1019300041621A70438D013B9BB2438503681A696B
:10194000436A591C41621A70438D013B9BB2438527
:101950000268536823F440735360202380F83D30BD
:101960000023036390F83E30DBB2402B10D00023FD
:1019700080F83E3002F088FEA7E70268136823F47F
:10198000806313600268136843F480731360CBE7CD
:10199000002380F83E30FFF733FF96E7704770472B
:1019A00010B5044690F83D30293B012B37D990F80B
:1019B0003D30DBB2602B07D003685B6813F4006F27
:1019C00002D1202380F83D300023236384F83E3089
:1019D0002268136823F40063136023685A6812F4C2
:1019E000006F3FD05A6822F400625A60626B92F82E
:1019F0003530DBB2012B18D03A4B1365606BFFF723
:101A00009DF900283FD02268136823F0010313607A
:101A1000202384F83D30606B036D984733E000234A
:101A20000363282380F83D30D2E7A36B2D4A1A6563
:101A3000A06BFFF783F930B323685A6912F0400FA7
:101A400004D01A69636A591C61621A7022681368AB
:101A500023F001031360202384F83D30A06B036D55
:101A6000984710E094F83D20D2B2602A11D05A690C
:101A700012F0400F04D01A69636A591C61621A702F
:101A80002046FFF78BFF94F83D30DBB2282B17D0B0
:101A900010BD202284F83D20002222645A6912F0F1
:101AA000400F04D01A69636A591C61621A70226877
:101AB000136823F0010313602046FFF770FFE2E78D
:101AC000236C13F0040FE3D0074BE362002323637E
:101AD000202284F83D2084F83E302046FFF753FD55
:101AE000D6E700BF291E00080000FFFF10B582B036
:101AF00090F83D30DBB201684A6822F4E0624A6047
:101B000000220192026851690191116841F00101BE
:101B10001160019A01680A6822F480620A60016813
:101B20004A6812F4006F14D090F83D20D2B2222AF5
:101B30000AD090F83D20D2B22A2A05D0426B126812
:101B4000526892B2428504E0826B1268526892B287
:101B50004285428D92B2F2B14A6912F0040F08D068
:101B60000969426A541C44621170428D013A92B272
:101B700042850268516911F0400F08D01169426A2C
:101B8000541C44621170428D013A92B24285026C3B
:101B900042F004020264026CA2B9282B15D02A2B51
:101BA00013D0292B11D0026B222A01D0222B17D15E
:101BB00000230363202280F83D2080F83E3002F0AD
:101BC0007DFD0DE0FFF7ECFE0AE0074BC36200234A
:101BD0000363202280F83D2080F83E30FFF7D3FCDD
:101BE000002002B010BD00BF0000FFFFF8B50546A1
:101BF00003689F695C695E6890F83E30DBB2102B29
:101C000025D0402B23D04C4B234013B116F4007F3A
:101C10006ED14A4B234013B116F4007F6BD1484B71
:101C20003B40002B6FD0474B234033B116F4806FFD
:101C300003D0454B2340002B61D0434B234053B38B
:101C400016F4007F27D02846FFF78FFB23E014F01F
:101C5000011F02D016F4007F1ED13C4B234013B16C
:101C600016F4007F1CD1344B234013B116F4007FCF
:101C70001AD1334B3B401BB3324B23402BB116F4EC
:101C8000806F02D0304B234093B12F4B234013B1D0
:101C900016F4007F10D1F8BD2846FFF735FAE8E7C3
:101CA0002846FFF776FAE4E72846FFF778FAE0E7F8
:101CB0002846FFF7B4FCEEE72846FFF753FDEAE7B6
:101CC000234B23402BB116F4806F02D01E4B2340D0
:101CD00053B11D4B2340002BDDD016F4007FDAD02A
:101CE0002846FFF7DAFDD6E72846FFF78AFDD2E758
:101CF000FFF735FCCFE72846FFF7F8FECBE728468D
:101D0000FFF7E0FBC7E7124B23402BB116F4806FBF
:101D100002D00D4B234053B10B4B2340002BBAD0C4
:101D200016F4007FB7D02846FFF72EFBB3E728460E
:101D3000FFF7EDFBAFE700BF02000100100001005C
:101D400004001000800001000400010008000100F0
:101D50004000010070B5044603685D695E68314A61
:101D6000154209D016F4807F06D0026C42F00102C1
:101D700002646FF480725A6115F4813F0AD016F440
:101D8000807F07D0236C43F00203236423686FF441
:101D900000725A6115F4823F1AD016F4807F17D072
:101DA00094F83E30DBB2628D91B294F83D20D2B20D
:101DB000206B202B1DD0236C43F00403236494F884
:101DC0003E30DBB2102B22D023686FF480625A6160
:101DD00015F4843F0AD016F4807F07D0236C43F0BB
:101DE0000803236423686FF400625A61236CA3B96B
:101DF00070BD0029DFD1212A05D0292A03D0282A45
:101E0000D9D12128D7D12046FFF7BEFBE0E72268D1
:101E1000136843F400731360D6E72046FFF7C0FD54
:101E2000E6E700BF0001010008B5806B0268136897
:101E300023F48063136000234385426B1365826B38
:101E4000136590F83D30DBB2602B0DD0202380F875
:101E50003D30002380F83E300268136823F0010310
:101E60001360FFF79BFD08BD202380F83D30002361
:101E700080F83E3003640268136823F001031360A6
:101E8000FFF78DFDEFE7000010B582B0002301934E
:101E9000194B1A6C42F080521A641B6C03F0805389
:101EA0000193019B154B01221A60FEF7D3FB0446F8
:101EB000134B5B6813F4803F08D1FEF7CBFB001B8C
:101EC000B0F57A7FF4D9032002B010BD0D4B01228A
:101ED0001A60FEF7BFFB0446094B5B6813F4003F32
:101EE00007D1FEF7B7FB001BB0F57A7FF4D90320CA
:101EF000EAE70020E8E700BF0038024040000E4259
:101F00000070004044000E42002800F09D8070B533
:101F100004464F4B1B6803F00F038B4209D2CBB230
:101F20004B4A1370136803F00F038B4201D001205A
:101F300070BD236813F0020F17D013F0040F04D004
:101F4000444A936843F4E0539360236813F0080F06
:101F500004D0404A936843F4604393603D4A9368D9
:101F600023F0F003A068034393600D46236813F049
:101F7000010F32D06368012B21D09A1E012A25D986
:101F8000344A126812F0020F60D032498A6822F097
:101F9000030213438B60FEF75DFB06462D4B9B68E7
:101FA00003F00C036268B3EB820F16D0FEF752FB0E
:101FB000801B41F288339842F0D90320B8E7254AC4
:101FC000126812F4003FE0D10120B1E7214A126803
:101FD00012F0007FD9D10120AAE71D4B1B6803F046
:101FE0000F03AB4209D9EAB2194B1A701B6803F010
:101FF0000F03AB4201D001209AE7236813F0040FCE
:1020000006D0144A936823F4E053E1680B439360CD
:10201000236813F0080F07D00E4A936823F4604337
:10202000216943EAC103936000F040F8094B9B68C3
:10203000C3F30313084AD35CD840084B1860002050
:10204000FEF7BEFA002073E70120704701206FE71A
:10205000003C024000380240E8530008080000201D
:10206000014B1868704700BF0800002008B5FFF753
:10207000F7FF044B9B68C3F38223034AD35CD84029
:1020800008BD00BF00380240F853000808B5FFF74C
:10209000E7FF044B9B68C3F34233034AD35CD84049
:1020A00008BD00BF00380240F85300082DE9F04B8E
:1020B0005C4B9B6803F00C03082B07D00C2B5BD008
:1020C000042B00F0AD805848BDE8F08B554B5A68A2
:1020D00002F03F025B6813F4800F2AD0514B5B681B
:1020E000C3F388131E4600275C010025E41A65EB44
:1020F0000705A90141EA9461A001001B61EB0501FC
:10210000CB0043EA5073C400A01943EB07014B0214
:1021100043EAD0534402204619460023FEF778F8DC
:10212000404B5B68C3F3014301335B00B0FBF3F04A
:10213000CAE73C4B5B68C3F388131E4600275C016B
:102140000025E41A65EB0705A90141EA9461A001A5
:10215000001B61EB0501CB0043EA5073C400A019DA
:1021600043EB07018B0243EA905384022046194651
:102170000023FEF74DF8D3E72A4B5A6802F03F02DE
:102180005B6813F4800F28D0264B5B68C3F3881379
:102190001E4600275C010025E41A65EB0705A9012E
:1021A00041EA9461A001001B61EB0501CB0043EA09
:1021B0005073C400A01943EB07014B0243EAD0530C
:1021C0004402204619460023FEF722F8154B5B68AF
:1021D000C3F30273B0FBF3F076E7124B5B68C3F313
:1021E00088131E4600275C010025E41A65EB0705ED
:1021F000A90141EA9461A001001B61EB0501CB003C
:1022000043EA5073C400A01943EB07018B0243EA71
:1022100090538402204619460023FDF7F9FFD5E7C5
:10222000024851E7003802400024F40000127A000E
:1022300070B582B00446036813F0010F41D0A64B7D
:102240009B6803F00C03042B32D0A34B9B6803F074
:102250000C03082B27D0A04B9B6803F00C030C2B1E
:1022600059D06368B3F5803F5BD0B3F5A02F5ED043
:10227000994B1A6822F480321A601A6822F480227C
:102280001A606368002B5CD0FEF7E4F90546924BB8
:102290001B6813F4003F14D1FEF7DCF9401B6428DF
:1022A000F5D903209DE18C4B5B6813F4800FD2D0ED
:1022B000894B1B6813F4003F03D06368002B00F0C8
:1022C0008D81236813F0020F67D0834B9B6813F056
:1022D0000C0F4AD0804B9B6803F00C03082B3FD0B7
:1022E0007D4B9B6803F00C030C2B48D0E368002B5C
:1022F00074D07A4B01221A60FEF7ACF90546764B92
:102300001B6813F0020F60D1FEF7A4F9401B0228EE
:10231000F5D9032065E1704B5B6813F4800FA0D002
:10232000C6E76D4A136843F480331360A9E76A4B2C
:102330001A6842F480221A601A6842F480321A60E5
:102340009FE7FEF787F90546634B1B6813F4003FD0
:10235000B7D0FEF77FF9401B6428F5D9032040E190
:102360005D4B5B6813F4800FBAD15B4B1B6813F0B5
:10237000020F0AD0E368012B07D0012031E1564B50
:102380005B6813F4800FB1D1EFE7534A136823F071
:10239000F803216943EAC1031360236813F0080FAF
:1023A00040D0636963B34E4B01221A60FEF752F9C5
:1023B0000546494B5B6F13F0020F33D1FEF74AF924
:1023C000401B0228F5D903200BE1434A136823F090
:1023D000F803216943EAC1031360DEE73F4B0022A3
:1023E0001A60FEF737F905463B4B1B6813F0020FE6
:1023F000D3D0FEF72FF9401B0228F5D90320F0E0D7
:10240000374B00221A60FEF725F90546324B5B6F09
:1024100013F0020F06D0FEF71DF9401B0228F5D974
:102420000320DEE0236813F0040F79D02A4B1B6CE5
:1024300013F0805F33D100230193274B1A6C42F0D5
:1024400080521A641B6C03F080530193019B012599
:10245000244B1B6813F4807F23D0A368012B34D056
:10246000052B41D01C4B1A6F22F001021A671A6F1C
:1024700022F004021A67A368002B3FD0FEF7EAF8A7
:102480000646154B1B6F13F0020F48D1FEF7E2F81A
:10249000801B41F288339842F3D90320A1E0002544
:1024A000D6E7104A136843F480731360FEF7D2F83E
:1024B00006460C4B1B6813F4807FCED1FEF7CAF89A
:1024C000801B0228F5D903208BE0034A136F43F0E9
:1024D00001031367CFE700BF003802400000474206
:1024E000800E474200700040404B1A6F42F00402D9
:1024F0001A671A6F42F001021A67BCE7FEF7AAF8E2
:1025000006463A4B1B6F13F0020F08D0FEF7A2F8F5
:10251000801B41F288339842F3D9032061E0E5B98A
:10252000A369002B5CD0314A926802F00C02082AA1
:1025300059D0022B17D02E4B00221A60FEF78AF8D2
:1025400004462A4B1B6813F0007F45D0FEF782F843
:10255000001B0228F5D9032043E0244A136C23F022
:1025600080531364DCE7224B00221A60FEF772F8F6
:1025700005461E4B1B6813F0007F06D0FEF76AF875
:10258000401B0228F5D903202BE0E369226A13439C
:10259000626A43EA8213A26A5208013A43EA02439A
:1025A000E26A43EA0263226B43EA02730F4A536012
:1025B0000F4B01221A60FEF74DF804460B4B1B68C7
:1025C00013F0007F06D1FEF745F8001B0228F5D96D
:1025D000032006E0002004E0002002E0012000E0EB
:1025E000002002B070BD0120FBE700BF00380240B0
:1025F0006000474200283BD010B5044600238362A8
:1026000090F85130002B2ED0022384F851302268EC
:10261000136823F0400313606368A2681343E26801
:1026200013432269134362691343A26902F40072DF
:102630001343E2691343226A1343A16A22680B43DE
:102640001360638B03F00403616A22680B435360D9
:102650002268D36923F40063D361002060650123FD
:1026600084F8513010BD80F8503001F0E3FBCBE727
:10267000012070477047000010B584B0044602681E
:102680005068936803F0410101290AD013F0020F4A
:102690000ED010F0800F0BD0636C2046984704B02A
:1026A00010BD10F0400FF1D0236C20469847F6E79C
:1026B00013F4B07FF3D010F0200FF0D013F0400FE0
:1026C0000FD094F85110C9B203294AD0616D41F07E
:1026D0000401616500210091D16800919168009129
:1026E000009913F0200F0CD0616D41F0010161657C
:1026F0000021029191680291116821F0400111605E
:10270000029A13F4807F09D0636D43F00803636578
:102710000023039323689B680393039B636D002B43
:10272000BDD02268536823F0E0035360012384F88E
:10273000513010F0030F1CD02268536823F00303BC
:102740005360E36C23B10D4A1A65E06CFEF7F6FAAC
:10275000A36C002BA3D0094A1A65A06CFEF7EEFA11
:102760009DE700230193D368019393680193019B34
:1027700095E72046FFF77EFF91E700BF812700081D
:1027800008B5806B0023C387C386FFF773FF08BDBE
:1027900070B4036A23F001030362036A4268846928
:1027A00024F073040D6845EA040623F002048B68E4
:1027B00023430C4DA84202D00B4CA0420BD123F076
:1027C0000803CD682B4323F0040322F440724D69C3
:1027D00015438A692A43426086614A6842630362FC
:1027E00070BC7047000001400004014030B4036A2F
:1027F00023F480730362036A4268C46924F073049B
:102800000D682C4323F400738D6843EA05230E4DB5
:10281000A84203D005F58065A8420ED123F40063D9
:10282000CD6843EA052323F4806322F440524D69C6
:1028300042EA05128D6942EA05124260C4614A68A3
:10284000C263036230BC70470000014030B4036AC9
:1028500023F480530362036A4468C26922F4E642A7
:102860000D6842EA052223F400538D6843EA0533DC
:10287000094DA84203D005F58065A84204D124F48F
:1028800080444D6944EA85144460C2614A68026428
:10289000036230BC704700BF0000014030B4046ADE
:1028A00024F0100404628469056A24F4407444EA44
:1028B000022222F470421B039BB21A4325F0A005AA
:1028C000090101F0A00129438261016230BC704717
:1028D00030B4046A24F480740462C469056A24F084
:1028E0000304224322F0F0021B01DBB21A4325F459
:1028F0002065090201F420612943C261016230BCF4
:10290000704730B4046A24F480540462C469056AD0
:1029100024F4407444EA022222F470421B039BB266
:102920001A4325F42045090301F420412943C261DB
:10293000016230BC7047034690F83820012A1ED04F
:10294000012280F838200C2917D8DFE801F007169B
:1029500016160D1616161016161613000268506B72
:10296000002283F8382070470268906BF8E702680D
:10297000D06BF5E70268106CF2E70020F0E7022068
:10298000704770477047704710B5044603681A696E
:1029900012F0020F11D0DA6812F0020F0DD06FF0B2
:1029A00002021A610123037603689B6913F0030F87
:1029B00070D001F0F1FF0023237623681A6912F02A
:1029C000040F12D0DA6812F0040F0ED06FF0040278
:1029D0001A610223237623689B6913F4407F5FD03A
:1029E000204601F0D9FF0023237623681A6912F0EC
:1029F000080F12D0DA6812F0080F0ED06FF008023C
:102A00001A61042323762368DB6913F0030F4ED089
:102A1000204601F0C1FF0023237623681A6912F0D3
:102A2000100F12D0DA6812F0100F0ED06FF01002F3
:102A30001A61082323762368DB6913F4407F3DD0B5
:102A4000204601F0A9FF0023237623681A6912F0BB
:102A5000010F03D0DA6812F0010F36D123681A692A
:102A600012F0800F03D0DA6812F0800F34D123689F
:102A70001A6912F0400F03D0DA6812F0400F32D119
:102A800023681A6912F0200F03D0DA6812F0200FC1
:102A900030D110BDFFF775FF2046FFF773FF8AE7BF
:102AA0002046FFF76EFF2046FFF76CFF9BE72046AE
:102AB000FFF767FF2046FFF765FFACE72046FFF70B
:102AC00060FF2046FFF75EFFBDE76FF001021A616D
:102AD000204601F057FEC1E76FF080021A612046E0
:102AE00000F09CFAC3E76FF040021A612046FFF73E
:102AF0004AFFC5E76FF020021A61204600F08DFA08
:102B0000C7E7000003682E4A904212D0B0F1804F10
:102B10000FD0A2F57C4290420BD002F58062904229
:102B200007D002F58062904203D002F578429042CD
:102B300003D123F070034A681343214A90422AD0FC
:102B4000B0F1804F27D0A2F57C42904223D002F50D
:102B5000806290421FD002F5806290421BD002F545
:102B60007842904217D002F57052904213D002F58D
:102B7000806290420FD002F5806290420BD0A2F5A5
:102B80009832904207D002F58062904203D002F55D
:102B90008062904203D123F44073CA6813430360F8
:102BA0008B68C3620B688362054B984203D003F5C0
:102BB0008063984201D10B6903630123436170472D
:102BC00000000140A8B110B5044690F839305BB15F
:102BD000022384F83930211D2068FFF793FF012379
:102BE00084F83930002010BD80F8383001F064FAE4
:102BF000EEE701207047A8B110B5044690F83930CF
:102C00005BB1022384F83930211D2068FFF77AFF79
:102C1000012384F83930002010BD80F8383001F0ED
:102C2000A9F9EEE701207047A8B110B5044690F865
:102C300039305BB1022384F83930211D2068FFF759
:102C400061FF012384F83930002010BD80F838304E
:102C500001F06CFAEEE701207047002847D0F8B584
:102C600005460C4690F83930002B3BD0022385F8FE
:102C70003930294651F8042B936823F007039360F9
:102C80002868FFF73FFF29688A688E690F6A206805
:102C9000104326F4407626F00306A268A36942EAB0
:102CA0000323334323F47C4323F0FC03E668E26907
:102CB00046EA02261E43226A1303226943EA0213EC
:102CC000334327F0AA076268646942EA04123A4370
:102CD000886029688B612B681A62012385F8393076
:102CE0000020F8BD80F8383001F064F9BEE701201B
:102CF0007047000070B4046A24F00104046284691F
:102D0000056A1A4EB0421FD0B0F1804F1CD0A6F514
:102D10007C46B04218D006F58066B04214D006F565
:102D20008066B04210D006F57846B0420CD006F569
:102D30007056B04208D0A6F59436B04204D024F0C4
:102D4000030242F0010202E024F00304224322F0D5
:102D5000F0021B01DBB2134325F00A0201F00A0165
:102D600011438361016270BC704700BF00000140E5
:102D700038B590F83830012B58D00D460446012361
:102D800080F83830022380F83930DAB1042A2AD0AA
:102D9000082A3AD0CB684A6809680068FFF7B1FD95
:102DA0002268D36923F44063D3612268D369A96898
:102DB00043EA0123D361012384F83930002084F8E9
:102DC000380038BDCB684A6809680068FFF792FF91
:102DD0002268936923F00C03936122689369A968C0
:102DE0000B439361E7E7CB684A6809680068FFF71F
:102DF00055FD2268936923F44063936122689369C7
:102E0000A96843EA01239361D5E7CB684A6809685A
:102E10000068FFF75DFD2268D36923F00C03D361DE
:102E20002268D369A9680B43D361C4E70220C8E7CD
:102E300030B4036A23F010030362036A44688269B2
:102E400022F4E6420D6842EA052223F020038D6851
:102E500043EA05130E4DA84203D005F58065A8424C
:102E60000ED123F08003CD6843EA051323F040031D
:102E700024F440644D6944EA85048D6944EA85047C
:102E8000446082614A688263036230BC704700BF5D
:102E90000000014038B590F83830012B66D00D465F
:102EA0000446012380F83830022380F839300C2A98
:102EB0001AD8DFE802F0071919192019191934195D
:102EC000191947000068FFF763FC2268936943F013
:102ED000080393612268936923F0040393612268D5
:102EE000936929690B439361012384F839300020E9
:102EF00084F8380038BD0068FFF79AFF22689369AC
:102F000043F4006393612268936923F480639361BF
:102F100022689369296943EA01239361E4E7006821
:102F2000FFF764FC2268D36943F00803D361226889
:102F3000D36923F00403D3612268D36929690B4361
:102F4000D361D1E70068FFF781FC2268D36943F4BD
:102F50000063D3612268D36923F48063D36122685C
:102F6000D369296943EA0123D361BDE70220C1E7A0
:102F700090F83830012B22D030B4012280F838206C
:102F8000022380F839300468636823F070036360BB
:102F9000046863680D682B4363600468A36823F0CA
:102FA0008003A3600468A36849680B43A36080F8AA
:102FB0003920002380F83830184630BC7047022092
:102FC000704790F83830012B25D0012380F8383035
:102FD000CB6823F440738A68134323F480634A6800
:102FE000134323F400630A68134323F480530A69EC
:102FF000134323F400534A69134323F480438A693B
:10300000134323F40043134302685364002380F8FE
:1030100038301846704702207047704770470000EC
:103020002DE9F843044601680A6922F44052C36856
:1030300013430B610168CA6822F4164222F00C02A5
:1030400083680069034360690343E06903431343F2
:10305000CB6021684A6922F44072A36913434B6133
:10306000E369B3F5004F60D02368B84A934200F09B
:10307000148102F58062934200F00F81FEF7F6FFA3
:1030800000EB800000EB80006568AD00B0FBF5F55B
:10309000AF4FA7FB05356D092E01FEF7E7FF00EBEB
:1030A000800000EB80006568AD00B0FBF5F9FEF72D
:1030B000DDFF00EB800000EB80006568AD00B0FB39
:1030C000F5F5A7FB05356D094FF0640808FB15956C
:1030D0002D013235A7FB05356D0905F0F0053544A6
:1030E000FEF7C4FF00EB800000EB80006668B600CE
:1030F000B0FBF6F6FEF7BAFF00EB800000EB8000B5
:1031000063689B00B0FBF3F0A7FB0030400908FBAD
:1031100010684FEA081808F13208A7FB0837C7F310
:10312000431723682F449F600DE12368874A934229
:103130005BD002F58062934257D0FEF797FF00EB19
:10314000800000EB800065686D00B0FBF5F5804FF6
:10315000A7FB05356D092E01FEF788FF00EB800007
:1031600000EB800065686D00B0FBF5F9FEF77EFFAF
:1031700000EB800000EB800065686D00B0FBF5F5AA
:10318000A7FB05356D094FF0640808FB1595ED00A8
:103190003235A7FB05356D096D0005F4F87535442A
:1031A000FEF764FF00EB800000EB800066687600AD
:1031B000B0FBF6F6FEF75AFF00EB800000EB800054
:1031C00063685B00B0FBF3F3A7FB03235B0908FB19
:1031D00013684FEAC80808F13208A7FB0837C7F39D
:1031E000421723682F449F60ADE0FEF74FFF00EBCE
:1031F000800000EB800065686D00B0FBF5F5544F72
:10320000A7FB05356D092E01FEF740FF00EB80009E
:1032100000EB800065686D00B0FBF5F9FEF736FF46
:1032200000EB800000EB800065686D00B0FBF5F5F9
:10323000A7FB05356D094FF0640808FB1595ED00F7
:103240003235A7FB05356D096D0005F4F875354479
:10325000FEF71CFF00EB800000EB80006668760044
:10326000B0FBF6F6FEF712FF00EB800000EB8000EB
:1032700063685B00B0FBF3F3A7FB03235B0908FB68
:1032800013684FEAC80808F13208A7FB0837C7F3EC
:10329000421723682F449F6055E0FEF7F7FE00EBCE
:1032A000800000EB80006568AD00B0FBF5F5284FAD
:1032B000A7FB05356D092E01FEF7E8FE00EB800047
:1032C00000EB80006568AD00B0FBF5F9FEF7DEFEAF
:1032D00000EB800000EB80006568AD00B0FBF5F509
:1032E000A7FB05356D094FF0640808FB15952D0106
:1032F0003235A7FB05356D0905F0F0053544FEF7BD
:10330000C5FE00EB800000EB80006668B600B0FBF5
:10331000F6F6FEF7BBFE00EB800000EB8000636872
:103320009B00B0FBF3F0A7FB0030400908FB1068DE
:103330004FEA081808F13208A7FB0837C7F343170C
:1033400023682F449F60BDE8F88300BF0010014050
:103350001F85EB512DE9F04105460F46164698466C
:10336000069C2B681B6837EA03030CBF012300236C
:10337000B3421DD1B4F1FF3FF3D02CB1FDF76AF990
:10338000A0EB0800A042ECD92A68D36823F4D073DC
:10339000D3602A68536923F001035361202385F821
:1033A000393085F83A30002385F83830032000E0C2
:1033B0000020BDE8F08158B310B5044690F83930CC
:1033C0000BB3242384F839302268D36823F40053E4
:1033D000D3602046FFF724FE2268136923F490434C
:1033E00013612268536923F02A0353612268D3686A
:1033F00043F40053D3600020E063202384F8393085
:1034000084F83A3010BD80F8383000F003FFD8E778
:10341000012070472DE9F04182B01E4690F8393006
:10342000DBB2202B55D104460D469046002955D0DD
:10343000002A55D090F83830012B53D0012380F862
:1034400038300023C363212380F83930FDF702F9B7
:103450000746A4F82480A4F8268010E000963B4696
:10346000002280212046FFF775FF00283CD12B88E1
:103470002268C3F3080353602369C3B90235E38CA0
:103480009BB2B3B1E38C013B9BB2E384A368B3F579
:10349000805FE3D000963B46002280212046FFF764
:1034A00059FF18BB2A7823685A600135E7E70135D0
:1034B000E5E700963B46002240212046FFF74AFF01
:1034C0000346A8B9202284F83920002284F8382045
:1034D00000E00223184602B0BDE8F0810123F9E7BD
:1034E0000123F7E70223F5E70323F3E70323F1E7DB
:1034F0000323EFE708B5034801F0A0FA024801F002
:10350000DDFAFBE7F404002000540008F0B58BB0AE
:1035100000240594069407940894099401942F4B71
:103520001A6B42F004021A631A6B02F00402019251
:10353000019A02941A6B42F080021A631A6B02F02D
:1035400080020292029A03941A6B42F001021A63FB
:103550001A6B02F001020392039A04941A6B42F070
:1035600002021A631B6B03F002030493049B1C4FBB
:10357000224620213846FDF7C1FD1A4D22464FF460
:1035800086512846FDF7BAFD4FF400530593164BBC
:103590000693079405A91548FDF7D2FC202305934F
:1035A000012606960794089405A93846FDF7C8FC3D
:1035B0004FF48053059306960794089405A928466E
:1035C000FDF7BEFCC02305930696079403230893DA
:1035D00005A92846FDF7B4FC0BB0F0BD0038024049
:1035E00000000240000402400000211000080240D8
:1035F00010B582B0002400941E4B1A6B42F40012E6
:103600001A631A6B02F400120092009A01941A6B6A
:1036100042F480021A631B6B03F480030193019B45
:10362000224621460B20FDF767FA0B20FDF798FA9A
:10363000224621460E20FDF75FFA0E20FDF790FA94
:10364000224621460F20FDF757FA0F20FDF788FA92
:10365000224621462F20FDF74FFA2F20FDF780FA52
:10366000224621463820FDF747FA3820FDF778FA40
:1036700002B010BD0038024008B50848084B03608E
:103680004FF4E133436000238360C36003610C2285
:1036900042618361C361FFF78EFE08BDF404002020
:1036A0000044004030B591B000240E940F9407946C
:1036B000089409940A940B940C940D94009401942A
:1036C000029403940494059406941F4D1F4B2B60A1
:1036D0006C60AC60EC602C616C612846FFF78BFA83
:1036E0000E940F940EA92846FFF742FC602307931F
:1036F000089409940A940B940C940D94224607A9FB
:103700002846FFF7C7FB042207A92846FFF7C2FB9C
:10371000082207A92846FFF7BDFB0C2207A9284667
:10372000FFF7B8FB009401940294039404944FF4BF
:1037300000530593069469462846FFF742FC284645
:1037400000F03AFD11B030BD5804002000000140E7
:1037500008B50948094B0360094B436000238360A7
:103760000C22C2604FF48042026143618361C361F5
:103770000362FDF719FE08BDF4010020005400406B
:10378000A086010008B50A480A4B036042F2107394
:103790004360002383600622C2604FF480420261CE
:1037A00043618361C3610362FDF7FEFD08BD00BF95
:1037B000840200200058004008B50D480D4B0360FE
:1037C0004FF48273436000238360C360022202616E
:1037D000012242614FF4007282611822C2610362C9
:1037E000436283620A23C362FEF704FF08BD00BF81
:1037F000B800002000380040F0B585B000230093E9
:103800000193029303931C4C1C4A22604FF48032B4
:103810006260A36001252561A5612362E362184A05
:10382000A262E3600426E661256365612046FCF739
:10383000AFFF0623009301950327029769462046B0
:10384000FDF77CF807250095022301936946204681
:10385000FDF774F808230093019769462046FDF7A9
:103860006DF8084B00930196029569462046FDF7D6
:1038700065F805B0F0BD00BFB00300200020014096
:103880000100000F1200001030B585B00023009336
:10389000019302930393104C104A22604FF480323C
:1038A0006260A3602361A3612362E3620C4AA262A7
:1038B000E3600125E561236365612046FCF768FF4D
:1038C0000923009301950723029369462046FDF7DB
:1038D00035F805B030BD00BF4C010020002101408B
:1038E0000100000F30B587B00024049405940094C3
:1038F000019402940394114D114B2B606C60AC60E9
:10390000EC602C616C612846FFF78EF904940594F5
:1039100004A92846FFF72CFB00940123019302948D
:103920000394042269462846FFF722FA08226946D2
:103930002846FFF71DFA07B030BD00BF1001002078
:103940000004014030B583B0002400940194084D78
:10395000084B2B606C60AC60EC602846FFF732F9D6
:103960000094019469462846FFF702FB03B030BD7E
:10397000940500200014004008B50548054B03607D
:10398000002343608360C3600361FFF71BF908BD38
:10399000480200200044014030B58DB020220021B3
:1039A00004A801F0FEF80024019402940B4D0C4B86
:1039B0002B606C60AC60EC602C6101230393059379
:1039C000099303A92846FFF748F90194029401A935
:1039D0002846FFF7CDFA0DB030BD00BF38030020F8
:1039E000000C004030B58DB02022002104A801F069
:1039F000D8F80024019402940B4D0C4B2B606C60A2
:103A0000AC60EC602C61012303930593099303A937
:103A10002846FFF722F90194029401A92846FFF7EE
:103A2000A7FA0DB030BD00BF7403002000040040B1
:103A300030B595B03422002107A801F0B2F8002477
:103A40000294039404940594069400941D4B1A6CFC
:103A500042F080521A641B6C03F080530093009B69
:103A60000194194B1A6842F440421A601B6803F42F
:103A700040430193019B012307934FF48033089344
:103A800002250D954FF480030E9304230F93B42366
:103A9000109311951295139507A8FEF7C9FBFEF731
:103AA000F3F90F230293039504944FF4A053059365
:103AB0004FF480530693052102A8FEF725FA15B0AE
:103AC00030BD00BF003802400070004008B5FCF770
:103AD0009BFDFFF7ADFFFFF719FDFFF789FDFFF72E
:103AE000CBFDFFF7DFFDFFF733FEFFF74BFEFFF7E0
:103AF00063FEFFF781FEFFF7F5FEFFF723FFFFF7F9
:103B00004BFFFFF76FFFFFF737FFFFF7BDFEFFF734
:103B1000F1FCFEE77047000082B0002100910B4BE2
:103B20005A6C42F480425A645A6C02F48042009209
:103B3000009A01911A6C42F080521A641B6C03F0D7
:103B400080530193019B02B0704700BF00380240D0
:103B500070B58AB0002305930693079308930993E1
:103B60000368434A934204D0424A934258D00AB071
:103B700070BD0446002500953F4B5A6C42F480729C
:103B80005A645A6C02F480720092009A01951A6B82
:103B900042F001021A631A6B02F001020192019ACB
:103BA00002951A6B42F002021A631B6B03F00203C8
:103BB0000293029BC02305930326069605A92F486E
:103BC000FDF7BEF9012305930696079505A92C4834
:103BD000FDF7B6F92B482C4B036045608560C56046
:103BE0004FF4806303614FF4006343614FF400536B
:103BF00083614FF48073C36105624562FDF738F855
:103C000058B9204BA3639C63002211461220FCF795
:103C100073FF1220FCF7A4FFA9E7FFF77BFFF0E793
:103C200000240394144B5A6C42F400725A645A6C88
:103C300002F400720392039A04941A6B42F0020297
:103C40001A631B6B03F002030493049B0223059386
:103C50000323069305A90A48FDF772F92246214677
:103C60001220FCF749FF1220FCF77AFF7FE700BF24
:103C700000200140002101400038024000000240C5
:103C800000040240F8030020106402402DE9F043D4
:103C90008BB0002305930693079308930993036859
:103CA0005B4A934205D05B4A93426FD00BB0BDE8AC
:103CB000F083044600250095574E336B43F0020312
:103CC0003363336B03F002030093009B4FF44073A4
:103CD000059312230693032308930423099305A94C
:103CE0004E48FDF72DF90195336C43F4001333640E
:103CF000336C03F400130193019B4948494B036063
:103D00004FF00073436040238360C5604FF48063CD
:103D1000036145618561C5614FF4403303624562CB
:103D2000FCF7A6FF60BB3E4B63639C633E483F4B82
:103D300003604FF00073436000238360C3604FF45F
:103D40008062026143618361C3614FF44032026269
:103D50004362FCF78DFFB0B9334BA3639C63002231
:103D600011461F20FCF7C8FE1F20FCF7F9FE0022B9
:103D700011462020FCF7C0FE2020FCF7F1FE95E75D
:103D8000FFF7C8FECFE7FFF7C5FEE5E70025029580
:103D9000214C236B43F002032363236B03F00203E4
:103DA0000293029B0395236B43F004032363236B6D
:103DB00003F004030393039B4FF4806305934FF0D8
:103DC0001209CDF818904FF00108CDF81C80032798
:103DD00008970426099605A91048FDF7B1F84FF495
:103DE00080530593CDF81890CDF81C80089709965C
:103DF00005A90F48FDF7A4F80495236C43F480034C
:103E00002364236C03F480030493049B4EE700BFF8
:103E100000540040005800400038024000040240B6
:103E200094010020B8600240940400201060024019
:103E3000000802402DE9F04389B000230393049366
:103E40000593069307930268434B9A4202D009B048
:103E5000BDE8F08305460024009403F500331A6C96
:103E600042F480421A641A6C02F480420092009A72
:103E700001941A6B42F004021A631A6B02F00402F6
:103E80000192019A02941A6B42F002021A631B6BB0
:103E900003F002030293029B022603960496032773
:103EA000069707230793DFF8C89003A94846FDF754
:103EB00047F8042303930496059406974FF00508EA
:103EC000CDF81C8003A94846FDF73AF84FF400539B
:103ED0000393049605940697CDF81C8003A91F4808
:103EE000FDF72EF81E481F4B036044608460C460D9
:103EF0004FF48063036144618461C461046244627D
:103F0000FCF7B6FE08BB164BEB649D631648174BD7
:103F100003600023436040228260C3604FF48062EC
:103F2000026143618361C36103624362FCF7A0FEE7
:103F300070B90D4BAB649D63002211462420FCF741
:103F4000DBFD2420FCF70CFE81E7FFF7E3FDDAE759
:103F5000FFF7E0FDEDE700BF00380040000402403D
:103F6000D8020020586002403405002070600240F2
:103F70000008024002680E4B9A4200D0704700B51C
:103F800083B00021019103F59C335A6C42F0010289
:103F90005A645B6C03F001030193019B0A461920EC
:103FA000FCF7AAFD1920FCF7DBFD03B05DF804FB6C
:103FB0000000014030B58BB00023059306930793B2
:103FC000089309930368364A934204D0354A9342D2
:103FD0003DD00BB030BD00240094334B1A6C42F03E
:103FE00002021A641A6C02F002020092009A019412
:103FF0001A6B42F004021A631A6B02F00402019277
:10400000019A02941A6B42F002021A631B6B03F0CE
:1040100002030293029B402305930225069509950E
:1040200005A92248FCF78CFF2023059306950794E9
:104030000894099505A91E48FCF782FF22462146EF
:104040001D20FCF759FD1D20FCF78AFDC1E7002467
:104050000394154B1A6C42F008021A641A6C02F0B1
:1040600008020392039A04941A6B42F001021A6345
:104070001B6B03F001030493049B032305930223AA
:104080000693099305A90B48FCF75AFF22462146DF
:104090003220FCF731FD3220FCF762FD99E700BFCA
:1040A00000040040000C00400038024000080240BC
:1040B000000402400000024000B583B00368184AC3
:1040C000934205D0174A934216D003B05DF804FB23
:1040D00000210091144B1A6C42F020021A641B6CF0
:1040E00003F020030093009B0A463720FCF704FDF1
:1040F0003720FCF735FDE8E7002101910A4B5A6CA7
:1041000042F400325A645B6C03F400330193019B68
:104110000A461920FCF7F0FC1920FCF721FDD4E732
:1041200000140040004401400038024010B588B03F
:10413000002303930493059306930793026803F106
:10414000804303F582339A4201D008B010BD0024A9
:10415000019403F59A335A6C42F002025A645A6C85
:1041600002F002020192019A02941A6B42F00402D8
:104170001A631B6B03F004030293029B4FF4C0739A
:104180000393022304930323079303A90948FCF72D
:10419000D7FE224621462C20FCF7AEFC2C20FCF753
:1041A000DFFC224621462E20FCF7A6FC2E20FCF741
:1041B000D7FCCAE70008024000B587B0002301938E
:1041C000029303930493059302680F4B9A4202D023
:1041D00007B05DF804FB002300930C4B1A6B42F010
:1041E00001021A631B6B03F001030093009B4FF461
:1041F00070630193022302930123059301A90448EC
:10420000FCF79EFEE4E700BF0000014000380240DA
:104210000000024000B589B0002303930493059386
:10422000069307930268164B9A4202D009B05DF8D4
:1042300004FB0021019103F5FA331A6C42F40032B9
:104240001A641A6C02F400320192019A02911A6BFC
:1042500042F001021A631B6B03F001030293029BFD
:104260000C23039302230493012305930323069352
:104270000723079303A90348FCF762FED6E700BFB4
:1042800000440040000002407047FEE7FEE7FEE702
:10429000FEE770477047704708B5FCF7CFF908BDD7
:1042A00008B50248FCF75EFD08BD00BF940400207D
:1042B00008B50248FCF756FD08BD00BFD802002033
:1042C00008B50248FCF74EFD08BD00BF34050020CC
:1042D00008B50348FCF78BFA0248FCF788FA08BDDA
:1042E000B00300204C01002008B50348FEF74CFB4A
:1042F0000248FEF749FB08BD580400204802002090
:1043000008B50248FEF740FB08BD00BF740300205B
:1043100008B50248FDF76AFC08BD00BFF4010020A3
:1043200008B50248FDF716FD08BD00BFF4010020E6
:1043300008B50248FEF7A0F908BD00BFB80000208C
:1043400008B50248FEF720FB08BD00BF10010020A1
:1043500008B50248FEF718FB08BD00BF1001002099
:1043600008B50248FCF7FEFC08BD00BF9401002020
:1043700008B50248FEF708FB08BD00BF380300205F
:1043800008B50248FEF700FB08BD00BF94050020F9
:1043900008B50248FCF7E6FC08BD00BFF8030020A2
:1043A0000F49D1F8883043F47003C1F888300D4BC1
:1043B0001A6842F001021A60002098601A6822F020
:1043C000847222F480321A60074A5A601A6822F412
:1043D00080221A60D8604FF000638B60704700BF86
:1043E00000ED00E0003802401030002408B501461E
:1043F000014800F063FB08BD2C540008404B1B68CB
:10440000834200D0704770B50D460446022902D0A1
:10441000042D3AD070BD066A042000F0A1F956F8C8
:10442000203063B9364E0421306800F01BFA354B5A
:10443000186002220421306800F0C0F9E8E7266A1B
:10444000042000F08DF956F82030022BE0D1042131
:104450002B4B186800F006FA2A4B1A68821A9A60E9
:104460009B68002B06DB00220421254B186800F016
:10447000A5F9CDE7234A1368A1680B4411685B1ABC
:10448000013391680B449360EDE7256A082000F042
:1044900067F955F82030D3B1256A082000F060F99B
:1044A00055F82030022BB5D10821154B186800F0C3
:1044B000D9F9144B5A68821ADA60DB68002B13DBD7
:1044C000002208210E4B186800F078F9A2E70C4C86
:1044D0000821206800F0C6F90A4B58600222082122
:1044E000206800F06BF995E7064A5368A1680B4411
:1044F00051685B1A0133D1680B44D360E0E700BF19
:10450000E00600208C00002008B51F4B1B6883428A
:1045100000D008BD1D4B1B7CCBB11C4B1B7CDBB200
:10452000012B1AD0194B1B7CDBB2022B1BD0174B73
:104530001B7CDBB2032B1CD0144B1B7CDBB2032B8C
:104540001DD0124A137C0133DBB21374E1E7012161
:104550000F4B186800F058F8EEE701210D4B186872
:1045600000F052F8E8E70021094B186800F04CF819
:10457000E2E70021074B186800F046F8DCE7034B40
:1045800000221A74C5E700BF340600208C0000200A
:10459000EC060020AC0600207047000038B5054648
:1045A000002408E00F4B53F82400032380F8383030
:1045B000FFF7F2FF01340C4B1B88A34210DD094BBF
:1045C00053F824301868A842F4D11B79012BE9D1A3
:1045D000FCF708F9034B53F8243080B29881E1E7E7
:1045E00038BD00BF640700209E00002008B50122EE
:1045F00081880068FCF782FD08BD08B5002281882B
:104600000068FCF77BFD08BD08B5012902D0FFF763
:10461000F4FF08BDFFF7EAFFFBE7704738B5054632
:10462000002400E00134084B1B88A3420BDD074B3C
:1046300053F824000368AB42F4D1032380F8D83048
:10464000FFF7EBFFEEE738BDA00000207807002061
:1046500038B50546002400E00134084B1B88A3420E
:104660000BDD074B53F824000368AB42F4D103235E
:1046700080F8D830FFF7D1FFEEE738BDA00000206A
:10468000780700207047000038B50546002400E098
:104690000134084B1B88A3420BDD074B53F8240061
:1046A0000368AB42F4D1032380F8D930FFF7EAFF67
:1046B000EEE738BDA00000207807002038B5054699
:1046C000002400E00134084B1B88A3420BDD074B9C
:1046D00053F824000368AB42F4D1032380F8D930A7
:1046E000FFF7D0FFEEE738BDA000002078070020DC
:1046F000016103681B6859627047000008B590F8B3
:104700002430DBB2012B00D008BD037F012B17D072
:10471000002BF9D103681A68536A1BB20F498B4208
:1047200013DB536A1BB247F6F7729342ECDDC36AA0
:1047300003F5FF437833C3620021FFF7D9FFE3E7B6
:1047400003681B685A6A5B6ADEE7C36AA3F5FF4326
:10475000783BC3620021FFF7CBFFD5E70980FFFF5D
:1047600048B1042809D0082809D00C2801D000201D
:1047700070470420704701207047022070470320D3
:104780007047704738B50546002400E00134094BF6
:104790001B88A3420DDD084B53F824000368AB428D
:1047A000F4D1FFF7B1FE044B53F82400FFF7E9FF03
:1047B000ECE738BDA2000020A0070020F8B50646AF
:1047C0000C461546076A0846FFF7CAFF47F820500F
:1047D000ACB933681A68136A23F00A031B041B0C74
:1047E00013625CB3042C2FD0082C34D033681A68C1
:1047F000136A2D0305F400551D43156223E0042CB4
:104800000AD0082C11D033681A68136A23F40053B5
:104810001B041B0C1362E4E733681A68136A23F065
:10482000A0031B041B0C1362DBE733681A68136ACE
:1048300023F420631B041B0C1362D2E733681A684D
:10484000136A1D431562F8BD33681A68136A43EA98
:1048500005151562F7E733681A68136A43EA0525F8
:104860001562F0E708B50068FEF765F808BDF8B511
:10487000056A95F83C30DBB2012B00D0F8BD022967
:104880002FD0002604292ED008292ED0044695F8D2
:104890003D30DBB2012B2AD03046FFF761FF0746DF
:1048A00055F82030022B5ED055F82030002BE5D192
:1048B00031462046FFF7D6FF226A3B1D02EB8303F9
:1048C0005B68C01A07F10A0342F82300226A52F813
:1048D0002330002B56DB022231462046FFF76EFFC5
:1048E000CCE70426CEE70826CEE70C26CEE73046F6
:1048F000FFF736FF074655F82030E3B155F8203072
:10490000022BBBD131462046FFF7ACFF226A3B1D8C
:1049100002EB83035B68C01A07F10A0342F8230025
:10492000226A52F82330002B14DB00223146204645
:10493000FFF744FFA2E731462046FFF793FF236AC3
:10494000043703EB87035860022231462046FFF705
:1049500035FF93E7A16801310A3752F827300B443D
:1049600042F82730E1E731462046FFF77BFF236A14
:10497000043703EB87035860002231462046FFF7D7
:104980001DFF7BE7A16801310A3752F827300B443D
:1049900042F827309FE70000F8B50546002400E004
:1049A00001340D4B1B88A34214DD0C4B53F824003B
:1049B0000368AB42F4D12F7E3946FFF758FF074E0C
:1049C00056F82400FFF79AFE394656F82400FFF700
:1049D00015FDE5E7F8BD00BFA2000020A0070020FC
:1049E00010B401604FF6FF73C0F8CC304FF0FF33C6
:1049F000C0F8D030012380F8D43080F8D5300023BF
:104A00000C4A128814469A420BDD0B4A52F82320B6
:104A100012688A4201D00133F2E7074A42F82300C4
:104A200005E00132034B1A80034B43F824005DF884
:104A3000044B7047A4000020DC08002008B50146A4
:104A40000148FFF7CDFF08BD0408002070B50546FA
:104A5000044654F8046B2046FBF75AFDD5F8CC30D9
:104A600082B221463046FEF7D5FC022808D0032842
:104A70000AD0012817D030B9032385F8D43002E0DA
:104A8000022385F8D43070BD042385F8D4302B6818
:104A9000002283F838202B68202283F8392005482B
:104AA00000F022F8EFE7052385F8D430024800F043
:104AB0001BF8E8E734540008585400080FB410B548
:104AC00082B004AA52F8041B0192064C204600F062
:104AD00087F8201FFFF7BAFF02B0BDE8104004B00E
:104AE000704700BF0808002008B5FFF77FFC08BD2D
:104AF000DFF834D0002103E00C4B5B584350043105
:104B00000B480C4B42189A42F6D30B4A02E00023A2
:104B100042F8043B094B9A42F9D3FFF741FC00F0FD
:104B200011F8FEF7D3FF7047000002202C56000852
:104B300000000020700000207000002030090020DC
:104B4000FEE7000070B50D4E0D4CA41BA41000250F
:104B5000A54209D10B4E0C4C00F036FCA41BA4104E
:104B60000025A54205D170BD56F82530984701357E
:104B7000EEE756F8253098470135F2E7245600084D
:104B800024560008245600082856000810B5431E75
:104B90000A44914200D110BD11F8014B03F8014FB6
:104BA000F7E702440346934200D1704703F8011B24
:104BB000F9E7000000B59BB0009104916FF000414F
:104BC0000591029105490391694600F06DF8009B3B
:104BD00000221A701BB05DF804FB00BF0802FFFF43
:104BE00013460A46014602480068FFF7E3BF00BFCC
:104BF0000C0000202DE9F0478E689E4282460C464C
:104C00009046994637D88A8912F4906F31D025683A
:104C100009696F1A6569022305EB450595FBF3F5F4
:104C200009F101033B449D4238BF1D46530530D571
:104C3000294600F021FB064650B90C23CAF8003083
:104C4000A38943F04003A3814FF0FF30BDE8F08714
:104C50003A462169FFF79AFFA38923F4906343F052
:104C60008003A381266165613E44ED1B2660A5603B
:104C70004E464E4500D94E4632464146206800F029
:104C800093FAA3689B1BA36023681E442660002040
:104C9000DCE72A4600F04AFB06460028E2D12169FB
:104CA000504600F09BFAC8E72DE9F04F1D468B896E
:104CB0001F069DB080460C4616460FD50B696BB992
:104CC000402100F0D9FA2060206128B90C23C8F8EF
:104CD00000304FF0FF30C8E04023636100230993A8
:104CE00020238DF8293030238DF82A3003954FF09A
:104CF000010B37463D4615F8013B0BB1252B3ED144
:104D0000B7EB060A0BD05346324621464046FFF722
:104D100071FF013000F0A480099B534409933B7854
:104D2000002B00F09D8000234FF0FF32CDE90523DA
:104D3000049307938DF853301A932F46052217F8E2
:104D4000011B5048FBF7ECFB049BD0B9D90644BFCC
:104D500020228DF853201A0744BF2B228DF85320B0
:104D60002A782A2A15D0079A2F4600200A25394684
:104D700011F8013B303B092B4DD9B8B10FE02F465C
:104D8000B8E7404A801A0BFA00F0184304903D46F9
:104D9000D3E7039A111D12680391002A01DB0792E1
:104DA00004E0524243F00203079204933B782E2B17
:104DB0000CD17B782A2B33D1039B1A1D1B680392DD
:104DC000002BB8BF4FF0FF33023705932E4D3978D3
:104DD00003222846FBF7A4FB38B14023401B03FA0B
:104DE00000F0049B034301370493397827488DF87A
:104DF000281006227E1CFBF793FB002838D0244B9A
:104E000013BB039B073323F0070308330393099B6A
:104E10004B4409936DE705FB023201200F46A6E7DC
:104E200000230137059319460A25384610F8012B4F
:104E3000303A092A03D9002BC8D00591C6E705FBF3
:104E4000012101230746F0E703AB00932246114BF3
:104E500004A94046AFF30080B0F1FF3F8146D6D1B0
:104E6000A3895B063FF535AF09981DB0BDE8F08F0B
:104E700003AB00932246074B04A9404600F082F89A
:104E8000EAE700BF885500088E55000892550008D3
:104E900000000000F54B00082DE9F04791461F4641
:104EA0008A680B69DDF820809342B8BF1346C9F8C1
:104EB000003091F8432006460C4612B10133C9F880
:104EC00000302368990642BFD9F800300233C9F890
:104ED0000030256815F0060507D104F1190AE368CA
:104EE000D9F800209B1AAB4228DC94F843302268A2
:104EF000003318BF012392062DD404F14302394632
:104F00003046C047013020D02368E568D9F800203A
:104F100003F00603042B08BFAD1AA36822690CBF77
:104F200025EAE57500259342C4BF9B1AED184FF0A2
:104F300000091A344D451AD1002008E001235246D9
:104F400039463046C047013003D14FF0FF30BDE84D
:104F5000F0870135C3E7E1185A1C302081F843007F
:104F6000224494F8451082F843100233C5E7012328
:104F7000224639463046C0470130E6D009F10109E2
:104F8000D8E700002DE9F04301F1430C0C46097EFF
:104F900085B06E291746064698460C9A00F0B380F5
:104FA00022D8632936D00AD8002900F0B9805829C0
:104FB00000F0838004F1420584F8421032E0642955
:104FC00001D06929F6D120681368050603F10401B0
:104FD0002AD51B681160002B03DA2D225B4284F86E
:104FE00043206F480A2239E0732900F09D8008D8D9
:104FF0006F2920D07029DDD1236843F0200323607E
:1050000003E0752917D07829D4D1782384F8453066
:10501000644855E01368191D1B68116004F14205CE
:1050200084F8423001238CE01B68116010F0400FBF
:1050300018BF1BB2CFE713682568181D106028063B
:1050400001D51B6802E06806FBD51B8854486F2910
:1050500014BF0A220822002184F843106568A56065
:10506000002DC0F29580216821F004012160002B01
:105070003DD1002D40F08E806546082A0BD1236873
:10508000DB0708D5236962689A42DEBF302305F842
:10509000013C05F1FF35ACEB05032361CDF8008041
:1050A0003B4603AA21463046FFF7F6FE01304DD1BC
:1050B0004FF0FF3005B0BDE8F083394884F8451063
:1050C000136821681D1D1B6815600A060BD5CA07E9
:1050D00044BF41F0200121601BB9226822F0200268
:1050E00022601022B7E74D0648BF9BB2EFE7654646
:1050F000B3FBF2F102FB1133C35C05F8013D0B4633
:105100000029F5D1B9E7136825686169181D106099
:1051100028061B6801D5196002E06A06FBD51980D4
:10512000002323616546B9E71368191D11601D68E6
:10513000626800212846FBF7F3F908B1401B606064
:1051400063682361002384F84330A7E723692A4674
:1051500039463046C0470130AAD023689B0713D494
:10516000E068039B9842B8BF1846A3E701234A466C
:1051700039463046C04701309AD00135E368039A7A
:105180009B1AAB42F2DCEBE7002504F11909F5E7C5
:10519000002BACD1037884F8423004F142056CE76F
:1051A00099550008AA550008884210B501EB020382
:1051B00007D8421E99420AD011F8014B02F8014F5C
:1051C000F8E78342F5D98118D21AD34200D110BD35
:1051D00013F8014D01F8014DF7E7000038B5054619
:1051E000002945D051F8043C0C1F002BB8BFE4182F
:1051F00000F0D2F81F4A1368104633B96360146098
:105200002846BDE8384000F0C8B8A3420CD9216850
:105210006218934204BF1A685B68636004BF521847
:1052200022600460ECE713465A680AB1A242FAD938
:1052300019685818A0420BD12068014458188242BE
:105240001960DDD1106852685A6001441960D7E7CF
:1052500002D90C232B60D3E7206821188A4204BFAF
:1052600011685268626004BF091821605C60C7E77A
:1052700038BD00BFA800002070B5CD1C25F0030587
:1052800008350C2D38BF0C25002D064601DBA94240
:1052900003D90C233360002070BD00F07DF8214A53
:1052A0001468214691B9204C23681BB9304600F0A0
:1052B00063F820602946304600F05EF8431C24D194
:1052C0000C233360304600F068F8E4E70B685B1BA2
:1052D00018D40B2B0FD90B60CD50CC18304600F0F2
:1052E0005CF804F10B00231D20F00700C31AD3D093
:1052F0005A42E250D0E78C424B6816BF636013609D
:105300000C46EBE70C464968CCE7C41C24F00304C8
:10531000A04205D0211A304600F02EF80130CFD03F
:105320002560DBE7A8000020AC000020F8B50746A8
:1053300014460E4621B91146BDE8F840FFF79CBF60
:1053400022B9FFF74BFF25462846F8BD00F026F8A6
:10535000A0420FD221463846FFF78EFF05460028AF
:10536000F2D031462246FFF711FC31463846FFF7AE
:1053700035FFE9E73546E7E738B5064C0023054633
:105380000846236000F012F8431C02D1236803B1E1
:105390002B6038BD2C0900207047704751F8043C41
:1053A000181F002BBCBF0B58C0187047044A054992
:1053B0001368002B08BF0B4618441060184670474E
:1053C000B000002030090020F8B500BFF8BC08BCD0
:1053D0009E467047F8B500BFF8BC08BC9E467047B3
:1053E0000006101600061016000000000000000065
:1053F000010203040607080900000000010203047B
:105400000D48656C6C6F20576F726C64210D0A003B
:105410000D4144432054657374696E670D0A0000A2
:105420000D0000005B2535645D2020000D25730D07
:105430000A00000054484C5F55736172742E633A41
:1054400020757361727457726974652829207C20F5
:1054500054696D654F75740054484C5F55736172A3
:10546000742E633A2075736172745772697465287B
:1054700029207C204572726F7200000054484C5FF6
:1054800055736172742E633A20757361727457722A
:105490006974655F49542829207C204572726F72B7
:1054A0000000000054484C5F55736172742E633ADB
:1054B00020757361727457726974655F444D412839
:1054C00029207C204572726F7200000054484C5FA6
:1054D00055736172742E633A2075736172745265EC
:1054E00061642829207C2054696D654F7574000023
:1054F00054484C5F55736172742E633A2075736122
:105500007274526561642829207C204572726F7222
:105510000000000054484C5F55736172742E633A6A
:10552000207573617274526561645F495428292043
:105530007C204572726F720054484C5F55736172E3
:10554000742E633A207573617274526561645F44AE
:105550004D412829207C204572726F7200000000A6
:1055600054484C5F55736172742E633A2048414C25
:105570005F554152545F4572726F7243616C6C6249
:1055800061636B2829000000232D302B2000686CFC
:105590004C00656667454647003031323334353656
:1055A000373839414243444546003031323334358F
:1055B00036373839616263646566000000000000B8
:1055C00000000000000000000000000000000000DB
:1055D00000000000000000000000000000000000CB
:1055E00000000000000000000000000000000000BB
:1055F00000000000000000000000000000000000AB
:10560000000000000000000000000000000000009A
:0C5610000000000000000000000000008E
:08561C0024ACFF7F0100000037
:04562400F501000884
:04562800D1010008A4
:10562C0001000000100000000024F4001000002015
:10563C0000000000DC550008FC550008BC550008B3
:10564C00000000000000000000000000000000004E
:10565C00000000000000000000000000000000003E
:10566C00000000000000000000000000000000002E
:10567C00000000000000000000000000000000001E
:10568C00000000000000000000000000000000000E
:0400000508004AF1B4
:00000001FF
